{"contracts/Token.sol":{"Token":{"abi":[{"inputs":[],"stateMutability":"nonpayable","type":"constructor"},{"inputs":[{"internalType":"address","name":"spender","type":"address"},{"internalType":"uint256","name":"allowance","type":"uint256"},{"internalType":"uint256","name":"needed","type":"uint256"}],"name":"ERC20InsufficientAllowance","type":"error"},{"inputs":[{"internalType":"address","name":"sender","type":"address"},{"internalType":"uint256","name":"balance","type":"uint256"},{"internalType":"uint256","name":"needed","type":"uint256"}],"name":"ERC20InsufficientBalance","type":"error"},{"inputs":[{"internalType":"address","name":"approver","type":"address"}],"name":"ERC20InvalidApprover","type":"error"},{"inputs":[{"internalType":"address","name":"receiver","type":"address"}],"name":"ERC20InvalidReceiver","type":"error"},{"inputs":[{"internalType":"address","name":"sender","type":"address"}],"name":"ERC20InvalidSender","type":"error"},{"inputs":[{"internalType":"address","name":"spender","type":"address"}],"name":"ERC20InvalidSpender","type":"error"},{"anonymous":false,"inputs":[{"indexed":true,"internalType":"address","name":"owner","type":"address"},{"indexed":true,"internalType":"address","name":"spender","type":"address"},{"indexed":false,"internalType":"uint256","name":"value","type":"uint256"}],"name":"Approval","type":"event"},{"anonymous":false,"inputs":[{"indexed":true,"internalType":"address","name":"from","type":"address"},{"indexed":true,"internalType":"address","name":"to","type":"address"},{"indexed":false,"internalType":"uint256","name":"value","type":"uint256"}],"name":"Transfer","type":"event"},{"anonymous":false,"inputs":[{"indexed":true,"internalType":"address","name":"voter","type":"address"},{"indexed":false,"internalType":"string","name":"codinome","type":"string"},{"indexed":false,"internalType":"uint256","name":"amount","type":"uint256"}],"name":"Voted","type":"event"},{"inputs":[],"name":"ACCOUNT_NUMBER","outputs":[{"internalType":"uint256","name":"","type":"uint256"}],"stateMutability":"view","type":"function"},{"inputs":[],"name":"MAX_MINT_VOTE","outputs":[{"internalType":"uint256","name":"","type":"uint256"}],"stateMutability":"view","type":"function"},{"inputs":[],"name":"VOTE_REWARD","outputs":[{"internalType":"uint256","name":"","type":"uint256"}],"stateMutability":"view","type":"function"},{"inputs":[{"internalType":"address","name":"owner","type":"address"},{"internalType":"address","name":"spender","type":"address"}],"name":"allowance","outputs":[{"internalType":"uint256","name":"","type":"uint256"}],"stateMutability":"view","type":"function"},{"inputs":[{"internalType":"address","name":"spender","type":"address"},{"internalType":"uint256","name":"value","type":"uint256"}],"name":"approve","outputs":[{"internalType":"bool","name":"","type":"bool"}],"stateMutability":"nonpayable","type":"function"},{"inputs":[{"internalType":"string","name":"codinome","type":"string"}],"name":"balanceByCodiname","outputs":[{"internalType":"uint256","name":"","type":"uint256"}],"stateMutability":"view","type":"function"},{"inputs":[{"internalType":"address","name":"account","type":"address"}],"name":"balanceOf","outputs":[{"internalType":"uint256","name":"","type":"uint256"}],"stateMutability":"view","type":"function"},{"inputs":[],"name":"decimals","outputs":[{"internalType":"uint8","name":"","type":"uint8"}],"stateMutability":"view","type":"function"},{"inputs":[],"name":"getAllBalances","outputs":[{"internalType":"string[]","name":"","type":"string[]"},{"internalType":"uint256[]","name":"","type":"uint256[]"}],"stateMutability":"view","type":"function"},{"inputs":[{"internalType":"string","name":"codinome","type":"string"},{"internalType":"uint256","name":"sats","type":"uint256"}],"name":"issueToken","outputs":[],"stateMutability":"nonpayable","type":"function"},{"inputs":[],"name":"name","outputs":[{"internalType":"string","name":"","type":"string"}],"stateMutability":"view","type":"function"},{"inputs":[],"name":"owner","outputs":[{"internalType":"address","name":"","type":"address"}],"stateMutability":"view","type":"function"},{"inputs":[],"name":"professora","outputs":[{"internalType":"address","name":"","type":"address"}],"stateMutability":"view","type":"function"},{"inputs":[],"name":"symbol","outputs":[{"internalType":"string","name":"","type":"string"}],"stateMutability":"view","type":"function"},{"inputs":[],"name":"totalSupply","outputs":[{"internalType":"uint256","name":"","type":"uint256"}],"stateMutability":"view","type":"function"},{"inputs":[{"internalType":"address","name":"to","type":"address"},{"internalType":"uint256","name":"value","type":"uint256"}],"name":"transfer","outputs":[{"internalType":"bool","name":"","type":"bool"}],"stateMutability":"nonpayable","type":"function"},{"inputs":[{"internalType":"address","name":"from","type":"address"},{"internalType":"address","name":"to","type":"address"},{"internalType":"uint256","name":"value","type":"uint256"}],"name":"transferFrom","outputs":[{"internalType":"bool","name":"","type":"bool"}],"stateMutability":"nonpayable","type":"function"},{"inputs":[{"internalType":"string","name":"codinome","type":"string"},{"internalType":"uint256","name":"sats","type":"uint256"}],"name":"vote","outputs":[],"stateMutability":"nonpayable","type":"function"},{"inputs":[{"internalType":"address","name":"","type":"address"},{"internalType":"string","name":"","type":"string"}],"name":"voted","outputs":[{"internalType":"bool","name":"","type":"bool"}],"stateMutability":"view","type":"function"},{"inputs":[],"name":"votingActive","outputs":[{"internalType":"bool","name":"","type":"bool"}],"stateMutability":"view","type":"function"},{"inputs":[],"name":"votingOff","outputs":[],"stateMutability":"nonpayable","type":"function"},{"inputs":[],"name":"votingOn","outputs":[],"stateMutability":"nonpayable","type":"function"}],"evm":{"bytecode":{"linkReferences":{},"object":"608060405273502542668af09fa7aea52174b9965a7799343df7600660006101000a81548173ffffffffffffffffffffffffffffffffffffffff021916908373ffffffffffffffffffffffffffffffffffffffff1602179055506001600660146101000a81548160ff021916908315150217905550600b67ffffffffffffffff81111561008f5761008e610b8e565b5b6040519080825280602002602001820160405280156100c257816020015b60608152602001906001900390816100ad5790505b50600990805190602001906100d8929190610ab4565b503480156100e557600080fd5b506040518060400160405280600681526020017f547572696e6700000000000000000000000000000000000000000000000000008152506040518060400160405280600381526020017f545552000000000000000000000000000000000000000000000000000000000081525081600390816101619190610dde565b5080600490816101719190610dde565b50505033600560006101000a81548173ffffffffffffffffffffffffffffffffffffffff021916908373ffffffffffffffffffffffffffffffffffffffff16021790555073f39fd6e51aad88f6f4ce6ab8827279cfffb9226660076040516101d890610f07565b908152602001604051809103902060006101000a81548173ffffffffffffffffffffffffffffffffffffffff021916908373ffffffffffffffffffffffffffffffffffffffff1602179055507370997970c51812dc3a010c7d01b50e0d17dc79c8600760405161024790610f68565b908152602001604051809103902060006101000a81548173ffffffffffffffffffffffffffffffffffffffff021916908373ffffffffffffffffffffffffffffffffffffffff160217905550733c44cdddb6a900fa2b585dd299e03d12fa4293bc60076040516102b690610fc9565b908152602001604051809103902060006101000a81548173ffffffffffffffffffffffffffffffffffffffff021916908373ffffffffffffffffffffffffffffffffffffffff1602179055507390f79bf6eb2c4f870365e785982e1f101e93b90660076040516103259061102a565b908152602001604051809103902060006101000a81548173ffffffffffffffffffffffffffffffffffffffff021916908373ffffffffffffffffffffffffffffffffffffffff1602179055507315d34aaf54267db7d7c367839aaf71a00a2c6a6560076040516103949061108b565b908152602001604051809103902060006101000a81548173ffffffffffffffffffffffffffffffffffffffff021916908373ffffffffffffffffffffffffffffffffffffffff160217905550739965507d1a55bcc2695c58ba16fb37d819b0a4dc6007604051610403906110ec565b908152602001604051809103902060006101000a81548173ffffffffffffffffffffffffffffffffffffffff021916908373ffffffffffffffffffffffffffffffffffffffff16021790555073976ea74026e726554db657fa54763abd0c3a0aa960076040516104729061114d565b908152602001604051809103902060006101000a81548173ffffffffffffffffffffffffffffffffffffffff021916908373ffffffffffffffffffffffffffffffffffffffff1602179055507314dc79964da2c08b23698b3d3cc7ca32193d995560076040516104e1906111ae565b908152602001604051809103902060006101000a81548173ffffffffffffffffffffffffffffffffffffffff021916908373ffffffffffffffffffffffffffffffffffffffff1602179055507323618e81e3f5cdf7f54c3d65f7fbc0abf5b21e8f60076040516105509061120f565b908152602001604051809103902060006101000a81548173ffffffffffffffffffffffffffffffffffffffff021916908373ffffffffffffffffffffffffffffffffffffffff16021790555073a0ee7a142d267c1f36714e4a8f75612f20a7972060076040516105bf90611270565b908152602001604051809103902060006101000a81548173ffffffffffffffffffffffffffffffffffffffff021916908373ffffffffffffffffffffffffffffffffffffffff16021790555073bcd4042de499d14e55001ccbb24a551f3b954096600760405161062e906112d1565b908152602001604051809103902060006101000a81548173ffffffffffffffffffffffffffffffffffffffff021916908373ffffffffffffffffffffffffffffffffffffffff1602179055506040518060400160405280600581526020017f6e6f6d653000000000000000000000000000000000000000000000000000000081525060096000815481106106c5576106c46112e6565b5b9060005260206000200190816106db9190610dde565b506040518060400160405280600581526020017f6e6f6d65310000000000000000000000000000000000000000000000000000008152506009600181548110610727576107266112e6565b5b90600052602060002001908161073d9190610dde565b506040518060400160405280600581526020017f6e6f6d65320000000000000000000000000000000000000000000000000000008152506009600281548110610789576107886112e6565b5b90600052602060002001908161079f9190610dde565b506040518060400160405280600581526020017f6e6f6d653300000000000000000000000000000000000000000000000000000081525060096003815481106107eb576107ea6112e6565b5b9060005260206000200190816108019190610dde565b506040518060400160405280600581526020017f6e6f6d6534000000000000000000000000000000000000000000000000000000815250600960048154811061084d5761084c6112e6565b5b9060005260206000200190816108639190610dde565b506040518060400160405280600581526020017f6e6f6d653500000000000000000000000000000000000000000000000000000081525060096005815481106108af576108ae6112e6565b5b9060005260206000200190816108c59190610dde565b506040518060400160405280600581526020017f6e6f6d65360000000000000000000000000000000000000000000000000000008152506009600681548110610911576109106112e6565b5b9060005260206000200190816109279190610dde565b506040518060400160405280600581526020017f6e6f6d65370000000000000000000000000000000000000000000000000000008152506009600781548110610973576109726112e6565b5b9060005260206000200190816109899190610dde565b506040518060400160405280600581526020017f6e6f6d653800000000000000000000000000000000000000000000000000000081525060096008815481106109d5576109d46112e6565b5b9060005260206000200190816109eb9190610dde565b506040518060400160405280600581526020017f6e6f6d653900000000000000000000000000000000000000000000000000000081525060098081548110610a3657610a356112e6565b5b906000526020600020019081610a4c9190610dde565b506040518060400160405280600681526020017f6e6f6d65313000000000000000000000000000000000000000000000000000008152506009600a81548110610a9857610a976112e6565b5b906000526020600020019081610aae9190610dde565b50611315565b828054828255906000526020600020908101928215610afc579160200282015b82811115610afb578251829081610aeb9190610dde565b5091602001919060010190610ad4565b5b509050610b099190610b0d565b5090565b5b80821115610b2d5760008181610b249190610b31565b50600101610b0e565b5090565b508054610b3d90610bf7565b6000825580601f10610b4f5750610b6e565b601f016020900490600052602060002090810190610b6d9190610b71565b5b50565b5b80821115610b8a576000816000905550600101610b72565b5090565b7f4e487b7100000000000000000000000000000000000000000000000000000000600052604160045260246000fd5b600081519050919050565b7f4e487b7100000000000000000000000000000000000000000000000000000000600052602260045260246000fd5b60006002820490506001821680610c0f57607f821691505b602082108103610c2257610c21610bc8565b5b50919050565b60008190508160005260206000209050919050565b60006020601f8301049050919050565b600082821b905092915050565b600060088302610c8a7fffffffffffffffffffffffffffffffffffffffffffffffffffffffffffffffff82610c4d565b610c948683610c4d565b95508019841693508086168417925050509392505050565b6000819050919050565b6000819050919050565b6000610cdb610cd6610cd184610cac565b610cb6565b610cac565b9050919050565b6000819050919050565b610cf583610cc0565b610d09610d0182610ce2565b848454610c5a565b825550505050565b600090565b610d1e610d11565b610d29818484610cec565b505050565b5b81811015610d4d57610d42600082610d16565b600181019050610d2f565b5050565b601f821115610d9257610d6381610c28565b610d6c84610c3d565b81016020851015610d7b578190505b610d8f610d8785610c3d565b830182610d2e565b50505b505050565b600082821c905092915050565b6000610db560001984600802610d97565b1980831691505092915050565b6000610dce8383610da4565b9150826002028217905092915050565b610de782610bbd565b67ffffffffffffffff811115610e0057610dff610b8e565b5b610e0a8254610bf7565b610e15828285610d51565b600060209050601f831160018114610e485760008415610e36578287015190505b610e408582610dc2565b865550610ea8565b601f198416610e5686610c28565b60005b82811015610e7e57848901518255600182019150602085019450602081019050610e59565b86831015610e9b5784890151610e97601f891682610da4565b8355505b6001600288020188555050505b505050505050565b600081905092915050565b7f6e6f6d6530000000000000000000000000000000000000000000000000000000600082015250565b6000610ef1600583610eb0565b9150610efc82610ebb565b600582019050919050565b6000610f1282610ee4565b9150819050919050565b7f6e6f6d6531000000000000000000000000000000000000000000000000000000600082015250565b6000610f52600583610eb0565b9150610f5d82610f1c565b600582019050919050565b6000610f7382610f45565b9150819050919050565b7f6e6f6d6532000000000000000000000000000000000000000000000000000000600082015250565b6000610fb3600583610eb0565b9150610fbe82610f7d565b600582019050919050565b6000610fd482610fa6565b9150819050919050565b7f6e6f6d6533000000000000000000000000000000000000000000000000000000600082015250565b6000611014600583610eb0565b915061101f82610fde565b600582019050919050565b600061103582611007565b9150819050919050565b7f6e6f6d6534000000000000000000000000000000000000000000000000000000600082015250565b6000611075600583610eb0565b91506110808261103f565b600582019050919050565b600061109682611068565b9150819050919050565b7f6e6f6d6535000000000000000000000000000000000000000000000000000000600082015250565b60006110d6600583610eb0565b91506110e1826110a0565b600582019050919050565b60006110f7826110c9565b9150819050919050565b7f6e6f6d6536000000000000000000000000000000000000000000000000000000600082015250565b6000611137600583610eb0565b915061114282611101565b600582019050919050565b60006111588261112a565b9150819050919050565b7f6e6f6d6537000000000000000000000000000000000000000000000000000000600082015250565b6000611198600583610eb0565b91506111a382611162565b600582019050919050565b60006111b98261118b565b9150819050919050565b7f6e6f6d6538000000000000000000000000000000000000000000000000000000600082015250565b60006111f9600583610eb0565b9150611204826111c3565b600582019050919050565b600061121a826111ec565b9150819050919050565b7f6e6f6d6539000000000000000000000000000000000000000000000000000000600082015250565b600061125a600583610eb0565b915061126582611224565b600582019050919050565b600061127b8261124d565b9150819050919050565b7f6e6f6d6531300000000000000000000000000000000000000000000000000000600082015250565b60006112bb600683610eb0565b91506112c682611285565b600682019050919050565b60006112dc826112ae565b9150819050919050565b7f4e487b7100000000000000000000000000000000000000000000000000000000600052603260045260246000fd5b61259c806113246000396000f3fe608060405234801561001057600080fd5b50600436106101425760003560e01c80636c66247a116100b857806399f1a9851161007c57806399f1a9851461035a578063a638580314610378578063a9059cbb14610394578063c683e0f4146103c4578063dd62ed3e146103e0578063dffecc911461041057610142565b80636c66247a146102b157806370a08231146102cf578063867e7c27146102ff5780638da5cb5b1461031e57806395d89b411461033c57610142565b80631a7dfad41161010a5780631a7dfad41461021357806320949bb41461023157806323b872dd1461023b578063313ce5671461026b578063408e27271461028957806360a3ae06146102a757610142565b806306fdde0314610147578063095ea7b3146101655780630a7e945614610195578063104956ba146101c557806318160ddd146101f5575b600080fd5b61014f61042e565b60405161015c9190611909565b60405180910390f35b61017f600480360381019061017a91906119d3565b6104c0565b60405161018c9190611a2e565b60405180910390f35b6101af60048036038101906101aa9190611b7e565b6104e3565b6040516101bc9190611a2e565b60405180910390f35b6101df60048036038101906101da9190611bda565b610528565b6040516101ec9190611c32565b60405180910390f35b6101fd610627565b60405161020a9190611c32565b60405180910390f35b61021b610631565b6040516102289190611c32565b60405180910390f35b61023961063d565b005b61025560048036038101906102509190611c4d565b610742565b6040516102629190611a2e565b60405180910390f35b610273610771565b6040516102809190611cbc565b60405180910390f35b61029161077a565b60405161029e9190611a2e565b60405180910390f35b6102af61078d565b005b6102b9610892565b6040516102c69190611ce6565b60405180910390f35b6102e960048036038101906102e49190611d01565b6108b8565b6040516102f69190611c32565b60405180910390f35b610307610900565b604051610315929190611ef8565b60405180910390f35b610326610acd565b6040516103339190611ce6565b60405180910390f35b610344610af3565b6040516103519190611909565b60405180910390f35b610362610b85565b60405161036f9190611c32565b60405180910390f35b610392600480360381019061038d9190611f2f565b610b8a565b005b6103ae60048036038101906103a991906119d3565b610fbf565b6040516103bb9190611a2e565b60405180910390f35b6103de60048036038101906103d99190611f2f565b610fe2565b005b6103fa60048036038101906103f59190611f8b565b6111c5565b6040516104079190611c32565b60405180910390f35b61041861124c565b6040516104259190611c32565b60405180910390f35b60606003805461043d90611ffa565b80601f016020809104026020016040519081016040528092919081815260200182805461046990611ffa565b80156104b65780601f1061048b576101008083540402835291602001916104b6565b820191906000526020600020905b81548152906001019060200180831161049957829003601f168201915b5050505050905090565b6000806104cb611258565b90506104d8818585611260565b600191505092915050565b6008602052816000526040600020818051602081018201805184825260208301602085012081835280955050505050506000915091509054906101000a900460ff1681565b600060078260405161053a9190612067565b908152602001604051809103902060009054906101000a900473ffffffffffffffffffffffffffffffffffffffff16600073ffffffffffffffffffffffffffffffffffffffff168173ffffffffffffffffffffffffffffffffffffffff16036105d8576040517f08c379a00000000000000000000000000000000000000000000000000000000081526004016105cf906120ca565b60405180910390fd5b61061f6007846040516105eb9190612067565b908152602001604051809103902060009054906101000a900473ffffffffffffffffffffffffffffffffffffffff166108b8565b915050919050565b6000600254905090565b6702c68af0bb14000081565b600560009054906101000a900473ffffffffffffffffffffffffffffffffffffffff1673ffffffffffffffffffffffffffffffffffffffff163373ffffffffffffffffffffffffffffffffffffffff1614806106e65750600660009054906101000a900473ffffffffffffffffffffffffffffffffffffffff1673ffffffffffffffffffffffffffffffffffffffff163373ffffffffffffffffffffffffffffffffffffffff16145b610725576040517f08c379a000000000000000000000000000000000000000000000000000000000815260040161071c9061215c565b60405180910390fd5b6001600660146101000a81548160ff021916908315150217905550565b60008061074d611258565b905061075a858285611272565b610765858585611307565b60019150509392505050565b60006012905090565b600660149054906101000a900460ff1681565b600560009054906101000a900473ffffffffffffffffffffffffffffffffffffffff1673ffffffffffffffffffffffffffffffffffffffff163373ffffffffffffffffffffffffffffffffffffffff1614806108365750600660009054906101000a900473ffffffffffffffffffffffffffffffffffffffff1673ffffffffffffffffffffffffffffffffffffffff163373ffffffffffffffffffffffffffffffffffffffff16145b610875576040517f08c379a000000000000000000000000000000000000000000000000000000000815260040161086c9061215c565b60405180910390fd5b6000600660146101000a81548160ff021916908315150217905550565b600660009054906101000a900473ffffffffffffffffffffffffffffffffffffffff1681565b60008060008373ffffffffffffffffffffffffffffffffffffffff1673ffffffffffffffffffffffffffffffffffffffff168152602001908152602001600020549050919050565b6060806000600b67ffffffffffffffff8111156109205761091f611a53565b5b60405190808252806020026020018201604052801561094e5781602001602082028036833780820191505090505b50905060005b600b8110156109ed576109c16007600983815481106109765761097561217c565b5b9060005260206000200160405161098d9190612243565b908152602001604051809103902060009054906101000a900473ffffffffffffffffffffffffffffffffffffffff166108b8565b8282815181106109d4576109d361217c565b5b6020026020010181815250508080600101915050610954565b5060098181805480602002602001604051908101604052809291908181526020016000905b82821015610abe578382906000526020600020018054610a3190611ffa565b80601f0160208091040260200160405190810160405280929190818152602001828054610a5d90611ffa565b8015610aaa5780601f10610a7f57610100808354040283529160200191610aaa565b820191906000526020600020905b815481529060010190602001808311610a8d57829003601f168201915b505050505081526020019060010190610a12565b50505050915092509250509091565b600560009054906101000a900473ffffffffffffffffffffffffffffffffffffffff1681565b606060048054610b0290611ffa565b80601f0160208091040260200160405190810160405280929190818152602001828054610b2e90611ffa565b8015610b7b5780601f10610b5057610100808354040283529160200191610b7b565b820191906000526020600020905b815481529060010190602001808311610b5e57829003601f168201915b5050505050905090565b600b81565b600073ffffffffffffffffffffffffffffffffffffffff163373ffffffffffffffffffffffffffffffffffffffff1603610bf9576040517f08c379a0000000000000000000000000000000000000000000000000000000008152600401610bf0906122a6565b60405180910390fd5b600782604051610c099190612067565b908152602001604051809103902060009054906101000a900473ffffffffffffffffffffffffffffffffffffffff16600073ffffffffffffffffffffffffffffffffffffffff168173ffffffffffffffffffffffffffffffffffffffff1603610ca7576040517f08c379a0000000000000000000000000000000000000000000000000000000008152600401610c9e906120ca565b60405180910390fd5b82600781604051610cb89190612067565b908152602001604051809103902060009054906101000a900473ffffffffffffffffffffffffffffffffffffffff1673ffffffffffffffffffffffffffffffffffffffff163373ffffffffffffffffffffffffffffffffffffffff1603610d54576040517f08c379a0000000000000000000000000000000000000000000000000000000008152600401610d4b90612312565b60405180910390fd5b600660149054906101000a900460ff16610da3576040517f08c379a0000000000000000000000000000000000000000000000000000000008152600401610d9a9061237e565b60405180910390fd5b83600860003373ffffffffffffffffffffffffffffffffffffffff1673ffffffffffffffffffffffffffffffffffffffff16815260200190815260200160002081604051610df19190612067565b908152602001604051809103902060009054906101000a900460ff1615610e4d576040517f08c379a0000000000000000000000000000000000000000000000000000000008152600401610e44906123ea565b60405180910390fd5b83671bc16d674ec80000811115610e99576040517f08c379a0000000000000000000000000000000000000000000000000000000008152600401610e909061247c565b60405180910390fd5b610ee1600787604051610eac9190612067565b908152602001604051809103902060009054906101000a900473ffffffffffffffffffffffffffffffffffffffff16866113fb565b610ef3336702c68af0bb1400006113fb565b6001600860003373ffffffffffffffffffffffffffffffffffffffff1673ffffffffffffffffffffffffffffffffffffffff16815260200190815260200160002087604051610f429190612067565b908152602001604051809103902060006101000a81548160ff0219169083151502179055503373ffffffffffffffffffffffffffffffffffffffff167f35b4034b2bbe10bb07b21969c986794a6276a531bb155886a9f883bb5c9dc8e88787604051610faf92919061249c565b60405180910390a2505050505050565b600080610fca611258565b9050610fd7818585611307565b600191505092915050565b600560009054906101000a900473ffffffffffffffffffffffffffffffffffffffff1673ffffffffffffffffffffffffffffffffffffffff163373ffffffffffffffffffffffffffffffffffffffff16148061108b5750600660009054906101000a900473ffffffffffffffffffffffffffffffffffffffff1673ffffffffffffffffffffffffffffffffffffffff163373ffffffffffffffffffffffffffffffffffffffff16145b6110ca576040517f08c379a00000000000000000000000000000000000000000000000000000000081526004016110c19061215c565b60405180910390fd5b6007826040516110da9190612067565b908152602001604051809103902060009054906101000a900473ffffffffffffffffffffffffffffffffffffffff16600073ffffffffffffffffffffffffffffffffffffffff168173ffffffffffffffffffffffffffffffffffffffff1603611178576040517f08c379a000000000000000000000000000000000000000000000000000000000815260040161116f906120ca565b60405180910390fd5b6111c060078460405161118b9190612067565b908152602001604051809103902060009054906101000a900473ffffffffffffffffffffffffffffffffffffffff16836113fb565b505050565b6000600160008473ffffffffffffffffffffffffffffffffffffffff1673ffffffffffffffffffffffffffffffffffffffff16815260200190815260200160002060008373ffffffffffffffffffffffffffffffffffffffff1673ffffffffffffffffffffffffffffffffffffffff16815260200190815260200160002054905092915050565b671bc16d674ec8000081565b600033905090565b61126d838383600161147d565b505050565b600061127e84846111c5565b90507fffffffffffffffffffffffffffffffffffffffffffffffffffffffffffffffff81101561130157818110156112f1578281836040517ffb8f41b20000000000000000000000000000000000000000000000000000000081526004016112e8939291906124cc565b60405180910390fd5b6113008484848403600061147d565b5b50505050565b600073ffffffffffffffffffffffffffffffffffffffff168373ffffffffffffffffffffffffffffffffffffffff16036113795760006040517f96c6fd1e0000000000000000000000000000000000000000000000000000000081526004016113709190611ce6565b60405180910390fd5b600073ffffffffffffffffffffffffffffffffffffffff168273ffffffffffffffffffffffffffffffffffffffff16036113eb5760006040517fec442f050000000000000000000000000000000000000000000000000000000081526004016113e29190611ce6565b60405180910390fd5b6113f6838383611654565b505050565b600073ffffffffffffffffffffffffffffffffffffffff168273ffffffffffffffffffffffffffffffffffffffff160361146d5760006040517fec442f050000000000000000000000000000000000000000000000000000000081526004016114649190611ce6565b60405180910390fd5b61147960008383611654565b5050565b600073ffffffffffffffffffffffffffffffffffffffff168473ffffffffffffffffffffffffffffffffffffffff16036114ef5760006040517fe602df050000000000000000000000000000000000000000000000000000000081526004016114e69190611ce6565b60405180910390fd5b600073ffffffffffffffffffffffffffffffffffffffff168373ffffffffffffffffffffffffffffffffffffffff16036115615760006040517f94280d620000000000000000000000000000000000000000000000000000000081526004016115589190611ce6565b60405180910390fd5b81600160008673ffffffffffffffffffffffffffffffffffffffff1673ffffffffffffffffffffffffffffffffffffffff16815260200190815260200160002060008573ffffffffffffffffffffffffffffffffffffffff1673ffffffffffffffffffffffffffffffffffffffff16815260200190815260200160002081905550801561164e578273ffffffffffffffffffffffffffffffffffffffff168473ffffffffffffffffffffffffffffffffffffffff167f8c5be1e5ebec7d5bd14f71427d1e84f3dd0314c0f7b2291e5b200ac8c7c3b925846040516116459190611c32565b60405180910390a35b50505050565b600073ffffffffffffffffffffffffffffffffffffffff168373ffffffffffffffffffffffffffffffffffffffff16036116a657806002600082825461169a9190612532565b92505081905550611779565b60008060008573ffffffffffffffffffffffffffffffffffffffff1673ffffffffffffffffffffffffffffffffffffffff16815260200190815260200160002054905081811015611732578381836040517fe450d38c000000000000000000000000000000000000000000000000000000008152600401611729939291906124cc565b60405180910390fd5b8181036000808673ffffffffffffffffffffffffffffffffffffffff1673ffffffffffffffffffffffffffffffffffffffff16815260200190815260200160002081905550505b600073ffffffffffffffffffffffffffffffffffffffff168273ffffffffffffffffffffffffffffffffffffffff16036117c2578060026000828254039250508190555061180f565b806000808473ffffffffffffffffffffffffffffffffffffffff1673ffffffffffffffffffffffffffffffffffffffff168152602001908152602001600020600082825401925050819055505b8173ffffffffffffffffffffffffffffffffffffffff168373ffffffffffffffffffffffffffffffffffffffff167fddf252ad1be2c89b69c2b068fc378daa952ba7f163c4a11628f55a4df523b3ef8360405161186c9190611c32565b60405180910390a3505050565b600081519050919050565b600082825260208201905092915050565b60005b838110156118b3578082015181840152602081019050611898565b60008484015250505050565b6000601f19601f8301169050919050565b60006118db82611879565b6118e58185611884565b93506118f5818560208601611895565b6118fe816118bf565b840191505092915050565b6000602082019050818103600083015261192381846118d0565b905092915050565b6000604051905090565b600080fd5b600080fd5b600073ffffffffffffffffffffffffffffffffffffffff82169050919050565b600061196a8261193f565b9050919050565b61197a8161195f565b811461198557600080fd5b50565b60008135905061199781611971565b92915050565b6000819050919050565b6119b08161199d565b81146119bb57600080fd5b50565b6000813590506119cd816119a7565b92915050565b600080604083850312156119ea576119e9611935565b5b60006119f885828601611988565b9250506020611a09858286016119be565b9150509250929050565b60008115159050919050565b611a2881611a13565b82525050565b6000602082019050611a436000830184611a1f565b92915050565b600080fd5b600080fd5b7f4e487b7100000000000000000000000000000000000000000000000000000000600052604160045260246000fd5b611a8b826118bf565b810181811067ffffffffffffffff82111715611aaa57611aa9611a53565b5b80604052505050565b6000611abd61192b565b9050611ac98282611a82565b919050565b600067ffffffffffffffff821115611ae957611ae8611a53565b5b611af2826118bf565b9050602081019050919050565b82818337600083830152505050565b6000611b21611b1c84611ace565b611ab3565b905082815260208101848484011115611b3d57611b3c611a4e565b5b611b48848285611aff565b509392505050565b600082601f830112611b6557611b64611a49565b5b8135611b75848260208601611b0e565b91505092915050565b60008060408385031215611b9557611b94611935565b5b6000611ba385828601611988565b925050602083013567ffffffffffffffff811115611bc457611bc361193a565b5b611bd085828601611b50565b9150509250929050565b600060208284031215611bf057611bef611935565b5b600082013567ffffffffffffffff811115611c0e57611c0d61193a565b5b611c1a84828501611b50565b91505092915050565b611c2c8161199d565b82525050565b6000602082019050611c476000830184611c23565b92915050565b600080600060608486031215611c6657611c65611935565b5b6000611c7486828701611988565b9350506020611c8586828701611988565b9250506040611c96868287016119be565b9150509250925092565b600060ff82169050919050565b611cb681611ca0565b82525050565b6000602082019050611cd16000830184611cad565b92915050565b611ce08161195f565b82525050565b6000602082019050611cfb6000830184611cd7565b92915050565b600060208284031215611d1757611d16611935565b5b6000611d2584828501611988565b91505092915050565b600081519050919050565b600082825260208201905092915050565b6000819050602082019050919050565b600082825260208201905092915050565b6000611d7682611879565b611d808185611d5a565b9350611d90818560208601611895565b611d99816118bf565b840191505092915050565b6000611db08383611d6b565b905092915050565b6000602082019050919050565b6000611dd082611d2e565b611dda8185611d39565b935083602082028501611dec85611d4a565b8060005b85811015611e285784840389528151611e098582611da4565b9450611e1483611db8565b925060208a01995050600181019050611df0565b50829750879550505050505092915050565b600081519050919050565b600082825260208201905092915050565b6000819050602082019050919050565b611e6f8161199d565b82525050565b6000611e818383611e66565b60208301905092915050565b6000602082019050919050565b6000611ea582611e3a565b611eaf8185611e45565b9350611eba83611e56565b8060005b83811015611eeb578151611ed28882611e75565b9750611edd83611e8d565b925050600181019050611ebe565b5085935050505092915050565b60006040820190508181036000830152611f128185611dc5565b90508181036020830152611f268184611e9a565b90509392505050565b60008060408385031215611f4657611f45611935565b5b600083013567ffffffffffffffff811115611f6457611f6361193a565b5b611f7085828601611b50565b9250506020611f81858286016119be565b9150509250929050565b60008060408385031215611fa257611fa1611935565b5b6000611fb085828601611988565b9250506020611fc185828601611988565b9150509250929050565b7f4e487b7100000000000000000000000000000000000000000000000000000000600052602260045260246000fd5b6000600282049050600182168061201257607f821691505b60208210810361202557612024611fcb565b5b50919050565b600081905092915050565b600061204182611879565b61204b818561202b565b935061205b818560208601611895565b80840191505092915050565b60006120738284612036565b915081905092915050565b7f44657374696e61746172696f206e616f206175746f72697a61646f2100000000600082015250565b60006120b4601c83611884565b91506120bf8261207e565b602082019050919050565b600060208201905081810360008301526120e3816120a7565b9050919050565b7f5065726d697373616f206e65676164612c206170656e6173206f776e6572206f60008201527f7520612070726f666573736f7261210000000000000000000000000000000000602082015250565b6000612146602f83611884565b9150612151826120ea565b604082019050919050565b6000602082019050818103600083015261217581612139565b9050919050565b7f4e487b7100000000000000000000000000000000000000000000000000000000600052603260045260246000fd5b60008190508160005260206000209050919050565b600081546121cd81611ffa565b6121d7818661202b565b945060018216600081146121f257600181146122075761223a565b60ff198316865281151582028601935061223a565b612210856121ab565b60005b8381101561223257815481890152600182019150602081019050612213565b838801955050505b50505092915050565b600061224f82846121c0565b915081905092915050565b7f52656d6574656e7465206e616f206175746f72697a61646f2100000000000000600082015250565b6000612290601983611884565b915061229b8261225a565b602082019050919050565b600060208201905081810360008301526122bf81612283565b9050919050565b7f4e616f20706f646520766f74617220656d207369206d65736d6f210000000000600082015250565b60006122fc601b83611884565b9150612307826122c6565b602082019050919050565b6000602082019050818103600083015261232b816122ef565b9050919050565b7f566f746163616f20657374612064657361746976616461210000000000000000600082015250565b6000612368601883611884565b915061237382612332565b602082019050919050565b600060208201905081810360008301526123978161235b565b9050919050565b7f566f6365206a6120766f746f75206e65737365207573756172696f2100000000600082015250565b60006123d4601c83611884565b91506123df8261239e565b602082019050919050565b60006020820190508181036000830152612403816123c7565b9050919050565b7f5175616e74696461646520646520746f6b656e7320646520766f746f206d756960008201527f746f20616c746121000000000000000000000000000000000000000000000000602082015250565b6000612466602883611884565b91506124718261240a565b604082019050919050565b6000602082019050818103600083015261249581612459565b9050919050565b600060408201905081810360008301526124b681856118d0565b90506124c56020830184611c23565b9392505050565b60006060820190506124e16000830186611cd7565b6124ee6020830185611c23565b6124fb6040830184611c23565b949350505050565b7f4e487b7100000000000000000000000000000000000000000000000000000000600052601160045260246000fd5b600061253d8261199d565b91506125488361199d565b92508282019050808211156125605761255f612503565b5b9291505056fea2646970667358221220715bc7a2c3ebfa7f04bd73acf48267aae3c10fca9b1cc1d9c96e79ce750543d464736f6c634300081c0033","opcodes":"PUSH1 0x80 PUSH1 0x40 MSTORE PUSH20 0x502542668AF09FA7AEA52174B9965A7799343DF7 PUSH1 0x6 PUSH1 0x0 PUSH2 0x100 EXP DUP2 SLOAD DUP2 PUSH20 0xFFFFFFFFFFFFFFFFFFFFFFFFFFFFFFFFFFFFFFFF MUL NOT AND SWAP1 DUP4 PUSH20 0xFFFFFFFFFFFFFFFFFFFFFFFFFFFFFFFFFFFFFFFF AND MUL OR SWAP1 SSTORE POP PUSH1 0x1 PUSH1 0x6 PUSH1 0x14 PUSH2 0x100 EXP DUP2 SLOAD DUP2 PUSH1 0xFF MUL NOT AND SWAP1 DUP4 ISZERO ISZERO MUL OR SWAP1 SSTORE POP PUSH1 0xB PUSH8 0xFFFFFFFFFFFFFFFF DUP2 GT ISZERO PUSH2 0x8F JUMPI PUSH2 0x8E PUSH2 0xB8E JUMP JUMPDEST JUMPDEST PUSH1 0x40 MLOAD SWAP1 DUP1 DUP3 MSTORE DUP1 PUSH1 0x20 MUL PUSH1 0x20 ADD DUP3 ADD PUSH1 0x40 MSTORE DUP1 ISZERO PUSH2 0xC2 JUMPI DUP2 PUSH1 0x20 ADD JUMPDEST PUSH1 0x60 DUP2 MSTORE PUSH1 0x20 ADD SWAP1 PUSH1 0x1 SWAP1 SUB SWAP1 DUP2 PUSH2 0xAD JUMPI SWAP1 POP JUMPDEST POP PUSH1 0x9 SWAP1 DUP1 MLOAD SWAP1 PUSH1 0x20 ADD SWAP1 PUSH2 0xD8 SWAP3 SWAP2 SWAP1 PUSH2 0xAB4 JUMP JUMPDEST POP CALLVALUE DUP1 ISZERO PUSH2 0xE5 JUMPI PUSH1 0x0 DUP1 REVERT JUMPDEST POP PUSH1 0x40 MLOAD DUP1 PUSH1 0x40 ADD PUSH1 0x40 MSTORE DUP1 PUSH1 0x6 DUP2 MSTORE PUSH1 0x20 ADD PUSH32 0x547572696E670000000000000000000000000000000000000000000000000000 DUP2 MSTORE POP PUSH1 0x40 MLOAD DUP1 PUSH1 0x40 ADD PUSH1 0x40 MSTORE DUP1 PUSH1 0x3 DUP2 MSTORE PUSH1 0x20 ADD PUSH32 0x5455520000000000000000000000000000000000000000000000000000000000 DUP2 MSTORE POP DUP2 PUSH1 0x3 SWAP1 DUP2 PUSH2 0x161 SWAP2 SWAP1 PUSH2 0xDDE JUMP JUMPDEST POP DUP1 PUSH1 0x4 SWAP1 DUP2 PUSH2 0x171 SWAP2 SWAP1 PUSH2 0xDDE JUMP JUMPDEST POP POP POP CALLER PUSH1 0x5 PUSH1 0x0 PUSH2 0x100 EXP DUP2 SLOAD DUP2 PUSH20 0xFFFFFFFFFFFFFFFFFFFFFFFFFFFFFFFFFFFFFFFF MUL NOT AND SWAP1 DUP4 PUSH20 0xFFFFFFFFFFFFFFFFFFFFFFFFFFFFFFFFFFFFFFFF AND MUL OR SWAP1 SSTORE POP PUSH20 0xF39FD6E51AAD88F6F4CE6AB8827279CFFFB92266 PUSH1 0x7 PUSH1 0x40 MLOAD PUSH2 0x1D8 SWAP1 PUSH2 0xF07 JUMP JUMPDEST SWAP1 DUP2 MSTORE PUSH1 0x20 ADD PUSH1 0x40 MLOAD DUP1 SWAP2 SUB SWAP1 KECCAK256 PUSH1 0x0 PUSH2 0x100 EXP DUP2 SLOAD DUP2 PUSH20 0xFFFFFFFFFFFFFFFFFFFFFFFFFFFFFFFFFFFFFFFF MUL NOT AND SWAP1 DUP4 PUSH20 0xFFFFFFFFFFFFFFFFFFFFFFFFFFFFFFFFFFFFFFFF AND MUL OR SWAP1 SSTORE POP PUSH20 0x70997970C51812DC3A010C7D01B50E0D17DC79C8 PUSH1 0x7 PUSH1 0x40 MLOAD PUSH2 0x247 SWAP1 PUSH2 0xF68 JUMP JUMPDEST SWAP1 DUP2 MSTORE PUSH1 0x20 ADD PUSH1 0x40 MLOAD DUP1 SWAP2 SUB SWAP1 KECCAK256 PUSH1 0x0 PUSH2 0x100 EXP DUP2 SLOAD DUP2 PUSH20 0xFFFFFFFFFFFFFFFFFFFFFFFFFFFFFFFFFFFFFFFF MUL NOT AND SWAP1 DUP4 PUSH20 0xFFFFFFFFFFFFFFFFFFFFFFFFFFFFFFFFFFFFFFFF AND MUL OR SWAP1 SSTORE POP PUSH20 0x3C44CDDDB6A900FA2B585DD299E03D12FA4293BC PUSH1 0x7 PUSH1 0x40 MLOAD PUSH2 0x2B6 SWAP1 PUSH2 0xFC9 JUMP JUMPDEST SWAP1 DUP2 MSTORE PUSH1 0x20 ADD PUSH1 0x40 MLOAD DUP1 SWAP2 SUB SWAP1 KECCAK256 PUSH1 0x0 PUSH2 0x100 EXP DUP2 SLOAD DUP2 PUSH20 0xFFFFFFFFFFFFFFFFFFFFFFFFFFFFFFFFFFFFFFFF MUL NOT AND SWAP1 DUP4 PUSH20 0xFFFFFFFFFFFFFFFFFFFFFFFFFFFFFFFFFFFFFFFF AND MUL OR SWAP1 SSTORE POP PUSH20 0x90F79BF6EB2C4F870365E785982E1F101E93B906 PUSH1 0x7 PUSH1 0x40 MLOAD PUSH2 0x325 SWAP1 PUSH2 0x102A JUMP JUMPDEST SWAP1 DUP2 MSTORE PUSH1 0x20 ADD PUSH1 0x40 MLOAD DUP1 SWAP2 SUB SWAP1 KECCAK256 PUSH1 0x0 PUSH2 0x100 EXP DUP2 SLOAD DUP2 PUSH20 0xFFFFFFFFFFFFFFFFFFFFFFFFFFFFFFFFFFFFFFFF MUL NOT AND SWAP1 DUP4 PUSH20 0xFFFFFFFFFFFFFFFFFFFFFFFFFFFFFFFFFFFFFFFF AND MUL OR SWAP1 SSTORE POP PUSH20 0x15D34AAF54267DB7D7C367839AAF71A00A2C6A65 PUSH1 0x7 PUSH1 0x40 MLOAD PUSH2 0x394 SWAP1 PUSH2 0x108B JUMP JUMPDEST SWAP1 DUP2 MSTORE PUSH1 0x20 ADD PUSH1 0x40 MLOAD DUP1 SWAP2 SUB SWAP1 KECCAK256 PUSH1 0x0 PUSH2 0x100 EXP DUP2 SLOAD DUP2 PUSH20 0xFFFFFFFFFFFFFFFFFFFFFFFFFFFFFFFFFFFFFFFF MUL NOT AND SWAP1 DUP4 PUSH20 0xFFFFFFFFFFFFFFFFFFFFFFFFFFFFFFFFFFFFFFFF AND MUL OR SWAP1 SSTORE POP PUSH20 0x9965507D1A55BCC2695C58BA16FB37D819B0A4DC PUSH1 0x7 PUSH1 0x40 MLOAD PUSH2 0x403 SWAP1 PUSH2 0x10EC JUMP JUMPDEST SWAP1 DUP2 MSTORE PUSH1 0x20 ADD PUSH1 0x40 MLOAD DUP1 SWAP2 SUB SWAP1 KECCAK256 PUSH1 0x0 PUSH2 0x100 EXP DUP2 SLOAD DUP2 PUSH20 0xFFFFFFFFFFFFFFFFFFFFFFFFFFFFFFFFFFFFFFFF MUL NOT AND SWAP1 DUP4 PUSH20 0xFFFFFFFFFFFFFFFFFFFFFFFFFFFFFFFFFFFFFFFF AND MUL OR SWAP1 SSTORE POP PUSH20 0x976EA74026E726554DB657FA54763ABD0C3A0AA9 PUSH1 0x7 PUSH1 0x40 MLOAD PUSH2 0x472 SWAP1 PUSH2 0x114D JUMP JUMPDEST SWAP1 DUP2 MSTORE PUSH1 0x20 ADD PUSH1 0x40 MLOAD DUP1 SWAP2 SUB SWAP1 KECCAK256 PUSH1 0x0 PUSH2 0x100 EXP DUP2 SLOAD DUP2 PUSH20 0xFFFFFFFFFFFFFFFFFFFFFFFFFFFFFFFFFFFFFFFF MUL NOT AND SWAP1 DUP4 PUSH20 0xFFFFFFFFFFFFFFFFFFFFFFFFFFFFFFFFFFFFFFFF AND MUL OR SWAP1 SSTORE POP PUSH20 0x14DC79964DA2C08B23698B3D3CC7CA32193D9955 PUSH1 0x7 PUSH1 0x40 MLOAD PUSH2 0x4E1 SWAP1 PUSH2 0x11AE JUMP JUMPDEST SWAP1 DUP2 MSTORE PUSH1 0x20 ADD PUSH1 0x40 MLOAD DUP1 SWAP2 SUB SWAP1 KECCAK256 PUSH1 0x0 PUSH2 0x100 EXP DUP2 SLOAD DUP2 PUSH20 0xFFFFFFFFFFFFFFFFFFFFFFFFFFFFFFFFFFFFFFFF MUL NOT AND SWAP1 DUP4 PUSH20 0xFFFFFFFFFFFFFFFFFFFFFFFFFFFFFFFFFFFFFFFF AND MUL OR SWAP1 SSTORE POP PUSH20 0x23618E81E3F5CDF7F54C3D65F7FBC0ABF5B21E8F PUSH1 0x7 PUSH1 0x40 MLOAD PUSH2 0x550 SWAP1 PUSH2 0x120F JUMP JUMPDEST SWAP1 DUP2 MSTORE PUSH1 0x20 ADD PUSH1 0x40 MLOAD DUP1 SWAP2 SUB SWAP1 KECCAK256 PUSH1 0x0 PUSH2 0x100 EXP DUP2 SLOAD DUP2 PUSH20 0xFFFFFFFFFFFFFFFFFFFFFFFFFFFFFFFFFFFFFFFF MUL NOT AND SWAP1 DUP4 PUSH20 0xFFFFFFFFFFFFFFFFFFFFFFFFFFFFFFFFFFFFFFFF AND MUL OR SWAP1 SSTORE POP PUSH20 0xA0EE7A142D267C1F36714E4A8F75612F20A79720 PUSH1 0x7 PUSH1 0x40 MLOAD PUSH2 0x5BF SWAP1 PUSH2 0x1270 JUMP JUMPDEST SWAP1 DUP2 MSTORE PUSH1 0x20 ADD PUSH1 0x40 MLOAD DUP1 SWAP2 SUB SWAP1 KECCAK256 PUSH1 0x0 PUSH2 0x100 EXP DUP2 SLOAD DUP2 PUSH20 0xFFFFFFFFFFFFFFFFFFFFFFFFFFFFFFFFFFFFFFFF MUL NOT AND SWAP1 DUP4 PUSH20 0xFFFFFFFFFFFFFFFFFFFFFFFFFFFFFFFFFFFFFFFF AND MUL OR SWAP1 SSTORE POP PUSH20 0xBCD4042DE499D14E55001CCBB24A551F3B954096 PUSH1 0x7 PUSH1 0x40 MLOAD PUSH2 0x62E SWAP1 PUSH2 0x12D1 JUMP JUMPDEST SWAP1 DUP2 MSTORE PUSH1 0x20 ADD PUSH1 0x40 MLOAD DUP1 SWAP2 SUB SWAP1 KECCAK256 PUSH1 0x0 PUSH2 0x100 EXP DUP2 SLOAD DUP2 PUSH20 0xFFFFFFFFFFFFFFFFFFFFFFFFFFFFFFFFFFFFFFFF MUL NOT AND SWAP1 DUP4 PUSH20 0xFFFFFFFFFFFFFFFFFFFFFFFFFFFFFFFFFFFFFFFF AND MUL OR SWAP1 SSTORE POP PUSH1 0x40 MLOAD DUP1 PUSH1 0x40 ADD PUSH1 0x40 MSTORE DUP1 PUSH1 0x5 DUP2 MSTORE PUSH1 0x20 ADD PUSH32 0x6E6F6D6530000000000000000000000000000000000000000000000000000000 DUP2 MSTORE POP PUSH1 0x9 PUSH1 0x0 DUP2 SLOAD DUP2 LT PUSH2 0x6C5 JUMPI PUSH2 0x6C4 PUSH2 0x12E6 JUMP JUMPDEST JUMPDEST SWAP1 PUSH1 0x0 MSTORE PUSH1 0x20 PUSH1 0x0 KECCAK256 ADD SWAP1 DUP2 PUSH2 0x6DB SWAP2 SWAP1 PUSH2 0xDDE JUMP JUMPDEST POP PUSH1 0x40 MLOAD DUP1 PUSH1 0x40 ADD PUSH1 0x40 MSTORE DUP1 PUSH1 0x5 DUP2 MSTORE PUSH1 0x20 ADD PUSH32 0x6E6F6D6531000000000000000000000000000000000000000000000000000000 DUP2 MSTORE POP PUSH1 0x9 PUSH1 0x1 DUP2 SLOAD DUP2 LT PUSH2 0x727 JUMPI PUSH2 0x726 PUSH2 0x12E6 JUMP JUMPDEST JUMPDEST SWAP1 PUSH1 0x0 MSTORE PUSH1 0x20 PUSH1 0x0 KECCAK256 ADD SWAP1 DUP2 PUSH2 0x73D SWAP2 SWAP1 PUSH2 0xDDE JUMP JUMPDEST POP PUSH1 0x40 MLOAD DUP1 PUSH1 0x40 ADD PUSH1 0x40 MSTORE DUP1 PUSH1 0x5 DUP2 MSTORE PUSH1 0x20 ADD PUSH32 0x6E6F6D6532000000000000000000000000000000000000000000000000000000 DUP2 MSTORE POP PUSH1 0x9 PUSH1 0x2 DUP2 SLOAD DUP2 LT PUSH2 0x789 JUMPI PUSH2 0x788 PUSH2 0x12E6 JUMP JUMPDEST JUMPDEST SWAP1 PUSH1 0x0 MSTORE PUSH1 0x20 PUSH1 0x0 KECCAK256 ADD SWAP1 DUP2 PUSH2 0x79F SWAP2 SWAP1 PUSH2 0xDDE JUMP JUMPDEST POP PUSH1 0x40 MLOAD DUP1 PUSH1 0x40 ADD PUSH1 0x40 MSTORE DUP1 PUSH1 0x5 DUP2 MSTORE PUSH1 0x20 ADD PUSH32 0x6E6F6D6533000000000000000000000000000000000000000000000000000000 DUP2 MSTORE POP PUSH1 0x9 PUSH1 0x3 DUP2 SLOAD DUP2 LT PUSH2 0x7EB JUMPI PUSH2 0x7EA PUSH2 0x12E6 JUMP JUMPDEST JUMPDEST SWAP1 PUSH1 0x0 MSTORE PUSH1 0x20 PUSH1 0x0 KECCAK256 ADD SWAP1 DUP2 PUSH2 0x801 SWAP2 SWAP1 PUSH2 0xDDE JUMP JUMPDEST POP PUSH1 0x40 MLOAD DUP1 PUSH1 0x40 ADD PUSH1 0x40 MSTORE DUP1 PUSH1 0x5 DUP2 MSTORE PUSH1 0x20 ADD PUSH32 0x6E6F6D6534000000000000000000000000000000000000000000000000000000 DUP2 MSTORE POP PUSH1 0x9 PUSH1 0x4 DUP2 SLOAD DUP2 LT PUSH2 0x84D JUMPI PUSH2 0x84C PUSH2 0x12E6 JUMP JUMPDEST JUMPDEST SWAP1 PUSH1 0x0 MSTORE PUSH1 0x20 PUSH1 0x0 KECCAK256 ADD SWAP1 DUP2 PUSH2 0x863 SWAP2 SWAP1 PUSH2 0xDDE JUMP JUMPDEST POP PUSH1 0x40 MLOAD DUP1 PUSH1 0x40 ADD PUSH1 0x40 MSTORE DUP1 PUSH1 0x5 DUP2 MSTORE PUSH1 0x20 ADD PUSH32 0x6E6F6D6535000000000000000000000000000000000000000000000000000000 DUP2 MSTORE POP PUSH1 0x9 PUSH1 0x5 DUP2 SLOAD DUP2 LT PUSH2 0x8AF JUMPI PUSH2 0x8AE PUSH2 0x12E6 JUMP JUMPDEST JUMPDEST SWAP1 PUSH1 0x0 MSTORE PUSH1 0x20 PUSH1 0x0 KECCAK256 ADD SWAP1 DUP2 PUSH2 0x8C5 SWAP2 SWAP1 PUSH2 0xDDE JUMP JUMPDEST POP PUSH1 0x40 MLOAD DUP1 PUSH1 0x40 ADD PUSH1 0x40 MSTORE DUP1 PUSH1 0x5 DUP2 MSTORE PUSH1 0x20 ADD PUSH32 0x6E6F6D6536000000000000000000000000000000000000000000000000000000 DUP2 MSTORE POP PUSH1 0x9 PUSH1 0x6 DUP2 SLOAD DUP2 LT PUSH2 0x911 JUMPI PUSH2 0x910 PUSH2 0x12E6 JUMP JUMPDEST JUMPDEST SWAP1 PUSH1 0x0 MSTORE PUSH1 0x20 PUSH1 0x0 KECCAK256 ADD SWAP1 DUP2 PUSH2 0x927 SWAP2 SWAP1 PUSH2 0xDDE JUMP JUMPDEST POP PUSH1 0x40 MLOAD DUP1 PUSH1 0x40 ADD PUSH1 0x40 MSTORE DUP1 PUSH1 0x5 DUP2 MSTORE PUSH1 0x20 ADD PUSH32 0x6E6F6D6537000000000000000000000000000000000000000000000000000000 DUP2 MSTORE POP PUSH1 0x9 PUSH1 0x7 DUP2 SLOAD DUP2 LT PUSH2 0x973 JUMPI PUSH2 0x972 PUSH2 0x12E6 JUMP JUMPDEST JUMPDEST SWAP1 PUSH1 0x0 MSTORE PUSH1 0x20 PUSH1 0x0 KECCAK256 ADD SWAP1 DUP2 PUSH2 0x989 SWAP2 SWAP1 PUSH2 0xDDE JUMP JUMPDEST POP PUSH1 0x40 MLOAD DUP1 PUSH1 0x40 ADD PUSH1 0x40 MSTORE DUP1 PUSH1 0x5 DUP2 MSTORE PUSH1 0x20 ADD PUSH32 0x6E6F6D6538000000000000000000000000000000000000000000000000000000 DUP2 MSTORE POP PUSH1 0x9 PUSH1 0x8 DUP2 SLOAD DUP2 LT PUSH2 0x9D5 JUMPI PUSH2 0x9D4 PUSH2 0x12E6 JUMP JUMPDEST JUMPDEST SWAP1 PUSH1 0x0 MSTORE PUSH1 0x20 PUSH1 0x0 KECCAK256 ADD SWAP1 DUP2 PUSH2 0x9EB SWAP2 SWAP1 PUSH2 0xDDE JUMP JUMPDEST POP PUSH1 0x40 MLOAD DUP1 PUSH1 0x40 ADD PUSH1 0x40 MSTORE DUP1 PUSH1 0x5 DUP2 MSTORE PUSH1 0x20 ADD PUSH32 0x6E6F6D6539000000000000000000000000000000000000000000000000000000 DUP2 MSTORE POP PUSH1 0x9 DUP1 DUP2 SLOAD DUP2 LT PUSH2 0xA36 JUMPI PUSH2 0xA35 PUSH2 0x12E6 JUMP JUMPDEST JUMPDEST SWAP1 PUSH1 0x0 MSTORE PUSH1 0x20 PUSH1 0x0 KECCAK256 ADD SWAP1 DUP2 PUSH2 0xA4C SWAP2 SWAP1 PUSH2 0xDDE JUMP JUMPDEST POP PUSH1 0x40 MLOAD DUP1 PUSH1 0x40 ADD PUSH1 0x40 MSTORE DUP1 PUSH1 0x6 DUP2 MSTORE PUSH1 0x20 ADD PUSH32 0x6E6F6D6531300000000000000000000000000000000000000000000000000000 DUP2 MSTORE POP PUSH1 0x9 PUSH1 0xA DUP2 SLOAD DUP2 LT PUSH2 0xA98 JUMPI PUSH2 0xA97 PUSH2 0x12E6 JUMP JUMPDEST JUMPDEST SWAP1 PUSH1 0x0 MSTORE PUSH1 0x20 PUSH1 0x0 KECCAK256 ADD SWAP1 DUP2 PUSH2 0xAAE SWAP2 SWAP1 PUSH2 0xDDE JUMP JUMPDEST POP PUSH2 0x1315 JUMP JUMPDEST DUP3 DUP1 SLOAD DUP3 DUP3 SSTORE SWAP1 PUSH1 0x0 MSTORE PUSH1 0x20 PUSH1 0x0 KECCAK256 SWAP1 DUP2 ADD SWAP3 DUP3 ISZERO PUSH2 0xAFC JUMPI SWAP2 PUSH1 0x20 MUL DUP3 ADD JUMPDEST DUP3 DUP2 GT ISZERO PUSH2 0xAFB JUMPI DUP3 MLOAD DUP3 SWAP1 DUP2 PUSH2 0xAEB SWAP2 SWAP1 PUSH2 0xDDE JUMP JUMPDEST POP SWAP2 PUSH1 0x20 ADD SWAP2 SWAP1 PUSH1 0x1 ADD SWAP1 PUSH2 0xAD4 JUMP JUMPDEST JUMPDEST POP SWAP1 POP PUSH2 0xB09 SWAP2 SWAP1 PUSH2 0xB0D JUMP JUMPDEST POP SWAP1 JUMP JUMPDEST JUMPDEST DUP1 DUP3 GT ISZERO PUSH2 0xB2D JUMPI PUSH1 0x0 DUP2 DUP2 PUSH2 0xB24 SWAP2 SWAP1 PUSH2 0xB31 JUMP JUMPDEST POP PUSH1 0x1 ADD PUSH2 0xB0E JUMP JUMPDEST POP SWAP1 JUMP JUMPDEST POP DUP1 SLOAD PUSH2 0xB3D SWAP1 PUSH2 0xBF7 JUMP JUMPDEST PUSH1 0x0 DUP3 SSTORE DUP1 PUSH1 0x1F LT PUSH2 0xB4F JUMPI POP PUSH2 0xB6E JUMP JUMPDEST PUSH1 0x1F ADD PUSH1 0x20 SWAP1 DIV SWAP1 PUSH1 0x0 MSTORE PUSH1 0x20 PUSH1 0x0 KECCAK256 SWAP1 DUP2 ADD SWAP1 PUSH2 0xB6D SWAP2 SWAP1 PUSH2 0xB71 JUMP JUMPDEST JUMPDEST POP JUMP JUMPDEST JUMPDEST DUP1 DUP3 GT ISZERO PUSH2 0xB8A JUMPI PUSH1 0x0 DUP2 PUSH1 0x0 SWAP1 SSTORE POP PUSH1 0x1 ADD PUSH2 0xB72 JUMP JUMPDEST POP SWAP1 JUMP JUMPDEST PUSH32 0x4E487B7100000000000000000000000000000000000000000000000000000000 PUSH1 0x0 MSTORE PUSH1 0x41 PUSH1 0x4 MSTORE PUSH1 0x24 PUSH1 0x0 REVERT JUMPDEST PUSH1 0x0 DUP2 MLOAD SWAP1 POP SWAP2 SWAP1 POP JUMP JUMPDEST PUSH32 0x4E487B7100000000000000000000000000000000000000000000000000000000 PUSH1 0x0 MSTORE PUSH1 0x22 PUSH1 0x4 MSTORE PUSH1 0x24 PUSH1 0x0 REVERT JUMPDEST PUSH1 0x0 PUSH1 0x2 DUP3 DIV SWAP1 POP PUSH1 0x1 DUP3 AND DUP1 PUSH2 0xC0F JUMPI PUSH1 0x7F DUP3 AND SWAP2 POP JUMPDEST PUSH1 0x20 DUP3 LT DUP2 SUB PUSH2 0xC22 JUMPI PUSH2 0xC21 PUSH2 0xBC8 JUMP JUMPDEST JUMPDEST POP SWAP2 SWAP1 POP JUMP JUMPDEST PUSH1 0x0 DUP2 SWAP1 POP DUP2 PUSH1 0x0 MSTORE PUSH1 0x20 PUSH1 0x0 KECCAK256 SWAP1 POP SWAP2 SWAP1 POP JUMP JUMPDEST PUSH1 0x0 PUSH1 0x20 PUSH1 0x1F DUP4 ADD DIV SWAP1 POP SWAP2 SWAP1 POP JUMP JUMPDEST PUSH1 0x0 DUP3 DUP3 SHL SWAP1 POP SWAP3 SWAP2 POP POP JUMP JUMPDEST PUSH1 0x0 PUSH1 0x8 DUP4 MUL PUSH2 0xC8A PUSH32 0xFFFFFFFFFFFFFFFFFFFFFFFFFFFFFFFFFFFFFFFFFFFFFFFFFFFFFFFFFFFFFFFF DUP3 PUSH2 0xC4D JUMP JUMPDEST PUSH2 0xC94 DUP7 DUP4 PUSH2 0xC4D JUMP JUMPDEST SWAP6 POP DUP1 NOT DUP5 AND SWAP4 POP DUP1 DUP7 AND DUP5 OR SWAP3 POP POP POP SWAP4 SWAP3 POP POP POP JUMP JUMPDEST PUSH1 0x0 DUP2 SWAP1 POP SWAP2 SWAP1 POP JUMP JUMPDEST PUSH1 0x0 DUP2 SWAP1 POP SWAP2 SWAP1 POP JUMP JUMPDEST PUSH1 0x0 PUSH2 0xCDB PUSH2 0xCD6 PUSH2 0xCD1 DUP5 PUSH2 0xCAC JUMP JUMPDEST PUSH2 0xCB6 JUMP JUMPDEST PUSH2 0xCAC JUMP JUMPDEST SWAP1 POP SWAP2 SWAP1 POP JUMP JUMPDEST PUSH1 0x0 DUP2 SWAP1 POP SWAP2 SWAP1 POP JUMP JUMPDEST PUSH2 0xCF5 DUP4 PUSH2 0xCC0 JUMP JUMPDEST PUSH2 0xD09 PUSH2 0xD01 DUP3 PUSH2 0xCE2 JUMP JUMPDEST DUP5 DUP5 SLOAD PUSH2 0xC5A JUMP JUMPDEST DUP3 SSTORE POP POP POP POP JUMP JUMPDEST PUSH1 0x0 SWAP1 JUMP JUMPDEST PUSH2 0xD1E PUSH2 0xD11 JUMP JUMPDEST PUSH2 0xD29 DUP2 DUP5 DUP5 PUSH2 0xCEC JUMP JUMPDEST POP POP POP JUMP JUMPDEST JUMPDEST DUP2 DUP2 LT ISZERO PUSH2 0xD4D JUMPI PUSH2 0xD42 PUSH1 0x0 DUP3 PUSH2 0xD16 JUMP JUMPDEST PUSH1 0x1 DUP2 ADD SWAP1 POP PUSH2 0xD2F JUMP JUMPDEST POP POP JUMP JUMPDEST PUSH1 0x1F DUP3 GT ISZERO PUSH2 0xD92 JUMPI PUSH2 0xD63 DUP2 PUSH2 0xC28 JUMP JUMPDEST PUSH2 0xD6C DUP5 PUSH2 0xC3D JUMP JUMPDEST DUP2 ADD PUSH1 0x20 DUP6 LT ISZERO PUSH2 0xD7B JUMPI DUP2 SWAP1 POP JUMPDEST PUSH2 0xD8F PUSH2 0xD87 DUP6 PUSH2 0xC3D JUMP JUMPDEST DUP4 ADD DUP3 PUSH2 0xD2E JUMP JUMPDEST POP POP JUMPDEST POP POP POP JUMP JUMPDEST PUSH1 0x0 DUP3 DUP3 SHR SWAP1 POP SWAP3 SWAP2 POP POP JUMP JUMPDEST PUSH1 0x0 PUSH2 0xDB5 PUSH1 0x0 NOT DUP5 PUSH1 0x8 MUL PUSH2 0xD97 JUMP JUMPDEST NOT DUP1 DUP4 AND SWAP2 POP POP SWAP3 SWAP2 POP POP JUMP JUMPDEST PUSH1 0x0 PUSH2 0xDCE DUP4 DUP4 PUSH2 0xDA4 JUMP JUMPDEST SWAP2 POP DUP3 PUSH1 0x2 MUL DUP3 OR SWAP1 POP SWAP3 SWAP2 POP POP JUMP JUMPDEST PUSH2 0xDE7 DUP3 PUSH2 0xBBD JUMP JUMPDEST PUSH8 0xFFFFFFFFFFFFFFFF DUP2 GT ISZERO PUSH2 0xE00 JUMPI PUSH2 0xDFF PUSH2 0xB8E JUMP JUMPDEST JUMPDEST PUSH2 0xE0A DUP3 SLOAD PUSH2 0xBF7 JUMP JUMPDEST PUSH2 0xE15 DUP3 DUP3 DUP6 PUSH2 0xD51 JUMP JUMPDEST PUSH1 0x0 PUSH1 0x20 SWAP1 POP PUSH1 0x1F DUP4 GT PUSH1 0x1 DUP2 EQ PUSH2 0xE48 JUMPI PUSH1 0x0 DUP5 ISZERO PUSH2 0xE36 JUMPI DUP3 DUP8 ADD MLOAD SWAP1 POP JUMPDEST PUSH2 0xE40 DUP6 DUP3 PUSH2 0xDC2 JUMP JUMPDEST DUP7 SSTORE POP PUSH2 0xEA8 JUMP JUMPDEST PUSH1 0x1F NOT DUP5 AND PUSH2 0xE56 DUP7 PUSH2 0xC28 JUMP JUMPDEST PUSH1 0x0 JUMPDEST DUP3 DUP2 LT ISZERO PUSH2 0xE7E JUMPI DUP5 DUP10 ADD MLOAD DUP3 SSTORE PUSH1 0x1 DUP3 ADD SWAP2 POP PUSH1 0x20 DUP6 ADD SWAP5 POP PUSH1 0x20 DUP2 ADD SWAP1 POP PUSH2 0xE59 JUMP JUMPDEST DUP7 DUP4 LT ISZERO PUSH2 0xE9B JUMPI DUP5 DUP10 ADD MLOAD PUSH2 0xE97 PUSH1 0x1F DUP10 AND DUP3 PUSH2 0xDA4 JUMP JUMPDEST DUP4 SSTORE POP JUMPDEST PUSH1 0x1 PUSH1 0x2 DUP9 MUL ADD DUP9 SSTORE POP POP POP JUMPDEST POP POP POP POP POP POP JUMP JUMPDEST PUSH1 0x0 DUP2 SWAP1 POP SWAP3 SWAP2 POP POP JUMP JUMPDEST PUSH32 0x6E6F6D6530000000000000000000000000000000000000000000000000000000 PUSH1 0x0 DUP3 ADD MSTORE POP JUMP JUMPDEST PUSH1 0x0 PUSH2 0xEF1 PUSH1 0x5 DUP4 PUSH2 0xEB0 JUMP JUMPDEST SWAP2 POP PUSH2 0xEFC DUP3 PUSH2 0xEBB JUMP JUMPDEST PUSH1 0x5 DUP3 ADD SWAP1 POP SWAP2 SWAP1 POP JUMP JUMPDEST PUSH1 0x0 PUSH2 0xF12 DUP3 PUSH2 0xEE4 JUMP JUMPDEST SWAP2 POP DUP2 SWAP1 POP SWAP2 SWAP1 POP JUMP JUMPDEST PUSH32 0x6E6F6D6531000000000000000000000000000000000000000000000000000000 PUSH1 0x0 DUP3 ADD MSTORE POP JUMP JUMPDEST PUSH1 0x0 PUSH2 0xF52 PUSH1 0x5 DUP4 PUSH2 0xEB0 JUMP JUMPDEST SWAP2 POP PUSH2 0xF5D DUP3 PUSH2 0xF1C JUMP JUMPDEST PUSH1 0x5 DUP3 ADD SWAP1 POP SWAP2 SWAP1 POP JUMP JUMPDEST PUSH1 0x0 PUSH2 0xF73 DUP3 PUSH2 0xF45 JUMP JUMPDEST SWAP2 POP DUP2 SWAP1 POP SWAP2 SWAP1 POP JUMP JUMPDEST PUSH32 0x6E6F6D6532000000000000000000000000000000000000000000000000000000 PUSH1 0x0 DUP3 ADD MSTORE POP JUMP JUMPDEST PUSH1 0x0 PUSH2 0xFB3 PUSH1 0x5 DUP4 PUSH2 0xEB0 JUMP JUMPDEST SWAP2 POP PUSH2 0xFBE DUP3 PUSH2 0xF7D JUMP JUMPDEST PUSH1 0x5 DUP3 ADD SWAP1 POP SWAP2 SWAP1 POP JUMP JUMPDEST PUSH1 0x0 PUSH2 0xFD4 DUP3 PUSH2 0xFA6 JUMP JUMPDEST SWAP2 POP DUP2 SWAP1 POP SWAP2 SWAP1 POP JUMP JUMPDEST PUSH32 0x6E6F6D6533000000000000000000000000000000000000000000000000000000 PUSH1 0x0 DUP3 ADD MSTORE POP JUMP JUMPDEST PUSH1 0x0 PUSH2 0x1014 PUSH1 0x5 DUP4 PUSH2 0xEB0 JUMP JUMPDEST SWAP2 POP PUSH2 0x101F DUP3 PUSH2 0xFDE JUMP JUMPDEST PUSH1 0x5 DUP3 ADD SWAP1 POP SWAP2 SWAP1 POP JUMP JUMPDEST PUSH1 0x0 PUSH2 0x1035 DUP3 PUSH2 0x1007 JUMP JUMPDEST SWAP2 POP DUP2 SWAP1 POP SWAP2 SWAP1 POP JUMP JUMPDEST PUSH32 0x6E6F6D6534000000000000000000000000000000000000000000000000000000 PUSH1 0x0 DUP3 ADD MSTORE POP JUMP JUMPDEST PUSH1 0x0 PUSH2 0x1075 PUSH1 0x5 DUP4 PUSH2 0xEB0 JUMP JUMPDEST SWAP2 POP PUSH2 0x1080 DUP3 PUSH2 0x103F JUMP JUMPDEST PUSH1 0x5 DUP3 ADD SWAP1 POP SWAP2 SWAP1 POP JUMP JUMPDEST PUSH1 0x0 PUSH2 0x1096 DUP3 PUSH2 0x1068 JUMP JUMPDEST SWAP2 POP DUP2 SWAP1 POP SWAP2 SWAP1 POP JUMP JUMPDEST PUSH32 0x6E6F6D6535000000000000000000000000000000000000000000000000000000 PUSH1 0x0 DUP3 ADD MSTORE POP JUMP JUMPDEST PUSH1 0x0 PUSH2 0x10D6 PUSH1 0x5 DUP4 PUSH2 0xEB0 JUMP JUMPDEST SWAP2 POP PUSH2 0x10E1 DUP3 PUSH2 0x10A0 JUMP JUMPDEST PUSH1 0x5 DUP3 ADD SWAP1 POP SWAP2 SWAP1 POP JUMP JUMPDEST PUSH1 0x0 PUSH2 0x10F7 DUP3 PUSH2 0x10C9 JUMP JUMPDEST SWAP2 POP DUP2 SWAP1 POP SWAP2 SWAP1 POP JUMP JUMPDEST PUSH32 0x6E6F6D6536000000000000000000000000000000000000000000000000000000 PUSH1 0x0 DUP3 ADD MSTORE POP JUMP JUMPDEST PUSH1 0x0 PUSH2 0x1137 PUSH1 0x5 DUP4 PUSH2 0xEB0 JUMP JUMPDEST SWAP2 POP PUSH2 0x1142 DUP3 PUSH2 0x1101 JUMP JUMPDEST PUSH1 0x5 DUP3 ADD SWAP1 POP SWAP2 SWAP1 POP JUMP JUMPDEST PUSH1 0x0 PUSH2 0x1158 DUP3 PUSH2 0x112A JUMP JUMPDEST SWAP2 POP DUP2 SWAP1 POP SWAP2 SWAP1 POP JUMP JUMPDEST PUSH32 0x6E6F6D6537000000000000000000000000000000000000000000000000000000 PUSH1 0x0 DUP3 ADD MSTORE POP JUMP JUMPDEST PUSH1 0x0 PUSH2 0x1198 PUSH1 0x5 DUP4 PUSH2 0xEB0 JUMP JUMPDEST SWAP2 POP PUSH2 0x11A3 DUP3 PUSH2 0x1162 JUMP JUMPDEST PUSH1 0x5 DUP3 ADD SWAP1 POP SWAP2 SWAP1 POP JUMP JUMPDEST PUSH1 0x0 PUSH2 0x11B9 DUP3 PUSH2 0x118B JUMP JUMPDEST SWAP2 POP DUP2 SWAP1 POP SWAP2 SWAP1 POP JUMP JUMPDEST PUSH32 0x6E6F6D6538000000000000000000000000000000000000000000000000000000 PUSH1 0x0 DUP3 ADD MSTORE POP JUMP JUMPDEST PUSH1 0x0 PUSH2 0x11F9 PUSH1 0x5 DUP4 PUSH2 0xEB0 JUMP JUMPDEST SWAP2 POP PUSH2 0x1204 DUP3 PUSH2 0x11C3 JUMP JUMPDEST PUSH1 0x5 DUP3 ADD SWAP1 POP SWAP2 SWAP1 POP JUMP JUMPDEST PUSH1 0x0 PUSH2 0x121A DUP3 PUSH2 0x11EC JUMP JUMPDEST SWAP2 POP DUP2 SWAP1 POP SWAP2 SWAP1 POP JUMP JUMPDEST PUSH32 0x6E6F6D6539000000000000000000000000000000000000000000000000000000 PUSH1 0x0 DUP3 ADD MSTORE POP JUMP JUMPDEST PUSH1 0x0 PUSH2 0x125A PUSH1 0x5 DUP4 PUSH2 0xEB0 JUMP JUMPDEST SWAP2 POP PUSH2 0x1265 DUP3 PUSH2 0x1224 JUMP JUMPDEST PUSH1 0x5 DUP3 ADD SWAP1 POP SWAP2 SWAP1 POP JUMP JUMPDEST PUSH1 0x0 PUSH2 0x127B DUP3 PUSH2 0x124D JUMP JUMPDEST SWAP2 POP DUP2 SWAP1 POP SWAP2 SWAP1 POP JUMP JUMPDEST PUSH32 0x6E6F6D6531300000000000000000000000000000000000000000000000000000 PUSH1 0x0 DUP3 ADD MSTORE POP JUMP JUMPDEST PUSH1 0x0 PUSH2 0x12BB PUSH1 0x6 DUP4 PUSH2 0xEB0 JUMP JUMPDEST SWAP2 POP PUSH2 0x12C6 DUP3 PUSH2 0x1285 JUMP JUMPDEST PUSH1 0x6 DUP3 ADD SWAP1 POP SWAP2 SWAP1 POP JUMP JUMPDEST PUSH1 0x0 PUSH2 0x12DC DUP3 PUSH2 0x12AE JUMP JUMPDEST SWAP2 POP DUP2 SWAP1 POP SWAP2 SWAP1 POP JUMP JUMPDEST PUSH32 0x4E487B7100000000000000000000000000000000000000000000000000000000 PUSH1 0x0 MSTORE PUSH1 0x32 PUSH1 0x4 MSTORE PUSH1 0x24 PUSH1 0x0 REVERT JUMPDEST PUSH2 0x259C DUP1 PUSH2 0x1324 PUSH1 0x0 CODECOPY PUSH1 0x0 RETURN INVALID PUSH1 0x80 PUSH1 0x40 MSTORE CALLVALUE DUP1 ISZERO PUSH2 0x10 JUMPI PUSH1 0x0 DUP1 REVERT JUMPDEST POP PUSH1 0x4 CALLDATASIZE LT PUSH2 0x142 JUMPI PUSH1 0x0 CALLDATALOAD PUSH1 0xE0 SHR DUP1 PUSH4 0x6C66247A GT PUSH2 0xB8 JUMPI DUP1 PUSH4 0x99F1A985 GT PUSH2 0x7C JUMPI DUP1 PUSH4 0x99F1A985 EQ PUSH2 0x35A JUMPI DUP1 PUSH4 0xA6385803 EQ PUSH2 0x378 JUMPI DUP1 PUSH4 0xA9059CBB EQ PUSH2 0x394 JUMPI DUP1 PUSH4 0xC683E0F4 EQ PUSH2 0x3C4 JUMPI DUP1 PUSH4 0xDD62ED3E EQ PUSH2 0x3E0 JUMPI DUP1 PUSH4 0xDFFECC91 EQ PUSH2 0x410 JUMPI PUSH2 0x142 JUMP JUMPDEST DUP1 PUSH4 0x6C66247A EQ PUSH2 0x2B1 JUMPI DUP1 PUSH4 0x70A08231 EQ PUSH2 0x2CF JUMPI DUP1 PUSH4 0x867E7C27 EQ PUSH2 0x2FF JUMPI DUP1 PUSH4 0x8DA5CB5B EQ PUSH2 0x31E JUMPI DUP1 PUSH4 0x95D89B41 EQ PUSH2 0x33C JUMPI PUSH2 0x142 JUMP JUMPDEST DUP1 PUSH4 0x1A7DFAD4 GT PUSH2 0x10A JUMPI DUP1 PUSH4 0x1A7DFAD4 EQ PUSH2 0x213 JUMPI DUP1 PUSH4 0x20949BB4 EQ PUSH2 0x231 JUMPI DUP1 PUSH4 0x23B872DD EQ PUSH2 0x23B JUMPI DUP1 PUSH4 0x313CE567 EQ PUSH2 0x26B JUMPI DUP1 PUSH4 0x408E2727 EQ PUSH2 0x289 JUMPI DUP1 PUSH4 0x60A3AE06 EQ PUSH2 0x2A7 JUMPI PUSH2 0x142 JUMP JUMPDEST DUP1 PUSH4 0x6FDDE03 EQ PUSH2 0x147 JUMPI DUP1 PUSH4 0x95EA7B3 EQ PUSH2 0x165 JUMPI DUP1 PUSH4 0xA7E9456 EQ PUSH2 0x195 JUMPI DUP1 PUSH4 0x104956BA EQ PUSH2 0x1C5 JUMPI DUP1 PUSH4 0x18160DDD EQ PUSH2 0x1F5 JUMPI JUMPDEST PUSH1 0x0 DUP1 REVERT JUMPDEST PUSH2 0x14F PUSH2 0x42E JUMP JUMPDEST PUSH1 0x40 MLOAD PUSH2 0x15C SWAP2 SWAP1 PUSH2 0x1909 JUMP JUMPDEST PUSH1 0x40 MLOAD DUP1 SWAP2 SUB SWAP1 RETURN JUMPDEST PUSH2 0x17F PUSH1 0x4 DUP1 CALLDATASIZE SUB DUP2 ADD SWAP1 PUSH2 0x17A SWAP2 SWAP1 PUSH2 0x19D3 JUMP JUMPDEST PUSH2 0x4C0 JUMP JUMPDEST PUSH1 0x40 MLOAD PUSH2 0x18C SWAP2 SWAP1 PUSH2 0x1A2E JUMP JUMPDEST PUSH1 0x40 MLOAD DUP1 SWAP2 SUB SWAP1 RETURN JUMPDEST PUSH2 0x1AF PUSH1 0x4 DUP1 CALLDATASIZE SUB DUP2 ADD SWAP1 PUSH2 0x1AA SWAP2 SWAP1 PUSH2 0x1B7E JUMP JUMPDEST PUSH2 0x4E3 JUMP JUMPDEST PUSH1 0x40 MLOAD PUSH2 0x1BC SWAP2 SWAP1 PUSH2 0x1A2E JUMP JUMPDEST PUSH1 0x40 MLOAD DUP1 SWAP2 SUB SWAP1 RETURN JUMPDEST PUSH2 0x1DF PUSH1 0x4 DUP1 CALLDATASIZE SUB DUP2 ADD SWAP1 PUSH2 0x1DA SWAP2 SWAP1 PUSH2 0x1BDA JUMP JUMPDEST PUSH2 0x528 JUMP JUMPDEST PUSH1 0x40 MLOAD PUSH2 0x1EC SWAP2 SWAP1 PUSH2 0x1C32 JUMP JUMPDEST PUSH1 0x40 MLOAD DUP1 SWAP2 SUB SWAP1 RETURN JUMPDEST PUSH2 0x1FD PUSH2 0x627 JUMP JUMPDEST PUSH1 0x40 MLOAD PUSH2 0x20A SWAP2 SWAP1 PUSH2 0x1C32 JUMP JUMPDEST PUSH1 0x40 MLOAD DUP1 SWAP2 SUB SWAP1 RETURN JUMPDEST PUSH2 0x21B PUSH2 0x631 JUMP JUMPDEST PUSH1 0x40 MLOAD PUSH2 0x228 SWAP2 SWAP1 PUSH2 0x1C32 JUMP JUMPDEST PUSH1 0x40 MLOAD DUP1 SWAP2 SUB SWAP1 RETURN JUMPDEST PUSH2 0x239 PUSH2 0x63D JUMP JUMPDEST STOP JUMPDEST PUSH2 0x255 PUSH1 0x4 DUP1 CALLDATASIZE SUB DUP2 ADD SWAP1 PUSH2 0x250 SWAP2 SWAP1 PUSH2 0x1C4D JUMP JUMPDEST PUSH2 0x742 JUMP JUMPDEST PUSH1 0x40 MLOAD PUSH2 0x262 SWAP2 SWAP1 PUSH2 0x1A2E JUMP JUMPDEST PUSH1 0x40 MLOAD DUP1 SWAP2 SUB SWAP1 RETURN JUMPDEST PUSH2 0x273 PUSH2 0x771 JUMP JUMPDEST PUSH1 0x40 MLOAD PUSH2 0x280 SWAP2 SWAP1 PUSH2 0x1CBC JUMP JUMPDEST PUSH1 0x40 MLOAD DUP1 SWAP2 SUB SWAP1 RETURN JUMPDEST PUSH2 0x291 PUSH2 0x77A JUMP JUMPDEST PUSH1 0x40 MLOAD PUSH2 0x29E SWAP2 SWAP1 PUSH2 0x1A2E JUMP JUMPDEST PUSH1 0x40 MLOAD DUP1 SWAP2 SUB SWAP1 RETURN JUMPDEST PUSH2 0x2AF PUSH2 0x78D JUMP JUMPDEST STOP JUMPDEST PUSH2 0x2B9 PUSH2 0x892 JUMP JUMPDEST PUSH1 0x40 MLOAD PUSH2 0x2C6 SWAP2 SWAP1 PUSH2 0x1CE6 JUMP JUMPDEST PUSH1 0x40 MLOAD DUP1 SWAP2 SUB SWAP1 RETURN JUMPDEST PUSH2 0x2E9 PUSH1 0x4 DUP1 CALLDATASIZE SUB DUP2 ADD SWAP1 PUSH2 0x2E4 SWAP2 SWAP1 PUSH2 0x1D01 JUMP JUMPDEST PUSH2 0x8B8 JUMP JUMPDEST PUSH1 0x40 MLOAD PUSH2 0x2F6 SWAP2 SWAP1 PUSH2 0x1C32 JUMP JUMPDEST PUSH1 0x40 MLOAD DUP1 SWAP2 SUB SWAP1 RETURN JUMPDEST PUSH2 0x307 PUSH2 0x900 JUMP JUMPDEST PUSH1 0x40 MLOAD PUSH2 0x315 SWAP3 SWAP2 SWAP1 PUSH2 0x1EF8 JUMP JUMPDEST PUSH1 0x40 MLOAD DUP1 SWAP2 SUB SWAP1 RETURN JUMPDEST PUSH2 0x326 PUSH2 0xACD JUMP JUMPDEST PUSH1 0x40 MLOAD PUSH2 0x333 SWAP2 SWAP1 PUSH2 0x1CE6 JUMP JUMPDEST PUSH1 0x40 MLOAD DUP1 SWAP2 SUB SWAP1 RETURN JUMPDEST PUSH2 0x344 PUSH2 0xAF3 JUMP JUMPDEST PUSH1 0x40 MLOAD PUSH2 0x351 SWAP2 SWAP1 PUSH2 0x1909 JUMP JUMPDEST PUSH1 0x40 MLOAD DUP1 SWAP2 SUB SWAP1 RETURN JUMPDEST PUSH2 0x362 PUSH2 0xB85 JUMP JUMPDEST PUSH1 0x40 MLOAD PUSH2 0x36F SWAP2 SWAP1 PUSH2 0x1C32 JUMP JUMPDEST PUSH1 0x40 MLOAD DUP1 SWAP2 SUB SWAP1 RETURN JUMPDEST PUSH2 0x392 PUSH1 0x4 DUP1 CALLDATASIZE SUB DUP2 ADD SWAP1 PUSH2 0x38D SWAP2 SWAP1 PUSH2 0x1F2F JUMP JUMPDEST PUSH2 0xB8A JUMP JUMPDEST STOP JUMPDEST PUSH2 0x3AE PUSH1 0x4 DUP1 CALLDATASIZE SUB DUP2 ADD SWAP1 PUSH2 0x3A9 SWAP2 SWAP1 PUSH2 0x19D3 JUMP JUMPDEST PUSH2 0xFBF JUMP JUMPDEST PUSH1 0x40 MLOAD PUSH2 0x3BB SWAP2 SWAP1 PUSH2 0x1A2E JUMP JUMPDEST PUSH1 0x40 MLOAD DUP1 SWAP2 SUB SWAP1 RETURN JUMPDEST PUSH2 0x3DE PUSH1 0x4 DUP1 CALLDATASIZE SUB DUP2 ADD SWAP1 PUSH2 0x3D9 SWAP2 SWAP1 PUSH2 0x1F2F JUMP JUMPDEST PUSH2 0xFE2 JUMP JUMPDEST STOP JUMPDEST PUSH2 0x3FA PUSH1 0x4 DUP1 CALLDATASIZE SUB DUP2 ADD SWAP1 PUSH2 0x3F5 SWAP2 SWAP1 PUSH2 0x1F8B JUMP JUMPDEST PUSH2 0x11C5 JUMP JUMPDEST PUSH1 0x40 MLOAD PUSH2 0x407 SWAP2 SWAP1 PUSH2 0x1C32 JUMP JUMPDEST PUSH1 0x40 MLOAD DUP1 SWAP2 SUB SWAP1 RETURN JUMPDEST PUSH2 0x418 PUSH2 0x124C JUMP JUMPDEST PUSH1 0x40 MLOAD PUSH2 0x425 SWAP2 SWAP1 PUSH2 0x1C32 JUMP JUMPDEST PUSH1 0x40 MLOAD DUP1 SWAP2 SUB SWAP1 RETURN JUMPDEST PUSH1 0x60 PUSH1 0x3 DUP1 SLOAD PUSH2 0x43D SWAP1 PUSH2 0x1FFA JUMP JUMPDEST DUP1 PUSH1 0x1F ADD PUSH1 0x20 DUP1 SWAP2 DIV MUL PUSH1 0x20 ADD PUSH1 0x40 MLOAD SWAP1 DUP2 ADD PUSH1 0x40 MSTORE DUP1 SWAP3 SWAP2 SWAP1 DUP2 DUP2 MSTORE PUSH1 0x20 ADD DUP3 DUP1 SLOAD PUSH2 0x469 SWAP1 PUSH2 0x1FFA JUMP JUMPDEST DUP1 ISZERO PUSH2 0x4B6 JUMPI DUP1 PUSH1 0x1F LT PUSH2 0x48B JUMPI PUSH2 0x100 DUP1 DUP4 SLOAD DIV MUL DUP4 MSTORE SWAP2 PUSH1 0x20 ADD SWAP2 PUSH2 0x4B6 JUMP JUMPDEST DUP3 ADD SWAP2 SWAP1 PUSH1 0x0 MSTORE PUSH1 0x20 PUSH1 0x0 KECCAK256 SWAP1 JUMPDEST DUP2 SLOAD DUP2 MSTORE SWAP1 PUSH1 0x1 ADD SWAP1 PUSH1 0x20 ADD DUP1 DUP4 GT PUSH2 0x499 JUMPI DUP3 SWAP1 SUB PUSH1 0x1F AND DUP3 ADD SWAP2 JUMPDEST POP POP POP POP POP SWAP1 POP SWAP1 JUMP JUMPDEST PUSH1 0x0 DUP1 PUSH2 0x4CB PUSH2 0x1258 JUMP JUMPDEST SWAP1 POP PUSH2 0x4D8 DUP2 DUP6 DUP6 PUSH2 0x1260 JUMP JUMPDEST PUSH1 0x1 SWAP2 POP POP SWAP3 SWAP2 POP POP JUMP JUMPDEST PUSH1 0x8 PUSH1 0x20 MSTORE DUP2 PUSH1 0x0 MSTORE PUSH1 0x40 PUSH1 0x0 KECCAK256 DUP2 DUP1 MLOAD PUSH1 0x20 DUP2 ADD DUP3 ADD DUP1 MLOAD DUP5 DUP3 MSTORE PUSH1 0x20 DUP4 ADD PUSH1 0x20 DUP6 ADD KECCAK256 DUP2 DUP4 MSTORE DUP1 SWAP6 POP POP POP POP POP POP PUSH1 0x0 SWAP2 POP SWAP2 POP SWAP1 SLOAD SWAP1 PUSH2 0x100 EXP SWAP1 DIV PUSH1 0xFF AND DUP2 JUMP JUMPDEST PUSH1 0x0 PUSH1 0x7 DUP3 PUSH1 0x40 MLOAD PUSH2 0x53A SWAP2 SWAP1 PUSH2 0x2067 JUMP JUMPDEST SWAP1 DUP2 MSTORE PUSH1 0x20 ADD PUSH1 0x40 MLOAD DUP1 SWAP2 SUB SWAP1 KECCAK256 PUSH1 0x0 SWAP1 SLOAD SWAP1 PUSH2 0x100 EXP SWAP1 DIV PUSH20 0xFFFFFFFFFFFFFFFFFFFFFFFFFFFFFFFFFFFFFFFF AND PUSH1 0x0 PUSH20 0xFFFFFFFFFFFFFFFFFFFFFFFFFFFFFFFFFFFFFFFF AND DUP2 PUSH20 0xFFFFFFFFFFFFFFFFFFFFFFFFFFFFFFFFFFFFFFFF AND SUB PUSH2 0x5D8 JUMPI PUSH1 0x40 MLOAD PUSH32 0x8C379A000000000000000000000000000000000000000000000000000000000 DUP2 MSTORE PUSH1 0x4 ADD PUSH2 0x5CF SWAP1 PUSH2 0x20CA JUMP JUMPDEST PUSH1 0x40 MLOAD DUP1 SWAP2 SUB SWAP1 REVERT JUMPDEST PUSH2 0x61F PUSH1 0x7 DUP5 PUSH1 0x40 MLOAD PUSH2 0x5EB SWAP2 SWAP1 PUSH2 0x2067 JUMP JUMPDEST SWAP1 DUP2 MSTORE PUSH1 0x20 ADD PUSH1 0x40 MLOAD DUP1 SWAP2 SUB SWAP1 KECCAK256 PUSH1 0x0 SWAP1 SLOAD SWAP1 PUSH2 0x100 EXP SWAP1 DIV PUSH20 0xFFFFFFFFFFFFFFFFFFFFFFFFFFFFFFFFFFFFFFFF AND PUSH2 0x8B8 JUMP JUMPDEST SWAP2 POP POP SWAP2 SWAP1 POP JUMP JUMPDEST PUSH1 0x0 PUSH1 0x2 SLOAD SWAP1 POP SWAP1 JUMP JUMPDEST PUSH8 0x2C68AF0BB140000 DUP2 JUMP JUMPDEST PUSH1 0x5 PUSH1 0x0 SWAP1 SLOAD SWAP1 PUSH2 0x100 EXP SWAP1 DIV PUSH20 0xFFFFFFFFFFFFFFFFFFFFFFFFFFFFFFFFFFFFFFFF AND PUSH20 0xFFFFFFFFFFFFFFFFFFFFFFFFFFFFFFFFFFFFFFFF AND CALLER PUSH20 0xFFFFFFFFFFFFFFFFFFFFFFFFFFFFFFFFFFFFFFFF AND EQ DUP1 PUSH2 0x6E6 JUMPI POP PUSH1 0x6 PUSH1 0x0 SWAP1 SLOAD SWAP1 PUSH2 0x100 EXP SWAP1 DIV PUSH20 0xFFFFFFFFFFFFFFFFFFFFFFFFFFFFFFFFFFFFFFFF AND PUSH20 0xFFFFFFFFFFFFFFFFFFFFFFFFFFFFFFFFFFFFFFFF AND CALLER PUSH20 0xFFFFFFFFFFFFFFFFFFFFFFFFFFFFFFFFFFFFFFFF AND EQ JUMPDEST PUSH2 0x725 JUMPI PUSH1 0x40 MLOAD PUSH32 0x8C379A000000000000000000000000000000000000000000000000000000000 DUP2 MSTORE PUSH1 0x4 ADD PUSH2 0x71C SWAP1 PUSH2 0x215C JUMP JUMPDEST PUSH1 0x40 MLOAD DUP1 SWAP2 SUB SWAP1 REVERT JUMPDEST PUSH1 0x1 PUSH1 0x6 PUSH1 0x14 PUSH2 0x100 EXP DUP2 SLOAD DUP2 PUSH1 0xFF MUL NOT AND SWAP1 DUP4 ISZERO ISZERO MUL OR SWAP1 SSTORE POP JUMP JUMPDEST PUSH1 0x0 DUP1 PUSH2 0x74D PUSH2 0x1258 JUMP JUMPDEST SWAP1 POP PUSH2 0x75A DUP6 DUP3 DUP6 PUSH2 0x1272 JUMP JUMPDEST PUSH2 0x765 DUP6 DUP6 DUP6 PUSH2 0x1307 JUMP JUMPDEST PUSH1 0x1 SWAP2 POP POP SWAP4 SWAP3 POP POP POP JUMP JUMPDEST PUSH1 0x0 PUSH1 0x12 SWAP1 POP SWAP1 JUMP JUMPDEST PUSH1 0x6 PUSH1 0x14 SWAP1 SLOAD SWAP1 PUSH2 0x100 EXP SWAP1 DIV PUSH1 0xFF AND DUP2 JUMP JUMPDEST PUSH1 0x5 PUSH1 0x0 SWAP1 SLOAD SWAP1 PUSH2 0x100 EXP SWAP1 DIV PUSH20 0xFFFFFFFFFFFFFFFFFFFFFFFFFFFFFFFFFFFFFFFF AND PUSH20 0xFFFFFFFFFFFFFFFFFFFFFFFFFFFFFFFFFFFFFFFF AND CALLER PUSH20 0xFFFFFFFFFFFFFFFFFFFFFFFFFFFFFFFFFFFFFFFF AND EQ DUP1 PUSH2 0x836 JUMPI POP PUSH1 0x6 PUSH1 0x0 SWAP1 SLOAD SWAP1 PUSH2 0x100 EXP SWAP1 DIV PUSH20 0xFFFFFFFFFFFFFFFFFFFFFFFFFFFFFFFFFFFFFFFF AND PUSH20 0xFFFFFFFFFFFFFFFFFFFFFFFFFFFFFFFFFFFFFFFF AND CALLER PUSH20 0xFFFFFFFFFFFFFFFFFFFFFFFFFFFFFFFFFFFFFFFF AND EQ JUMPDEST PUSH2 0x875 JUMPI PUSH1 0x40 MLOAD PUSH32 0x8C379A000000000000000000000000000000000000000000000000000000000 DUP2 MSTORE PUSH1 0x4 ADD PUSH2 0x86C SWAP1 PUSH2 0x215C JUMP JUMPDEST PUSH1 0x40 MLOAD DUP1 SWAP2 SUB SWAP1 REVERT JUMPDEST PUSH1 0x0 PUSH1 0x6 PUSH1 0x14 PUSH2 0x100 EXP DUP2 SLOAD DUP2 PUSH1 0xFF MUL NOT AND SWAP1 DUP4 ISZERO ISZERO MUL OR SWAP1 SSTORE POP JUMP JUMPDEST PUSH1 0x6 PUSH1 0x0 SWAP1 SLOAD SWAP1 PUSH2 0x100 EXP SWAP1 DIV PUSH20 0xFFFFFFFFFFFFFFFFFFFFFFFFFFFFFFFFFFFFFFFF AND DUP2 JUMP JUMPDEST PUSH1 0x0 DUP1 PUSH1 0x0 DUP4 PUSH20 0xFFFFFFFFFFFFFFFFFFFFFFFFFFFFFFFFFFFFFFFF AND PUSH20 0xFFFFFFFFFFFFFFFFFFFFFFFFFFFFFFFFFFFFFFFF AND DUP2 MSTORE PUSH1 0x20 ADD SWAP1 DUP2 MSTORE PUSH1 0x20 ADD PUSH1 0x0 KECCAK256 SLOAD SWAP1 POP SWAP2 SWAP1 POP JUMP JUMPDEST PUSH1 0x60 DUP1 PUSH1 0x0 PUSH1 0xB PUSH8 0xFFFFFFFFFFFFFFFF DUP2 GT ISZERO PUSH2 0x920 JUMPI PUSH2 0x91F PUSH2 0x1A53 JUMP JUMPDEST JUMPDEST PUSH1 0x40 MLOAD SWAP1 DUP1 DUP3 MSTORE DUP1 PUSH1 0x20 MUL PUSH1 0x20 ADD DUP3 ADD PUSH1 0x40 MSTORE DUP1 ISZERO PUSH2 0x94E JUMPI DUP2 PUSH1 0x20 ADD PUSH1 0x20 DUP3 MUL DUP1 CALLDATASIZE DUP4 CALLDATACOPY DUP1 DUP3 ADD SWAP2 POP POP SWAP1 POP JUMPDEST POP SWAP1 POP PUSH1 0x0 JUMPDEST PUSH1 0xB DUP2 LT ISZERO PUSH2 0x9ED JUMPI PUSH2 0x9C1 PUSH1 0x7 PUSH1 0x9 DUP4 DUP2 SLOAD DUP2 LT PUSH2 0x976 JUMPI PUSH2 0x975 PUSH2 0x217C JUMP JUMPDEST JUMPDEST SWAP1 PUSH1 0x0 MSTORE PUSH1 0x20 PUSH1 0x0 KECCAK256 ADD PUSH1 0x40 MLOAD PUSH2 0x98D SWAP2 SWAP1 PUSH2 0x2243 JUMP JUMPDEST SWAP1 DUP2 MSTORE PUSH1 0x20 ADD PUSH1 0x40 MLOAD DUP1 SWAP2 SUB SWAP1 KECCAK256 PUSH1 0x0 SWAP1 SLOAD SWAP1 PUSH2 0x100 EXP SWAP1 DIV PUSH20 0xFFFFFFFFFFFFFFFFFFFFFFFFFFFFFFFFFFFFFFFF AND PUSH2 0x8B8 JUMP JUMPDEST DUP3 DUP3 DUP2 MLOAD DUP2 LT PUSH2 0x9D4 JUMPI PUSH2 0x9D3 PUSH2 0x217C JUMP JUMPDEST JUMPDEST PUSH1 0x20 MUL PUSH1 0x20 ADD ADD DUP2 DUP2 MSTORE POP POP DUP1 DUP1 PUSH1 0x1 ADD SWAP2 POP POP PUSH2 0x954 JUMP JUMPDEST POP PUSH1 0x9 DUP2 DUP2 DUP1 SLOAD DUP1 PUSH1 0x20 MUL PUSH1 0x20 ADD PUSH1 0x40 MLOAD SWAP1 DUP2 ADD PUSH1 0x40 MSTORE DUP1 SWAP3 SWAP2 SWAP1 DUP2 DUP2 MSTORE PUSH1 0x20 ADD PUSH1 0x0 SWAP1 JUMPDEST DUP3 DUP3 LT ISZERO PUSH2 0xABE JUMPI DUP4 DUP3 SWAP1 PUSH1 0x0 MSTORE PUSH1 0x20 PUSH1 0x0 KECCAK256 ADD DUP1 SLOAD PUSH2 0xA31 SWAP1 PUSH2 0x1FFA JUMP JUMPDEST DUP1 PUSH1 0x1F ADD PUSH1 0x20 DUP1 SWAP2 DIV MUL PUSH1 0x20 ADD PUSH1 0x40 MLOAD SWAP1 DUP2 ADD PUSH1 0x40 MSTORE DUP1 SWAP3 SWAP2 SWAP1 DUP2 DUP2 MSTORE PUSH1 0x20 ADD DUP3 DUP1 SLOAD PUSH2 0xA5D SWAP1 PUSH2 0x1FFA JUMP JUMPDEST DUP1 ISZERO PUSH2 0xAAA JUMPI DUP1 PUSH1 0x1F LT PUSH2 0xA7F JUMPI PUSH2 0x100 DUP1 DUP4 SLOAD DIV MUL DUP4 MSTORE SWAP2 PUSH1 0x20 ADD SWAP2 PUSH2 0xAAA JUMP JUMPDEST DUP3 ADD SWAP2 SWAP1 PUSH1 0x0 MSTORE PUSH1 0x20 PUSH1 0x0 KECCAK256 SWAP1 JUMPDEST DUP2 SLOAD DUP2 MSTORE SWAP1 PUSH1 0x1 ADD SWAP1 PUSH1 0x20 ADD DUP1 DUP4 GT PUSH2 0xA8D JUMPI DUP3 SWAP1 SUB PUSH1 0x1F AND DUP3 ADD SWAP2 JUMPDEST POP POP POP POP POP DUP2 MSTORE PUSH1 0x20 ADD SWAP1 PUSH1 0x1 ADD SWAP1 PUSH2 0xA12 JUMP JUMPDEST POP POP POP POP SWAP2 POP SWAP3 POP SWAP3 POP POP SWAP1 SWAP2 JUMP JUMPDEST PUSH1 0x5 PUSH1 0x0 SWAP1 SLOAD SWAP1 PUSH2 0x100 EXP SWAP1 DIV PUSH20 0xFFFFFFFFFFFFFFFFFFFFFFFFFFFFFFFFFFFFFFFF AND DUP2 JUMP JUMPDEST PUSH1 0x60 PUSH1 0x4 DUP1 SLOAD PUSH2 0xB02 SWAP1 PUSH2 0x1FFA JUMP JUMPDEST DUP1 PUSH1 0x1F ADD PUSH1 0x20 DUP1 SWAP2 DIV MUL PUSH1 0x20 ADD PUSH1 0x40 MLOAD SWAP1 DUP2 ADD PUSH1 0x40 MSTORE DUP1 SWAP3 SWAP2 SWAP1 DUP2 DUP2 MSTORE PUSH1 0x20 ADD DUP3 DUP1 SLOAD PUSH2 0xB2E SWAP1 PUSH2 0x1FFA JUMP JUMPDEST DUP1 ISZERO PUSH2 0xB7B JUMPI DUP1 PUSH1 0x1F LT PUSH2 0xB50 JUMPI PUSH2 0x100 DUP1 DUP4 SLOAD DIV MUL DUP4 MSTORE SWAP2 PUSH1 0x20 ADD SWAP2 PUSH2 0xB7B JUMP JUMPDEST DUP3 ADD SWAP2 SWAP1 PUSH1 0x0 MSTORE PUSH1 0x20 PUSH1 0x0 KECCAK256 SWAP1 JUMPDEST DUP2 SLOAD DUP2 MSTORE SWAP1 PUSH1 0x1 ADD SWAP1 PUSH1 0x20 ADD DUP1 DUP4 GT PUSH2 0xB5E JUMPI DUP3 SWAP1 SUB PUSH1 0x1F AND DUP3 ADD SWAP2 JUMPDEST POP POP POP POP POP SWAP1 POP SWAP1 JUMP JUMPDEST PUSH1 0xB DUP2 JUMP JUMPDEST PUSH1 0x0 PUSH20 0xFFFFFFFFFFFFFFFFFFFFFFFFFFFFFFFFFFFFFFFF AND CALLER PUSH20 0xFFFFFFFFFFFFFFFFFFFFFFFFFFFFFFFFFFFFFFFF AND SUB PUSH2 0xBF9 JUMPI PUSH1 0x40 MLOAD PUSH32 0x8C379A000000000000000000000000000000000000000000000000000000000 DUP2 MSTORE PUSH1 0x4 ADD PUSH2 0xBF0 SWAP1 PUSH2 0x22A6 JUMP JUMPDEST PUSH1 0x40 MLOAD DUP1 SWAP2 SUB SWAP1 REVERT JUMPDEST PUSH1 0x7 DUP3 PUSH1 0x40 MLOAD PUSH2 0xC09 SWAP2 SWAP1 PUSH2 0x2067 JUMP JUMPDEST SWAP1 DUP2 MSTORE PUSH1 0x20 ADD PUSH1 0x40 MLOAD DUP1 SWAP2 SUB SWAP1 KECCAK256 PUSH1 0x0 SWAP1 SLOAD SWAP1 PUSH2 0x100 EXP SWAP1 DIV PUSH20 0xFFFFFFFFFFFFFFFFFFFFFFFFFFFFFFFFFFFFFFFF AND PUSH1 0x0 PUSH20 0xFFFFFFFFFFFFFFFFFFFFFFFFFFFFFFFFFFFFFFFF AND DUP2 PUSH20 0xFFFFFFFFFFFFFFFFFFFFFFFFFFFFFFFFFFFFFFFF AND SUB PUSH2 0xCA7 JUMPI PUSH1 0x40 MLOAD PUSH32 0x8C379A000000000000000000000000000000000000000000000000000000000 DUP2 MSTORE PUSH1 0x4 ADD PUSH2 0xC9E SWAP1 PUSH2 0x20CA JUMP JUMPDEST PUSH1 0x40 MLOAD DUP1 SWAP2 SUB SWAP1 REVERT JUMPDEST DUP3 PUSH1 0x7 DUP2 PUSH1 0x40 MLOAD PUSH2 0xCB8 SWAP2 SWAP1 PUSH2 0x2067 JUMP JUMPDEST SWAP1 DUP2 MSTORE PUSH1 0x20 ADD PUSH1 0x40 MLOAD DUP1 SWAP2 SUB SWAP1 KECCAK256 PUSH1 0x0 SWAP1 SLOAD SWAP1 PUSH2 0x100 EXP SWAP1 DIV PUSH20 0xFFFFFFFFFFFFFFFFFFFFFFFFFFFFFFFFFFFFFFFF AND PUSH20 0xFFFFFFFFFFFFFFFFFFFFFFFFFFFFFFFFFFFFFFFF AND CALLER PUSH20 0xFFFFFFFFFFFFFFFFFFFFFFFFFFFFFFFFFFFFFFFF AND SUB PUSH2 0xD54 JUMPI PUSH1 0x40 MLOAD PUSH32 0x8C379A000000000000000000000000000000000000000000000000000000000 DUP2 MSTORE PUSH1 0x4 ADD PUSH2 0xD4B SWAP1 PUSH2 0x2312 JUMP JUMPDEST PUSH1 0x40 MLOAD DUP1 SWAP2 SUB SWAP1 REVERT JUMPDEST PUSH1 0x6 PUSH1 0x14 SWAP1 SLOAD SWAP1 PUSH2 0x100 EXP SWAP1 DIV PUSH1 0xFF AND PUSH2 0xDA3 JUMPI PUSH1 0x40 MLOAD PUSH32 0x8C379A000000000000000000000000000000000000000000000000000000000 DUP2 MSTORE PUSH1 0x4 ADD PUSH2 0xD9A SWAP1 PUSH2 0x237E JUMP JUMPDEST PUSH1 0x40 MLOAD DUP1 SWAP2 SUB SWAP1 REVERT JUMPDEST DUP4 PUSH1 0x8 PUSH1 0x0 CALLER PUSH20 0xFFFFFFFFFFFFFFFFFFFFFFFFFFFFFFFFFFFFFFFF AND PUSH20 0xFFFFFFFFFFFFFFFFFFFFFFFFFFFFFFFFFFFFFFFF AND DUP2 MSTORE PUSH1 0x20 ADD SWAP1 DUP2 MSTORE PUSH1 0x20 ADD PUSH1 0x0 KECCAK256 DUP2 PUSH1 0x40 MLOAD PUSH2 0xDF1 SWAP2 SWAP1 PUSH2 0x2067 JUMP JUMPDEST SWAP1 DUP2 MSTORE PUSH1 0x20 ADD PUSH1 0x40 MLOAD DUP1 SWAP2 SUB SWAP1 KECCAK256 PUSH1 0x0 SWAP1 SLOAD SWAP1 PUSH2 0x100 EXP SWAP1 DIV PUSH1 0xFF AND ISZERO PUSH2 0xE4D JUMPI PUSH1 0x40 MLOAD PUSH32 0x8C379A000000000000000000000000000000000000000000000000000000000 DUP2 MSTORE PUSH1 0x4 ADD PUSH2 0xE44 SWAP1 PUSH2 0x23EA JUMP JUMPDEST PUSH1 0x40 MLOAD DUP1 SWAP2 SUB SWAP1 REVERT JUMPDEST DUP4 PUSH8 0x1BC16D674EC80000 DUP2 GT ISZERO PUSH2 0xE99 JUMPI PUSH1 0x40 MLOAD PUSH32 0x8C379A000000000000000000000000000000000000000000000000000000000 DUP2 MSTORE PUSH1 0x4 ADD PUSH2 0xE90 SWAP1 PUSH2 0x247C JUMP JUMPDEST PUSH1 0x40 MLOAD DUP1 SWAP2 SUB SWAP1 REVERT JUMPDEST PUSH2 0xEE1 PUSH1 0x7 DUP8 PUSH1 0x40 MLOAD PUSH2 0xEAC SWAP2 SWAP1 PUSH2 0x2067 JUMP JUMPDEST SWAP1 DUP2 MSTORE PUSH1 0x20 ADD PUSH1 0x40 MLOAD DUP1 SWAP2 SUB SWAP1 KECCAK256 PUSH1 0x0 SWAP1 SLOAD SWAP1 PUSH2 0x100 EXP SWAP1 DIV PUSH20 0xFFFFFFFFFFFFFFFFFFFFFFFFFFFFFFFFFFFFFFFF AND DUP7 PUSH2 0x13FB JUMP JUMPDEST PUSH2 0xEF3 CALLER PUSH8 0x2C68AF0BB140000 PUSH2 0x13FB JUMP JUMPDEST PUSH1 0x1 PUSH1 0x8 PUSH1 0x0 CALLER PUSH20 0xFFFFFFFFFFFFFFFFFFFFFFFFFFFFFFFFFFFFFFFF AND PUSH20 0xFFFFFFFFFFFFFFFFFFFFFFFFFFFFFFFFFFFFFFFF AND DUP2 MSTORE PUSH1 0x20 ADD SWAP1 DUP2 MSTORE PUSH1 0x20 ADD PUSH1 0x0 KECCAK256 DUP8 PUSH1 0x40 MLOAD PUSH2 0xF42 SWAP2 SWAP1 PUSH2 0x2067 JUMP JUMPDEST SWAP1 DUP2 MSTORE PUSH1 0x20 ADD PUSH1 0x40 MLOAD DUP1 SWAP2 SUB SWAP1 KECCAK256 PUSH1 0x0 PUSH2 0x100 EXP DUP2 SLOAD DUP2 PUSH1 0xFF MUL NOT AND SWAP1 DUP4 ISZERO ISZERO MUL OR SWAP1 SSTORE POP CALLER PUSH20 0xFFFFFFFFFFFFFFFFFFFFFFFFFFFFFFFFFFFFFFFF AND PUSH32 0x35B4034B2BBE10BB07B21969C986794A6276A531BB155886A9F883BB5C9DC8E8 DUP8 DUP8 PUSH1 0x40 MLOAD PUSH2 0xFAF SWAP3 SWAP2 SWAP1 PUSH2 0x249C JUMP JUMPDEST PUSH1 0x40 MLOAD DUP1 SWAP2 SUB SWAP1 LOG2 POP POP POP POP POP POP JUMP JUMPDEST PUSH1 0x0 DUP1 PUSH2 0xFCA PUSH2 0x1258 JUMP JUMPDEST SWAP1 POP PUSH2 0xFD7 DUP2 DUP6 DUP6 PUSH2 0x1307 JUMP JUMPDEST PUSH1 0x1 SWAP2 POP POP SWAP3 SWAP2 POP POP JUMP JUMPDEST PUSH1 0x5 PUSH1 0x0 SWAP1 SLOAD SWAP1 PUSH2 0x100 EXP SWAP1 DIV PUSH20 0xFFFFFFFFFFFFFFFFFFFFFFFFFFFFFFFFFFFFFFFF AND PUSH20 0xFFFFFFFFFFFFFFFFFFFFFFFFFFFFFFFFFFFFFFFF AND CALLER PUSH20 0xFFFFFFFFFFFFFFFFFFFFFFFFFFFFFFFFFFFFFFFF AND EQ DUP1 PUSH2 0x108B JUMPI POP PUSH1 0x6 PUSH1 0x0 SWAP1 SLOAD SWAP1 PUSH2 0x100 EXP SWAP1 DIV PUSH20 0xFFFFFFFFFFFFFFFFFFFFFFFFFFFFFFFFFFFFFFFF AND PUSH20 0xFFFFFFFFFFFFFFFFFFFFFFFFFFFFFFFFFFFFFFFF AND CALLER PUSH20 0xFFFFFFFFFFFFFFFFFFFFFFFFFFFFFFFFFFFFFFFF AND EQ JUMPDEST PUSH2 0x10CA JUMPI PUSH1 0x40 MLOAD PUSH32 0x8C379A000000000000000000000000000000000000000000000000000000000 DUP2 MSTORE PUSH1 0x4 ADD PUSH2 0x10C1 SWAP1 PUSH2 0x215C JUMP JUMPDEST PUSH1 0x40 MLOAD DUP1 SWAP2 SUB SWAP1 REVERT JUMPDEST PUSH1 0x7 DUP3 PUSH1 0x40 MLOAD PUSH2 0x10DA SWAP2 SWAP1 PUSH2 0x2067 JUMP JUMPDEST SWAP1 DUP2 MSTORE PUSH1 0x20 ADD PUSH1 0x40 MLOAD DUP1 SWAP2 SUB SWAP1 KECCAK256 PUSH1 0x0 SWAP1 SLOAD SWAP1 PUSH2 0x100 EXP SWAP1 DIV PUSH20 0xFFFFFFFFFFFFFFFFFFFFFFFFFFFFFFFFFFFFFFFF AND PUSH1 0x0 PUSH20 0xFFFFFFFFFFFFFFFFFFFFFFFFFFFFFFFFFFFFFFFF AND DUP2 PUSH20 0xFFFFFFFFFFFFFFFFFFFFFFFFFFFFFFFFFFFFFFFF AND SUB PUSH2 0x1178 JUMPI PUSH1 0x40 MLOAD PUSH32 0x8C379A000000000000000000000000000000000000000000000000000000000 DUP2 MSTORE PUSH1 0x4 ADD PUSH2 0x116F SWAP1 PUSH2 0x20CA JUMP JUMPDEST PUSH1 0x40 MLOAD DUP1 SWAP2 SUB SWAP1 REVERT JUMPDEST PUSH2 0x11C0 PUSH1 0x7 DUP5 PUSH1 0x40 MLOAD PUSH2 0x118B SWAP2 SWAP1 PUSH2 0x2067 JUMP JUMPDEST SWAP1 DUP2 MSTORE PUSH1 0x20 ADD PUSH1 0x40 MLOAD DUP1 SWAP2 SUB SWAP1 KECCAK256 PUSH1 0x0 SWAP1 SLOAD SWAP1 PUSH2 0x100 EXP SWAP1 DIV PUSH20 0xFFFFFFFFFFFFFFFFFFFFFFFFFFFFFFFFFFFFFFFF AND DUP4 PUSH2 0x13FB JUMP JUMPDEST POP POP POP JUMP JUMPDEST PUSH1 0x0 PUSH1 0x1 PUSH1 0x0 DUP5 PUSH20 0xFFFFFFFFFFFFFFFFFFFFFFFFFFFFFFFFFFFFFFFF AND PUSH20 0xFFFFFFFFFFFFFFFFFFFFFFFFFFFFFFFFFFFFFFFF AND DUP2 MSTORE PUSH1 0x20 ADD SWAP1 DUP2 MSTORE PUSH1 0x20 ADD PUSH1 0x0 KECCAK256 PUSH1 0x0 DUP4 PUSH20 0xFFFFFFFFFFFFFFFFFFFFFFFFFFFFFFFFFFFFFFFF AND PUSH20 0xFFFFFFFFFFFFFFFFFFFFFFFFFFFFFFFFFFFFFFFF AND DUP2 MSTORE PUSH1 0x20 ADD SWAP1 DUP2 MSTORE PUSH1 0x20 ADD PUSH1 0x0 KECCAK256 SLOAD SWAP1 POP SWAP3 SWAP2 POP POP JUMP JUMPDEST PUSH8 0x1BC16D674EC80000 DUP2 JUMP JUMPDEST PUSH1 0x0 CALLER SWAP1 POP SWAP1 JUMP JUMPDEST PUSH2 0x126D DUP4 DUP4 DUP4 PUSH1 0x1 PUSH2 0x147D JUMP JUMPDEST POP POP POP JUMP JUMPDEST PUSH1 0x0 PUSH2 0x127E DUP5 DUP5 PUSH2 0x11C5 JUMP JUMPDEST SWAP1 POP PUSH32 0xFFFFFFFFFFFFFFFFFFFFFFFFFFFFFFFFFFFFFFFFFFFFFFFFFFFFFFFFFFFFFFFF DUP2 LT ISZERO PUSH2 0x1301 JUMPI DUP2 DUP2 LT ISZERO PUSH2 0x12F1 JUMPI DUP3 DUP2 DUP4 PUSH1 0x40 MLOAD PUSH32 0xFB8F41B200000000000000000000000000000000000000000000000000000000 DUP2 MSTORE PUSH1 0x4 ADD PUSH2 0x12E8 SWAP4 SWAP3 SWAP2 SWAP1 PUSH2 0x24CC JUMP JUMPDEST PUSH1 0x40 MLOAD DUP1 SWAP2 SUB SWAP1 REVERT JUMPDEST PUSH2 0x1300 DUP5 DUP5 DUP5 DUP5 SUB PUSH1 0x0 PUSH2 0x147D JUMP JUMPDEST JUMPDEST POP POP POP POP JUMP JUMPDEST PUSH1 0x0 PUSH20 0xFFFFFFFFFFFFFFFFFFFFFFFFFFFFFFFFFFFFFFFF AND DUP4 PUSH20 0xFFFFFFFFFFFFFFFFFFFFFFFFFFFFFFFFFFFFFFFF AND SUB PUSH2 0x1379 JUMPI PUSH1 0x0 PUSH1 0x40 MLOAD PUSH32 0x96C6FD1E00000000000000000000000000000000000000000000000000000000 DUP2 MSTORE PUSH1 0x4 ADD PUSH2 0x1370 SWAP2 SWAP1 PUSH2 0x1CE6 JUMP JUMPDEST PUSH1 0x40 MLOAD DUP1 SWAP2 SUB SWAP1 REVERT JUMPDEST PUSH1 0x0 PUSH20 0xFFFFFFFFFFFFFFFFFFFFFFFFFFFFFFFFFFFFFFFF AND DUP3 PUSH20 0xFFFFFFFFFFFFFFFFFFFFFFFFFFFFFFFFFFFFFFFF AND SUB PUSH2 0x13EB JUMPI PUSH1 0x0 PUSH1 0x40 MLOAD PUSH32 0xEC442F0500000000000000000000000000000000000000000000000000000000 DUP2 MSTORE PUSH1 0x4 ADD PUSH2 0x13E2 SWAP2 SWAP1 PUSH2 0x1CE6 JUMP JUMPDEST PUSH1 0x40 MLOAD DUP1 SWAP2 SUB SWAP1 REVERT JUMPDEST PUSH2 0x13F6 DUP4 DUP4 DUP4 PUSH2 0x1654 JUMP JUMPDEST POP POP POP JUMP JUMPDEST PUSH1 0x0 PUSH20 0xFFFFFFFFFFFFFFFFFFFFFFFFFFFFFFFFFFFFFFFF AND DUP3 PUSH20 0xFFFFFFFFFFFFFFFFFFFFFFFFFFFFFFFFFFFFFFFF AND SUB PUSH2 0x146D JUMPI PUSH1 0x0 PUSH1 0x40 MLOAD PUSH32 0xEC442F0500000000000000000000000000000000000000000000000000000000 DUP2 MSTORE PUSH1 0x4 ADD PUSH2 0x1464 SWAP2 SWAP1 PUSH2 0x1CE6 JUMP JUMPDEST PUSH1 0x40 MLOAD DUP1 SWAP2 SUB SWAP1 REVERT JUMPDEST PUSH2 0x1479 PUSH1 0x0 DUP4 DUP4 PUSH2 0x1654 JUMP JUMPDEST POP POP JUMP JUMPDEST PUSH1 0x0 PUSH20 0xFFFFFFFFFFFFFFFFFFFFFFFFFFFFFFFFFFFFFFFF AND DUP5 PUSH20 0xFFFFFFFFFFFFFFFFFFFFFFFFFFFFFFFFFFFFFFFF AND SUB PUSH2 0x14EF JUMPI PUSH1 0x0 PUSH1 0x40 MLOAD PUSH32 0xE602DF0500000000000000000000000000000000000000000000000000000000 DUP2 MSTORE PUSH1 0x4 ADD PUSH2 0x14E6 SWAP2 SWAP1 PUSH2 0x1CE6 JUMP JUMPDEST PUSH1 0x40 MLOAD DUP1 SWAP2 SUB SWAP1 REVERT JUMPDEST PUSH1 0x0 PUSH20 0xFFFFFFFFFFFFFFFFFFFFFFFFFFFFFFFFFFFFFFFF AND DUP4 PUSH20 0xFFFFFFFFFFFFFFFFFFFFFFFFFFFFFFFFFFFFFFFF AND SUB PUSH2 0x1561 JUMPI PUSH1 0x0 PUSH1 0x40 MLOAD PUSH32 0x94280D6200000000000000000000000000000000000000000000000000000000 DUP2 MSTORE PUSH1 0x4 ADD PUSH2 0x1558 SWAP2 SWAP1 PUSH2 0x1CE6 JUMP JUMPDEST PUSH1 0x40 MLOAD DUP1 SWAP2 SUB SWAP1 REVERT JUMPDEST DUP2 PUSH1 0x1 PUSH1 0x0 DUP7 PUSH20 0xFFFFFFFFFFFFFFFFFFFFFFFFFFFFFFFFFFFFFFFF AND PUSH20 0xFFFFFFFFFFFFFFFFFFFFFFFFFFFFFFFFFFFFFFFF AND DUP2 MSTORE PUSH1 0x20 ADD SWAP1 DUP2 MSTORE PUSH1 0x20 ADD PUSH1 0x0 KECCAK256 PUSH1 0x0 DUP6 PUSH20 0xFFFFFFFFFFFFFFFFFFFFFFFFFFFFFFFFFFFFFFFF AND PUSH20 0xFFFFFFFFFFFFFFFFFFFFFFFFFFFFFFFFFFFFFFFF AND DUP2 MSTORE PUSH1 0x20 ADD SWAP1 DUP2 MSTORE PUSH1 0x20 ADD PUSH1 0x0 KECCAK256 DUP2 SWAP1 SSTORE POP DUP1 ISZERO PUSH2 0x164E JUMPI DUP3 PUSH20 0xFFFFFFFFFFFFFFFFFFFFFFFFFFFFFFFFFFFFFFFF AND DUP5 PUSH20 0xFFFFFFFFFFFFFFFFFFFFFFFFFFFFFFFFFFFFFFFF AND PUSH32 0x8C5BE1E5EBEC7D5BD14F71427D1E84F3DD0314C0F7B2291E5B200AC8C7C3B925 DUP5 PUSH1 0x40 MLOAD PUSH2 0x1645 SWAP2 SWAP1 PUSH2 0x1C32 JUMP JUMPDEST PUSH1 0x40 MLOAD DUP1 SWAP2 SUB SWAP1 LOG3 JUMPDEST POP POP POP POP JUMP JUMPDEST PUSH1 0x0 PUSH20 0xFFFFFFFFFFFFFFFFFFFFFFFFFFFFFFFFFFFFFFFF AND DUP4 PUSH20 0xFFFFFFFFFFFFFFFFFFFFFFFFFFFFFFFFFFFFFFFF AND SUB PUSH2 0x16A6 JUMPI DUP1 PUSH1 0x2 PUSH1 0x0 DUP3 DUP3 SLOAD PUSH2 0x169A SWAP2 SWAP1 PUSH2 0x2532 JUMP JUMPDEST SWAP3 POP POP DUP2 SWAP1 SSTORE POP PUSH2 0x1779 JUMP JUMPDEST PUSH1 0x0 DUP1 PUSH1 0x0 DUP6 PUSH20 0xFFFFFFFFFFFFFFFFFFFFFFFFFFFFFFFFFFFFFFFF AND PUSH20 0xFFFFFFFFFFFFFFFFFFFFFFFFFFFFFFFFFFFFFFFF AND DUP2 MSTORE PUSH1 0x20 ADD SWAP1 DUP2 MSTORE PUSH1 0x20 ADD PUSH1 0x0 KECCAK256 SLOAD SWAP1 POP DUP2 DUP2 LT ISZERO PUSH2 0x1732 JUMPI DUP4 DUP2 DUP4 PUSH1 0x40 MLOAD PUSH32 0xE450D38C00000000000000000000000000000000000000000000000000000000 DUP2 MSTORE PUSH1 0x4 ADD PUSH2 0x1729 SWAP4 SWAP3 SWAP2 SWAP1 PUSH2 0x24CC JUMP JUMPDEST PUSH1 0x40 MLOAD DUP1 SWAP2 SUB SWAP1 REVERT JUMPDEST DUP2 DUP2 SUB PUSH1 0x0 DUP1 DUP7 PUSH20 0xFFFFFFFFFFFFFFFFFFFFFFFFFFFFFFFFFFFFFFFF AND PUSH20 0xFFFFFFFFFFFFFFFFFFFFFFFFFFFFFFFFFFFFFFFF AND DUP2 MSTORE PUSH1 0x20 ADD SWAP1 DUP2 MSTORE PUSH1 0x20 ADD PUSH1 0x0 KECCAK256 DUP2 SWAP1 SSTORE POP POP JUMPDEST PUSH1 0x0 PUSH20 0xFFFFFFFFFFFFFFFFFFFFFFFFFFFFFFFFFFFFFFFF AND DUP3 PUSH20 0xFFFFFFFFFFFFFFFFFFFFFFFFFFFFFFFFFFFFFFFF AND SUB PUSH2 0x17C2 JUMPI DUP1 PUSH1 0x2 PUSH1 0x0 DUP3 DUP3 SLOAD SUB SWAP3 POP POP DUP2 SWAP1 SSTORE POP PUSH2 0x180F JUMP JUMPDEST DUP1 PUSH1 0x0 DUP1 DUP5 PUSH20 0xFFFFFFFFFFFFFFFFFFFFFFFFFFFFFFFFFFFFFFFF AND PUSH20 0xFFFFFFFFFFFFFFFFFFFFFFFFFFFFFFFFFFFFFFFF AND DUP2 MSTORE PUSH1 0x20 ADD SWAP1 DUP2 MSTORE PUSH1 0x20 ADD PUSH1 0x0 KECCAK256 PUSH1 0x0 DUP3 DUP3 SLOAD ADD SWAP3 POP POP DUP2 SWAP1 SSTORE POP JUMPDEST DUP2 PUSH20 0xFFFFFFFFFFFFFFFFFFFFFFFFFFFFFFFFFFFFFFFF AND DUP4 PUSH20 0xFFFFFFFFFFFFFFFFFFFFFFFFFFFFFFFFFFFFFFFF AND PUSH32 0xDDF252AD1BE2C89B69C2B068FC378DAA952BA7F163C4A11628F55A4DF523B3EF DUP4 PUSH1 0x40 MLOAD PUSH2 0x186C SWAP2 SWAP1 PUSH2 0x1C32 JUMP JUMPDEST PUSH1 0x40 MLOAD DUP1 SWAP2 SUB SWAP1 LOG3 POP POP POP JUMP JUMPDEST PUSH1 0x0 DUP2 MLOAD SWAP1 POP SWAP2 SWAP1 POP JUMP JUMPDEST PUSH1 0x0 DUP3 DUP3 MSTORE PUSH1 0x20 DUP3 ADD SWAP1 POP SWAP3 SWAP2 POP POP JUMP JUMPDEST PUSH1 0x0 JUMPDEST DUP4 DUP2 LT ISZERO PUSH2 0x18B3 JUMPI DUP1 DUP3 ADD MLOAD DUP2 DUP5 ADD MSTORE PUSH1 0x20 DUP2 ADD SWAP1 POP PUSH2 0x1898 JUMP JUMPDEST PUSH1 0x0 DUP5 DUP5 ADD MSTORE POP POP POP POP JUMP JUMPDEST PUSH1 0x0 PUSH1 0x1F NOT PUSH1 0x1F DUP4 ADD AND SWAP1 POP SWAP2 SWAP1 POP JUMP JUMPDEST PUSH1 0x0 PUSH2 0x18DB DUP3 PUSH2 0x1879 JUMP JUMPDEST PUSH2 0x18E5 DUP2 DUP6 PUSH2 0x1884 JUMP JUMPDEST SWAP4 POP PUSH2 0x18F5 DUP2 DUP6 PUSH1 0x20 DUP7 ADD PUSH2 0x1895 JUMP JUMPDEST PUSH2 0x18FE DUP2 PUSH2 0x18BF JUMP JUMPDEST DUP5 ADD SWAP2 POP POP SWAP3 SWAP2 POP POP JUMP JUMPDEST PUSH1 0x0 PUSH1 0x20 DUP3 ADD SWAP1 POP DUP2 DUP2 SUB PUSH1 0x0 DUP4 ADD MSTORE PUSH2 0x1923 DUP2 DUP5 PUSH2 0x18D0 JUMP JUMPDEST SWAP1 POP SWAP3 SWAP2 POP POP JUMP JUMPDEST PUSH1 0x0 PUSH1 0x40 MLOAD SWAP1 POP SWAP1 JUMP JUMPDEST PUSH1 0x0 DUP1 REVERT JUMPDEST PUSH1 0x0 DUP1 REVERT JUMPDEST PUSH1 0x0 PUSH20 0xFFFFFFFFFFFFFFFFFFFFFFFFFFFFFFFFFFFFFFFF DUP3 AND SWAP1 POP SWAP2 SWAP1 POP JUMP JUMPDEST PUSH1 0x0 PUSH2 0x196A DUP3 PUSH2 0x193F JUMP JUMPDEST SWAP1 POP SWAP2 SWAP1 POP JUMP JUMPDEST PUSH2 0x197A DUP2 PUSH2 0x195F JUMP JUMPDEST DUP2 EQ PUSH2 0x1985 JUMPI PUSH1 0x0 DUP1 REVERT JUMPDEST POP JUMP JUMPDEST PUSH1 0x0 DUP2 CALLDATALOAD SWAP1 POP PUSH2 0x1997 DUP2 PUSH2 0x1971 JUMP JUMPDEST SWAP3 SWAP2 POP POP JUMP JUMPDEST PUSH1 0x0 DUP2 SWAP1 POP SWAP2 SWAP1 POP JUMP JUMPDEST PUSH2 0x19B0 DUP2 PUSH2 0x199D JUMP JUMPDEST DUP2 EQ PUSH2 0x19BB JUMPI PUSH1 0x0 DUP1 REVERT JUMPDEST POP JUMP JUMPDEST PUSH1 0x0 DUP2 CALLDATALOAD SWAP1 POP PUSH2 0x19CD DUP2 PUSH2 0x19A7 JUMP JUMPDEST SWAP3 SWAP2 POP POP JUMP JUMPDEST PUSH1 0x0 DUP1 PUSH1 0x40 DUP4 DUP6 SUB SLT ISZERO PUSH2 0x19EA JUMPI PUSH2 0x19E9 PUSH2 0x1935 JUMP JUMPDEST JUMPDEST PUSH1 0x0 PUSH2 0x19F8 DUP6 DUP3 DUP7 ADD PUSH2 0x1988 JUMP JUMPDEST SWAP3 POP POP PUSH1 0x20 PUSH2 0x1A09 DUP6 DUP3 DUP7 ADD PUSH2 0x19BE JUMP JUMPDEST SWAP2 POP POP SWAP3 POP SWAP3 SWAP1 POP JUMP JUMPDEST PUSH1 0x0 DUP2 ISZERO ISZERO SWAP1 POP SWAP2 SWAP1 POP JUMP JUMPDEST PUSH2 0x1A28 DUP2 PUSH2 0x1A13 JUMP JUMPDEST DUP3 MSTORE POP POP JUMP JUMPDEST PUSH1 0x0 PUSH1 0x20 DUP3 ADD SWAP1 POP PUSH2 0x1A43 PUSH1 0x0 DUP4 ADD DUP5 PUSH2 0x1A1F JUMP JUMPDEST SWAP3 SWAP2 POP POP JUMP JUMPDEST PUSH1 0x0 DUP1 REVERT JUMPDEST PUSH1 0x0 DUP1 REVERT JUMPDEST PUSH32 0x4E487B7100000000000000000000000000000000000000000000000000000000 PUSH1 0x0 MSTORE PUSH1 0x41 PUSH1 0x4 MSTORE PUSH1 0x24 PUSH1 0x0 REVERT JUMPDEST PUSH2 0x1A8B DUP3 PUSH2 0x18BF JUMP JUMPDEST DUP2 ADD DUP2 DUP2 LT PUSH8 0xFFFFFFFFFFFFFFFF DUP3 GT OR ISZERO PUSH2 0x1AAA JUMPI PUSH2 0x1AA9 PUSH2 0x1A53 JUMP JUMPDEST JUMPDEST DUP1 PUSH1 0x40 MSTORE POP POP POP JUMP JUMPDEST PUSH1 0x0 PUSH2 0x1ABD PUSH2 0x192B JUMP JUMPDEST SWAP1 POP PUSH2 0x1AC9 DUP3 DUP3 PUSH2 0x1A82 JUMP JUMPDEST SWAP2 SWAP1 POP JUMP JUMPDEST PUSH1 0x0 PUSH8 0xFFFFFFFFFFFFFFFF DUP3 GT ISZERO PUSH2 0x1AE9 JUMPI PUSH2 0x1AE8 PUSH2 0x1A53 JUMP JUMPDEST JUMPDEST PUSH2 0x1AF2 DUP3 PUSH2 0x18BF JUMP JUMPDEST SWAP1 POP PUSH1 0x20 DUP2 ADD SWAP1 POP SWAP2 SWAP1 POP JUMP JUMPDEST DUP3 DUP2 DUP4 CALLDATACOPY PUSH1 0x0 DUP4 DUP4 ADD MSTORE POP POP POP JUMP JUMPDEST PUSH1 0x0 PUSH2 0x1B21 PUSH2 0x1B1C DUP5 PUSH2 0x1ACE JUMP JUMPDEST PUSH2 0x1AB3 JUMP JUMPDEST SWAP1 POP DUP3 DUP2 MSTORE PUSH1 0x20 DUP2 ADD DUP5 DUP5 DUP5 ADD GT ISZERO PUSH2 0x1B3D JUMPI PUSH2 0x1B3C PUSH2 0x1A4E JUMP JUMPDEST JUMPDEST PUSH2 0x1B48 DUP5 DUP3 DUP6 PUSH2 0x1AFF JUMP JUMPDEST POP SWAP4 SWAP3 POP POP POP JUMP JUMPDEST PUSH1 0x0 DUP3 PUSH1 0x1F DUP4 ADD SLT PUSH2 0x1B65 JUMPI PUSH2 0x1B64 PUSH2 0x1A49 JUMP JUMPDEST JUMPDEST DUP2 CALLDATALOAD PUSH2 0x1B75 DUP5 DUP3 PUSH1 0x20 DUP7 ADD PUSH2 0x1B0E JUMP JUMPDEST SWAP2 POP POP SWAP3 SWAP2 POP POP JUMP JUMPDEST PUSH1 0x0 DUP1 PUSH1 0x40 DUP4 DUP6 SUB SLT ISZERO PUSH2 0x1B95 JUMPI PUSH2 0x1B94 PUSH2 0x1935 JUMP JUMPDEST JUMPDEST PUSH1 0x0 PUSH2 0x1BA3 DUP6 DUP3 DUP7 ADD PUSH2 0x1988 JUMP JUMPDEST SWAP3 POP POP PUSH1 0x20 DUP4 ADD CALLDATALOAD PUSH8 0xFFFFFFFFFFFFFFFF DUP2 GT ISZERO PUSH2 0x1BC4 JUMPI PUSH2 0x1BC3 PUSH2 0x193A JUMP JUMPDEST JUMPDEST PUSH2 0x1BD0 DUP6 DUP3 DUP7 ADD PUSH2 0x1B50 JUMP JUMPDEST SWAP2 POP POP SWAP3 POP SWAP3 SWAP1 POP JUMP JUMPDEST PUSH1 0x0 PUSH1 0x20 DUP3 DUP5 SUB SLT ISZERO PUSH2 0x1BF0 JUMPI PUSH2 0x1BEF PUSH2 0x1935 JUMP JUMPDEST JUMPDEST PUSH1 0x0 DUP3 ADD CALLDATALOAD PUSH8 0xFFFFFFFFFFFFFFFF DUP2 GT ISZERO PUSH2 0x1C0E JUMPI PUSH2 0x1C0D PUSH2 0x193A JUMP JUMPDEST JUMPDEST PUSH2 0x1C1A DUP5 DUP3 DUP6 ADD PUSH2 0x1B50 JUMP JUMPDEST SWAP2 POP POP SWAP3 SWAP2 POP POP JUMP JUMPDEST PUSH2 0x1C2C DUP2 PUSH2 0x199D JUMP JUMPDEST DUP3 MSTORE POP POP JUMP JUMPDEST PUSH1 0x0 PUSH1 0x20 DUP3 ADD SWAP1 POP PUSH2 0x1C47 PUSH1 0x0 DUP4 ADD DUP5 PUSH2 0x1C23 JUMP JUMPDEST SWAP3 SWAP2 POP POP JUMP JUMPDEST PUSH1 0x0 DUP1 PUSH1 0x0 PUSH1 0x60 DUP5 DUP7 SUB SLT ISZERO PUSH2 0x1C66 JUMPI PUSH2 0x1C65 PUSH2 0x1935 JUMP JUMPDEST JUMPDEST PUSH1 0x0 PUSH2 0x1C74 DUP7 DUP3 DUP8 ADD PUSH2 0x1988 JUMP JUMPDEST SWAP4 POP POP PUSH1 0x20 PUSH2 0x1C85 DUP7 DUP3 DUP8 ADD PUSH2 0x1988 JUMP JUMPDEST SWAP3 POP POP PUSH1 0x40 PUSH2 0x1C96 DUP7 DUP3 DUP8 ADD PUSH2 0x19BE JUMP JUMPDEST SWAP2 POP POP SWAP3 POP SWAP3 POP SWAP3 JUMP JUMPDEST PUSH1 0x0 PUSH1 0xFF DUP3 AND SWAP1 POP SWAP2 SWAP1 POP JUMP JUMPDEST PUSH2 0x1CB6 DUP2 PUSH2 0x1CA0 JUMP JUMPDEST DUP3 MSTORE POP POP JUMP JUMPDEST PUSH1 0x0 PUSH1 0x20 DUP3 ADD SWAP1 POP PUSH2 0x1CD1 PUSH1 0x0 DUP4 ADD DUP5 PUSH2 0x1CAD JUMP JUMPDEST SWAP3 SWAP2 POP POP JUMP JUMPDEST PUSH2 0x1CE0 DUP2 PUSH2 0x195F JUMP JUMPDEST DUP3 MSTORE POP POP JUMP JUMPDEST PUSH1 0x0 PUSH1 0x20 DUP3 ADD SWAP1 POP PUSH2 0x1CFB PUSH1 0x0 DUP4 ADD DUP5 PUSH2 0x1CD7 JUMP JUMPDEST SWAP3 SWAP2 POP POP JUMP JUMPDEST PUSH1 0x0 PUSH1 0x20 DUP3 DUP5 SUB SLT ISZERO PUSH2 0x1D17 JUMPI PUSH2 0x1D16 PUSH2 0x1935 JUMP JUMPDEST JUMPDEST PUSH1 0x0 PUSH2 0x1D25 DUP5 DUP3 DUP6 ADD PUSH2 0x1988 JUMP JUMPDEST SWAP2 POP POP SWAP3 SWAP2 POP POP JUMP JUMPDEST PUSH1 0x0 DUP2 MLOAD SWAP1 POP SWAP2 SWAP1 POP JUMP JUMPDEST PUSH1 0x0 DUP3 DUP3 MSTORE PUSH1 0x20 DUP3 ADD SWAP1 POP SWAP3 SWAP2 POP POP JUMP JUMPDEST PUSH1 0x0 DUP2 SWAP1 POP PUSH1 0x20 DUP3 ADD SWAP1 POP SWAP2 SWAP1 POP JUMP JUMPDEST PUSH1 0x0 DUP3 DUP3 MSTORE PUSH1 0x20 DUP3 ADD SWAP1 POP SWAP3 SWAP2 POP POP JUMP JUMPDEST PUSH1 0x0 PUSH2 0x1D76 DUP3 PUSH2 0x1879 JUMP JUMPDEST PUSH2 0x1D80 DUP2 DUP6 PUSH2 0x1D5A JUMP JUMPDEST SWAP4 POP PUSH2 0x1D90 DUP2 DUP6 PUSH1 0x20 DUP7 ADD PUSH2 0x1895 JUMP JUMPDEST PUSH2 0x1D99 DUP2 PUSH2 0x18BF JUMP JUMPDEST DUP5 ADD SWAP2 POP POP SWAP3 SWAP2 POP POP JUMP JUMPDEST PUSH1 0x0 PUSH2 0x1DB0 DUP4 DUP4 PUSH2 0x1D6B JUMP JUMPDEST SWAP1 POP SWAP3 SWAP2 POP POP JUMP JUMPDEST PUSH1 0x0 PUSH1 0x20 DUP3 ADD SWAP1 POP SWAP2 SWAP1 POP JUMP JUMPDEST PUSH1 0x0 PUSH2 0x1DD0 DUP3 PUSH2 0x1D2E JUMP JUMPDEST PUSH2 0x1DDA DUP2 DUP6 PUSH2 0x1D39 JUMP JUMPDEST SWAP4 POP DUP4 PUSH1 0x20 DUP3 MUL DUP6 ADD PUSH2 0x1DEC DUP6 PUSH2 0x1D4A JUMP JUMPDEST DUP1 PUSH1 0x0 JUMPDEST DUP6 DUP2 LT ISZERO PUSH2 0x1E28 JUMPI DUP5 DUP5 SUB DUP10 MSTORE DUP2 MLOAD PUSH2 0x1E09 DUP6 DUP3 PUSH2 0x1DA4 JUMP JUMPDEST SWAP5 POP PUSH2 0x1E14 DUP4 PUSH2 0x1DB8 JUMP JUMPDEST SWAP3 POP PUSH1 0x20 DUP11 ADD SWAP10 POP POP PUSH1 0x1 DUP2 ADD SWAP1 POP PUSH2 0x1DF0 JUMP JUMPDEST POP DUP3 SWAP8 POP DUP8 SWAP6 POP POP POP POP POP POP SWAP3 SWAP2 POP POP JUMP JUMPDEST PUSH1 0x0 DUP2 MLOAD SWAP1 POP SWAP2 SWAP1 POP JUMP JUMPDEST PUSH1 0x0 DUP3 DUP3 MSTORE PUSH1 0x20 DUP3 ADD SWAP1 POP SWAP3 SWAP2 POP POP JUMP JUMPDEST PUSH1 0x0 DUP2 SWAP1 POP PUSH1 0x20 DUP3 ADD SWAP1 POP SWAP2 SWAP1 POP JUMP JUMPDEST PUSH2 0x1E6F DUP2 PUSH2 0x199D JUMP JUMPDEST DUP3 MSTORE POP POP JUMP JUMPDEST PUSH1 0x0 PUSH2 0x1E81 DUP4 DUP4 PUSH2 0x1E66 JUMP JUMPDEST PUSH1 0x20 DUP4 ADD SWAP1 POP SWAP3 SWAP2 POP POP JUMP JUMPDEST PUSH1 0x0 PUSH1 0x20 DUP3 ADD SWAP1 POP SWAP2 SWAP1 POP JUMP JUMPDEST PUSH1 0x0 PUSH2 0x1EA5 DUP3 PUSH2 0x1E3A JUMP JUMPDEST PUSH2 0x1EAF DUP2 DUP6 PUSH2 0x1E45 JUMP JUMPDEST SWAP4 POP PUSH2 0x1EBA DUP4 PUSH2 0x1E56 JUMP JUMPDEST DUP1 PUSH1 0x0 JUMPDEST DUP4 DUP2 LT ISZERO PUSH2 0x1EEB JUMPI DUP2 MLOAD PUSH2 0x1ED2 DUP9 DUP3 PUSH2 0x1E75 JUMP JUMPDEST SWAP8 POP PUSH2 0x1EDD DUP4 PUSH2 0x1E8D JUMP JUMPDEST SWAP3 POP POP PUSH1 0x1 DUP2 ADD SWAP1 POP PUSH2 0x1EBE JUMP JUMPDEST POP DUP6 SWAP4 POP POP POP POP SWAP3 SWAP2 POP POP JUMP JUMPDEST PUSH1 0x0 PUSH1 0x40 DUP3 ADD SWAP1 POP DUP2 DUP2 SUB PUSH1 0x0 DUP4 ADD MSTORE PUSH2 0x1F12 DUP2 DUP6 PUSH2 0x1DC5 JUMP JUMPDEST SWAP1 POP DUP2 DUP2 SUB PUSH1 0x20 DUP4 ADD MSTORE PUSH2 0x1F26 DUP2 DUP5 PUSH2 0x1E9A JUMP JUMPDEST SWAP1 POP SWAP4 SWAP3 POP POP POP JUMP JUMPDEST PUSH1 0x0 DUP1 PUSH1 0x40 DUP4 DUP6 SUB SLT ISZERO PUSH2 0x1F46 JUMPI PUSH2 0x1F45 PUSH2 0x1935 JUMP JUMPDEST JUMPDEST PUSH1 0x0 DUP4 ADD CALLDATALOAD PUSH8 0xFFFFFFFFFFFFFFFF DUP2 GT ISZERO PUSH2 0x1F64 JUMPI PUSH2 0x1F63 PUSH2 0x193A JUMP JUMPDEST JUMPDEST PUSH2 0x1F70 DUP6 DUP3 DUP7 ADD PUSH2 0x1B50 JUMP JUMPDEST SWAP3 POP POP PUSH1 0x20 PUSH2 0x1F81 DUP6 DUP3 DUP7 ADD PUSH2 0x19BE JUMP JUMPDEST SWAP2 POP POP SWAP3 POP SWAP3 SWAP1 POP JUMP JUMPDEST PUSH1 0x0 DUP1 PUSH1 0x40 DUP4 DUP6 SUB SLT ISZERO PUSH2 0x1FA2 JUMPI PUSH2 0x1FA1 PUSH2 0x1935 JUMP JUMPDEST JUMPDEST PUSH1 0x0 PUSH2 0x1FB0 DUP6 DUP3 DUP7 ADD PUSH2 0x1988 JUMP JUMPDEST SWAP3 POP POP PUSH1 0x20 PUSH2 0x1FC1 DUP6 DUP3 DUP7 ADD PUSH2 0x1988 JUMP JUMPDEST SWAP2 POP POP SWAP3 POP SWAP3 SWAP1 POP JUMP JUMPDEST PUSH32 0x4E487B7100000000000000000000000000000000000000000000000000000000 PUSH1 0x0 MSTORE PUSH1 0x22 PUSH1 0x4 MSTORE PUSH1 0x24 PUSH1 0x0 REVERT JUMPDEST PUSH1 0x0 PUSH1 0x2 DUP3 DIV SWAP1 POP PUSH1 0x1 DUP3 AND DUP1 PUSH2 0x2012 JUMPI PUSH1 0x7F DUP3 AND SWAP2 POP JUMPDEST PUSH1 0x20 DUP3 LT DUP2 SUB PUSH2 0x2025 JUMPI PUSH2 0x2024 PUSH2 0x1FCB JUMP JUMPDEST JUMPDEST POP SWAP2 SWAP1 POP JUMP JUMPDEST PUSH1 0x0 DUP2 SWAP1 POP SWAP3 SWAP2 POP POP JUMP JUMPDEST PUSH1 0x0 PUSH2 0x2041 DUP3 PUSH2 0x1879 JUMP JUMPDEST PUSH2 0x204B DUP2 DUP6 PUSH2 0x202B JUMP JUMPDEST SWAP4 POP PUSH2 0x205B DUP2 DUP6 PUSH1 0x20 DUP7 ADD PUSH2 0x1895 JUMP JUMPDEST DUP1 DUP5 ADD SWAP2 POP POP SWAP3 SWAP2 POP POP JUMP JUMPDEST PUSH1 0x0 PUSH2 0x2073 DUP3 DUP5 PUSH2 0x2036 JUMP JUMPDEST SWAP2 POP DUP2 SWAP1 POP SWAP3 SWAP2 POP POP JUMP JUMPDEST PUSH32 0x44657374696E61746172696F206E616F206175746F72697A61646F2100000000 PUSH1 0x0 DUP3 ADD MSTORE POP JUMP JUMPDEST PUSH1 0x0 PUSH2 0x20B4 PUSH1 0x1C DUP4 PUSH2 0x1884 JUMP JUMPDEST SWAP2 POP PUSH2 0x20BF DUP3 PUSH2 0x207E JUMP JUMPDEST PUSH1 0x20 DUP3 ADD SWAP1 POP SWAP2 SWAP1 POP JUMP JUMPDEST PUSH1 0x0 PUSH1 0x20 DUP3 ADD SWAP1 POP DUP2 DUP2 SUB PUSH1 0x0 DUP4 ADD MSTORE PUSH2 0x20E3 DUP2 PUSH2 0x20A7 JUMP JUMPDEST SWAP1 POP SWAP2 SWAP1 POP JUMP JUMPDEST PUSH32 0x5065726D697373616F206E65676164612C206170656E6173206F776E6572206F PUSH1 0x0 DUP3 ADD MSTORE PUSH32 0x7520612070726F666573736F7261210000000000000000000000000000000000 PUSH1 0x20 DUP3 ADD MSTORE POP JUMP JUMPDEST PUSH1 0x0 PUSH2 0x2146 PUSH1 0x2F DUP4 PUSH2 0x1884 JUMP JUMPDEST SWAP2 POP PUSH2 0x2151 DUP3 PUSH2 0x20EA JUMP JUMPDEST PUSH1 0x40 DUP3 ADD SWAP1 POP SWAP2 SWAP1 POP JUMP JUMPDEST PUSH1 0x0 PUSH1 0x20 DUP3 ADD SWAP1 POP DUP2 DUP2 SUB PUSH1 0x0 DUP4 ADD MSTORE PUSH2 0x2175 DUP2 PUSH2 0x2139 JUMP JUMPDEST SWAP1 POP SWAP2 SWAP1 POP JUMP JUMPDEST PUSH32 0x4E487B7100000000000000000000000000000000000000000000000000000000 PUSH1 0x0 MSTORE PUSH1 0x32 PUSH1 0x4 MSTORE PUSH1 0x24 PUSH1 0x0 REVERT JUMPDEST PUSH1 0x0 DUP2 SWAP1 POP DUP2 PUSH1 0x0 MSTORE PUSH1 0x20 PUSH1 0x0 KECCAK256 SWAP1 POP SWAP2 SWAP1 POP JUMP JUMPDEST PUSH1 0x0 DUP2 SLOAD PUSH2 0x21CD DUP2 PUSH2 0x1FFA JUMP JUMPDEST PUSH2 0x21D7 DUP2 DUP7 PUSH2 0x202B JUMP JUMPDEST SWAP5 POP PUSH1 0x1 DUP3 AND PUSH1 0x0 DUP2 EQ PUSH2 0x21F2 JUMPI PUSH1 0x1 DUP2 EQ PUSH2 0x2207 JUMPI PUSH2 0x223A JUMP JUMPDEST PUSH1 0xFF NOT DUP4 AND DUP7 MSTORE DUP2 ISZERO ISZERO DUP3 MUL DUP7 ADD SWAP4 POP PUSH2 0x223A JUMP JUMPDEST PUSH2 0x2210 DUP6 PUSH2 0x21AB JUMP JUMPDEST PUSH1 0x0 JUMPDEST DUP4 DUP2 LT ISZERO PUSH2 0x2232 JUMPI DUP2 SLOAD DUP2 DUP10 ADD MSTORE PUSH1 0x1 DUP3 ADD SWAP2 POP PUSH1 0x20 DUP2 ADD SWAP1 POP PUSH2 0x2213 JUMP JUMPDEST DUP4 DUP9 ADD SWAP6 POP POP POP JUMPDEST POP POP POP SWAP3 SWAP2 POP POP JUMP JUMPDEST PUSH1 0x0 PUSH2 0x224F DUP3 DUP5 PUSH2 0x21C0 JUMP JUMPDEST SWAP2 POP DUP2 SWAP1 POP SWAP3 SWAP2 POP POP JUMP JUMPDEST PUSH32 0x52656D6574656E7465206E616F206175746F72697A61646F2100000000000000 PUSH1 0x0 DUP3 ADD MSTORE POP JUMP JUMPDEST PUSH1 0x0 PUSH2 0x2290 PUSH1 0x19 DUP4 PUSH2 0x1884 JUMP JUMPDEST SWAP2 POP PUSH2 0x229B DUP3 PUSH2 0x225A JUMP JUMPDEST PUSH1 0x20 DUP3 ADD SWAP1 POP SWAP2 SWAP1 POP JUMP JUMPDEST PUSH1 0x0 PUSH1 0x20 DUP3 ADD SWAP1 POP DUP2 DUP2 SUB PUSH1 0x0 DUP4 ADD MSTORE PUSH2 0x22BF DUP2 PUSH2 0x2283 JUMP JUMPDEST SWAP1 POP SWAP2 SWAP1 POP JUMP JUMPDEST PUSH32 0x4E616F20706F646520766F74617220656D207369206D65736D6F210000000000 PUSH1 0x0 DUP3 ADD MSTORE POP JUMP JUMPDEST PUSH1 0x0 PUSH2 0x22FC PUSH1 0x1B DUP4 PUSH2 0x1884 JUMP JUMPDEST SWAP2 POP PUSH2 0x2307 DUP3 PUSH2 0x22C6 JUMP JUMPDEST PUSH1 0x20 DUP3 ADD SWAP1 POP SWAP2 SWAP1 POP JUMP JUMPDEST PUSH1 0x0 PUSH1 0x20 DUP3 ADD SWAP1 POP DUP2 DUP2 SUB PUSH1 0x0 DUP4 ADD MSTORE PUSH2 0x232B DUP2 PUSH2 0x22EF JUMP JUMPDEST SWAP1 POP SWAP2 SWAP1 POP JUMP JUMPDEST PUSH32 0x566F746163616F20657374612064657361746976616461210000000000000000 PUSH1 0x0 DUP3 ADD MSTORE POP JUMP JUMPDEST PUSH1 0x0 PUSH2 0x2368 PUSH1 0x18 DUP4 PUSH2 0x1884 JUMP JUMPDEST SWAP2 POP PUSH2 0x2373 DUP3 PUSH2 0x2332 JUMP JUMPDEST PUSH1 0x20 DUP3 ADD SWAP1 POP SWAP2 SWAP1 POP JUMP JUMPDEST PUSH1 0x0 PUSH1 0x20 DUP3 ADD SWAP1 POP DUP2 DUP2 SUB PUSH1 0x0 DUP4 ADD MSTORE PUSH2 0x2397 DUP2 PUSH2 0x235B JUMP JUMPDEST SWAP1 POP SWAP2 SWAP1 POP JUMP JUMPDEST PUSH32 0x566F6365206A6120766F746F75206E65737365207573756172696F2100000000 PUSH1 0x0 DUP3 ADD MSTORE POP JUMP JUMPDEST PUSH1 0x0 PUSH2 0x23D4 PUSH1 0x1C DUP4 PUSH2 0x1884 JUMP JUMPDEST SWAP2 POP PUSH2 0x23DF DUP3 PUSH2 0x239E JUMP JUMPDEST PUSH1 0x20 DUP3 ADD SWAP1 POP SWAP2 SWAP1 POP JUMP JUMPDEST PUSH1 0x0 PUSH1 0x20 DUP3 ADD SWAP1 POP DUP2 DUP2 SUB PUSH1 0x0 DUP4 ADD MSTORE PUSH2 0x2403 DUP2 PUSH2 0x23C7 JUMP JUMPDEST SWAP1 POP SWAP2 SWAP1 POP JUMP JUMPDEST PUSH32 0x5175616E74696461646520646520746F6B656E7320646520766F746F206D7569 PUSH1 0x0 DUP3 ADD MSTORE PUSH32 0x746F20616C746121000000000000000000000000000000000000000000000000 PUSH1 0x20 DUP3 ADD MSTORE POP JUMP JUMPDEST PUSH1 0x0 PUSH2 0x2466 PUSH1 0x28 DUP4 PUSH2 0x1884 JUMP JUMPDEST SWAP2 POP PUSH2 0x2471 DUP3 PUSH2 0x240A JUMP JUMPDEST PUSH1 0x40 DUP3 ADD SWAP1 POP SWAP2 SWAP1 POP JUMP JUMPDEST PUSH1 0x0 PUSH1 0x20 DUP3 ADD SWAP1 POP DUP2 DUP2 SUB PUSH1 0x0 DUP4 ADD MSTORE PUSH2 0x2495 DUP2 PUSH2 0x2459 JUMP JUMPDEST SWAP1 POP SWAP2 SWAP1 POP JUMP JUMPDEST PUSH1 0x0 PUSH1 0x40 DUP3 ADD SWAP1 POP DUP2 DUP2 SUB PUSH1 0x0 DUP4 ADD MSTORE PUSH2 0x24B6 DUP2 DUP6 PUSH2 0x18D0 JUMP JUMPDEST SWAP1 POP PUSH2 0x24C5 PUSH1 0x20 DUP4 ADD DUP5 PUSH2 0x1C23 JUMP JUMPDEST SWAP4 SWAP3 POP POP POP JUMP JUMPDEST PUSH1 0x0 PUSH1 0x60 DUP3 ADD SWAP1 POP PUSH2 0x24E1 PUSH1 0x0 DUP4 ADD DUP7 PUSH2 0x1CD7 JUMP JUMPDEST PUSH2 0x24EE PUSH1 0x20 DUP4 ADD DUP6 PUSH2 0x1C23 JUMP JUMPDEST PUSH2 0x24FB PUSH1 0x40 DUP4 ADD DUP5 PUSH2 0x1C23 JUMP JUMPDEST SWAP5 SWAP4 POP POP POP POP JUMP JUMPDEST PUSH32 0x4E487B7100000000000000000000000000000000000000000000000000000000 PUSH1 0x0 MSTORE PUSH1 0x11 PUSH1 0x4 MSTORE PUSH1 0x24 PUSH1 0x0 REVERT JUMPDEST PUSH1 0x0 PUSH2 0x253D DUP3 PUSH2 0x199D JUMP JUMPDEST SWAP2 POP PUSH2 0x2548 DUP4 PUSH2 0x199D JUMP JUMPDEST SWAP3 POP DUP3 DUP3 ADD SWAP1 POP DUP1 DUP3 GT ISZERO PUSH2 0x2560 JUMPI PUSH2 0x255F PUSH2 0x2503 JUMP JUMPDEST JUMPDEST SWAP3 SWAP2 POP POP JUMP INVALID LOG2 PUSH5 0x6970667358 0x22 SLT KECCAK256 PUSH18 0x5BC7A2C3EBFA7F04BD73ACF48267AAE3C10F 0xCA SWAP12 SHR 0xC1 0xD9 0xC9 PUSH15 0x79CE750543D464736F6C634300081C STOP CALLER "},"methodIdentifiers":{"ACCOUNT_NUMBER()":"99f1a985","MAX_MINT_VOTE()":"dffecc91","VOTE_REWARD()":"1a7dfad4","allowance(address,address)":"dd62ed3e","approve(address,uint256)":"095ea7b3","balanceByCodiname(string)":"104956ba","balanceOf(address)":"70a08231","decimals()":"313ce567","getAllBalances()":"867e7c27","issueToken(string,uint256)":"c683e0f4","name()":"06fdde03","owner()":"8da5cb5b","professora()":"6c66247a","symbol()":"95d89b41","totalSupply()":"18160ddd","transfer(address,uint256)":"a9059cbb","transferFrom(address,address,uint256)":"23b872dd","vote(string,uint256)":"a6385803","voted(address,string)":"0a7e9456","votingActive()":"408e2727","votingOff()":"60a3ae06","votingOn()":"20949bb4"}}}}}