{
  "_format": "hh-sol-artifact-1",
  "contractName": "Token",
  "sourceName": "contracts/Token.sol",
  "abi": [
    {
      "inputs": [],
      "stateMutability": "nonpayable",
      "type": "constructor"
    },
    {
      "anonymous": false,
      "inputs": [
        {
          "indexed": true,
          "internalType": "address",
          "name": "_from",
          "type": "address"
        },
        {
          "indexed": true,
          "internalType": "address",
          "name": "_to",
          "type": "address"
        },
        {
          "indexed": false,
          "internalType": "uint256",
          "name": "_value",
          "type": "uint256"
        }
      ],
      "name": "Transfer",
      "type": "event"
    },
    {
      "anonymous": false,
      "inputs": [
        {
          "indexed": true,
          "internalType": "address",
          "name": "voter",
          "type": "address"
        },
        {
          "indexed": true,
          "internalType": "string",
          "name": "codinome",
          "type": "string"
        },
        {
          "indexed": false,
          "internalType": "uint256",
          "name": "amount",
          "type": "uint256"
        }
      ],
      "name": "Voted",
      "type": "event"
    },
    {
      "inputs": [
        {
          "internalType": "string",
          "name": "codinome",
          "type": "string"
        }
      ],
      "name": "balanceByCodiname",
      "outputs": [
        {
          "internalType": "uint256",
          "name": "",
          "type": "uint256"
        }
      ],
      "stateMutability": "view",
      "type": "function"
    },
    {
      "inputs": [
        {
          "internalType": "address",
          "name": "account",
          "type": "address"
        }
      ],
      "name": "balanceOf",
      "outputs": [
        {
          "internalType": "uint256",
          "name": "",
          "type": "uint256"
        }
      ],
      "stateMutability": "view",
      "type": "function"
    },
    {
      "inputs": [],
      "name": "getWinner",
      "outputs": [
        {
          "internalType": "string",
          "name": "",
          "type": "string"
        }
      ],
      "stateMutability": "view",
      "type": "function"
    },
    {
      "inputs": [],
      "name": "getWinnerValue",
      "outputs": [
        {
          "internalType": "uint256",
          "name": "",
          "type": "uint256"
        }
      ],
      "stateMutability": "view",
      "type": "function"
    },
    {
      "inputs": [
        {
          "internalType": "string",
          "name": "codinome",
          "type": "string"
        },
        {
          "internalType": "uint256",
          "name": "sats",
          "type": "uint256"
        }
      ],
      "name": "issueToken",
      "outputs": [],
      "stateMutability": "nonpayable",
      "type": "function"
    },
    {
      "inputs": [],
      "name": "msgSender",
      "outputs": [
        {
          "internalType": "address",
          "name": "",
          "type": "address"
        }
      ],
      "stateMutability": "view",
      "type": "function"
    },
    {
      "inputs": [],
      "name": "name",
      "outputs": [
        {
          "internalType": "string",
          "name": "",
          "type": "string"
        }
      ],
      "stateMutability": "view",
      "type": "function"
    },
    {
      "inputs": [],
      "name": "owner",
      "outputs": [
        {
          "internalType": "address",
          "name": "",
          "type": "address"
        }
      ],
      "stateMutability": "view",
      "type": "function"
    },
    {
      "inputs": [],
      "name": "professora",
      "outputs": [
        {
          "internalType": "address",
          "name": "",
          "type": "address"
        }
      ],
      "stateMutability": "view",
      "type": "function"
    },
    {
      "inputs": [],
      "name": "symbol",
      "outputs": [
        {
          "internalType": "string",
          "name": "",
          "type": "string"
        }
      ],
      "stateMutability": "view",
      "type": "function"
    },
    {
      "inputs": [],
      "name": "totalSupply",
      "outputs": [
        {
          "internalType": "uint256",
          "name": "",
          "type": "uint256"
        }
      ],
      "stateMutability": "view",
      "type": "function"
    },
    {
      "inputs": [
        {
          "internalType": "address",
          "name": "to",
          "type": "address"
        },
        {
          "internalType": "uint256",
          "name": "amount",
          "type": "uint256"
        }
      ],
      "name": "transfer",
      "outputs": [],
      "stateMutability": "nonpayable",
      "type": "function"
    },
    {
      "inputs": [
        {
          "internalType": "string",
          "name": "codinome",
          "type": "string"
        },
        {
          "internalType": "uint256",
          "name": "sats",
          "type": "uint256"
        }
      ],
      "name": "vote",
      "outputs": [],
      "stateMutability": "nonpayable",
      "type": "function"
    },
    {
      "inputs": [
        {
          "internalType": "address",
          "name": "",
          "type": "address"
        },
        {
          "internalType": "string",
          "name": "",
          "type": "string"
        }
      ],
      "name": "voted",
      "outputs": [
        {
          "internalType": "bool",
          "name": "",
          "type": "bool"
        }
      ],
      "stateMutability": "view",
      "type": "function"
    },
    {
      "inputs": [],
      "name": "votingActive",
      "outputs": [
        {
          "internalType": "bool",
          "name": "",
          "type": "bool"
        }
      ],
      "stateMutability": "view",
      "type": "function"
    },
    {
      "inputs": [],
      "name": "votingOff",
      "outputs": [],
      "stateMutability": "nonpayable",
      "type": "function"
    },
    {
      "inputs": [],
      "name": "votingOn",
      "outputs": [],
      "stateMutability": "nonpayable",
      "type": "function"
    },
    {
      "inputs": [],
      "name": "winner",
      "outputs": [
        {
          "internalType": "string",
          "name": "",
          "type": "string"
        }
      ],
      "stateMutability": "view",
      "type": "function"
    },
    {
      "inputs": [],
      "name": "winnerValue",
      "outputs": [
        {
          "internalType": "uint256",
          "name": "",
          "type": "uint256"
        }
      ],
      "stateMutability": "view",
      "type": "function"
    }
  ],
  "bytecode": "0x60806040526040518060400160405280600681526020017f547572696e670000000000000000000000000000000000000000000000000000815250600090816100489190610546565b506040518060400160405280600381526020017f4d485400000000000000000000000000000000000000000000000000000000008152506001908161008d9190610546565b5069d3c21bcecceda100000060025573502542668af09fa7aea52174b9965a7799343df7600460006101000a81548173ffffffffffffffffffffffffffffffffffffffff021916908373ffffffffffffffffffffffffffffffffffffffff1602179055506040518060400160405280600681526020017f6e6f626f64790000000000000000000000000000000000000000000000000000815250600590816101359190610546565b5060006006556001600a60006101000a81548160ff02191690831515021790555034801561016257600080fd5b5033600360006101000a81548173ffffffffffffffffffffffffffffffffffffffff021916908373ffffffffffffffffffffffffffffffffffffffff1602179055507370997970c51812dc3a010c7d01b50e0d17dc79c860086040516101c79061066f565b908152602001604051809103902060006101000a81548173ffffffffffffffffffffffffffffffffffffffff021916908373ffffffffffffffffffffffffffffffffffffffff160217905550733c44cdddb6a900fa2b585dd299e03d12fa4293bc6008604051610236906106d0565b908152602001604051809103902060006101000a81548173ffffffffffffffffffffffffffffffffffffffff021916908373ffffffffffffffffffffffffffffffffffffffff1602179055507390f79bf6eb2c4f870365e785982e1f101e93b90660086040516102a590610731565b908152602001604051809103902060006101000a81548173ffffffffffffffffffffffffffffffffffffffff021916908373ffffffffffffffffffffffffffffffffffffffff160217905550610746565b600081519050919050565b7f4e487b7100000000000000000000000000000000000000000000000000000000600052604160045260246000fd5b7f4e487b7100000000000000000000000000000000000000000000000000000000600052602260045260246000fd5b6000600282049050600182168061037757607f821691505b60208210810361038a57610389610330565b5b50919050565b60008190508160005260206000209050919050565b60006020601f8301049050919050565b600082821b905092915050565b6000600883026103f27fffffffffffffffffffffffffffffffffffffffffffffffffffffffffffffffff826103b5565b6103fc86836103b5565b95508019841693508086168417925050509392505050565b6000819050919050565b6000819050919050565b600061044361043e61043984610414565b61041e565b610414565b9050919050565b6000819050919050565b61045d83610428565b6104716104698261044a565b8484546103c2565b825550505050565b600090565b610486610479565b610491818484610454565b505050565b5b818110156104b5576104aa60008261047e565b600181019050610497565b5050565b601f8211156104fa576104cb81610390565b6104d4846103a5565b810160208510156104e3578190505b6104f76104ef856103a5565b830182610496565b50505b505050565b600082821c905092915050565b600061051d600019846008026104ff565b1980831691505092915050565b6000610536838361050c565b9150826002028217905092915050565b61054f826102f6565b67ffffffffffffffff81111561056857610567610301565b5b610572825461035f565b61057d8282856104b9565b600060209050601f8311600181146105b0576000841561059e578287015190505b6105a8858261052a565b865550610610565b601f1984166105be86610390565b60005b828110156105e6578489015182556001820191506020850194506020810190506105c1565b8683101561060357848901516105ff601f89168261050c565b8355505b6001600288020188555050505b505050505050565b600081905092915050565b7f6e6f6d6531000000000000000000000000000000000000000000000000000000600082015250565b6000610659600583610618565b915061066482610623565b600582019050919050565b600061067a8261064c565b9150819050919050565b7f6e6f6d6532000000000000000000000000000000000000000000000000000000600082015250565b60006106ba600583610618565b91506106c582610684565b600582019050919050565b60006106db826106ad565b9150819050919050565b7f6e6f6d6533000000000000000000000000000000000000000000000000000000600082015250565b600061071b600583610618565b9150610726826106e5565b600582019050919050565b600061073c8261070e565b9150819050919050565b611ee0806107556000396000f3fe608060405234801561001057600080fd5b50600436106101215760003560e01c80638da5cb5b116100ad578063a9059cbb11610071578063a9059cbb146102d6578063bb978c5b146102f2578063c683e0f414610310578063d737d0c71461032c578063dfbf53ae1461034a57610121565b80638da5cb5b146102425780638e7ea5b2146102605780638f1415bf1461027e57806395d89b411461029c578063a6385803146102ba57610121565b806320949bb4116100f457806320949bb4146101c2578063408e2727146101cc57806360a3ae06146101ea5780636c66247a146101f457806370a082311461021257610121565b806306fdde03146101265780630a7e945614610144578063104956ba1461017457806318160ddd146101a4575b600080fd5b61012e610368565b60405161013b91906112d3565b60405180910390f35b61015e6004803603810190610159919061149c565b6103f6565b60405161016b9190611513565b60405180910390f35b61018e6004803603810190610189919061152e565b61043b565b60405161019b9190611590565b60405180910390f35b6101ac6104c2565b6040516101b99190611590565b60405180910390f35b6101ca6104c8565b005b6101d46105cd565b6040516101e19190611513565b60405180910390f35b6101f26105e0565b005b6101fc6106e5565b60405161020991906115ba565b60405180910390f35b61022c600480360381019061022791906115d5565b61070b565b6040516102399190611590565b60405180910390f35b61024a610754565b60405161025791906115ba565b60405180910390f35b61026861077a565b60405161027591906112d3565b60405180910390f35b61028661080c565b6040516102939190611590565b60405180910390f35b6102a4610816565b6040516102b191906112d3565b60405180910390f35b6102d460048036038101906102cf919061162e565b6108a4565b005b6102f060048036038101906102eb919061168a565b610dfa565b005b6102fa610f91565b6040516103079190611590565b60405180910390f35b61032a6004803603810190610325919061162e565b610f97565b005b6103346110cb565b60405161034191906115ba565b60405180910390f35b6103526110d3565b60405161035f91906112d3565b60405180910390f35b60008054610375906116f9565b80601f01602080910402602001604051908101604052809291908181526020018280546103a1906116f9565b80156103ee5780601f106103c3576101008083540402835291602001916103ee565b820191906000526020600020905b8154815290600101906020018083116103d157829003601f168201915b505050505081565b6009602052816000526040600020818051602081018201805184825260208301602085012081835280955050505050506000915091509054906101000a900460ff1681565b6000600760006008846040516104519190611766565b908152602001604051809103902060009054906101000a900473ffffffffffffffffffffffffffffffffffffffff1673ffffffffffffffffffffffffffffffffffffffff1673ffffffffffffffffffffffffffffffffffffffff168152602001908152602001600020549050919050565b60025481565b600360009054906101000a900473ffffffffffffffffffffffffffffffffffffffff1673ffffffffffffffffffffffffffffffffffffffff163373ffffffffffffffffffffffffffffffffffffffff1614806105715750600460009054906101000a900473ffffffffffffffffffffffffffffffffffffffff1673ffffffffffffffffffffffffffffffffffffffff163373ffffffffffffffffffffffffffffffffffffffff16145b6105b0576040517f08c379a00000000000000000000000000000000000000000000000000000000081526004016105a7906117ef565b60405180910390fd5b6001600a60006101000a81548160ff021916908315150217905550565b600a60009054906101000a900460ff1681565b600360009054906101000a900473ffffffffffffffffffffffffffffffffffffffff1673ffffffffffffffffffffffffffffffffffffffff163373ffffffffffffffffffffffffffffffffffffffff1614806106895750600460009054906101000a900473ffffffffffffffffffffffffffffffffffffffff1673ffffffffffffffffffffffffffffffffffffffff163373ffffffffffffffffffffffffffffffffffffffff16145b6106c8576040517f08c379a00000000000000000000000000000000000000000000000000000000081526004016106bf906117ef565b60405180910390fd5b6000600a60006101000a81548160ff021916908315150217905550565b600460009054906101000a900473ffffffffffffffffffffffffffffffffffffffff1681565b6000600760008373ffffffffffffffffffffffffffffffffffffffff1673ffffffffffffffffffffffffffffffffffffffff168152602001908152602001600020549050919050565b600360009054906101000a900473ffffffffffffffffffffffffffffffffffffffff1681565b606060058054610789906116f9565b80601f01602080910402602001604051908101604052809291908181526020018280546107b5906116f9565b80156108025780601f106107d757610100808354040283529160200191610802565b820191906000526020600020905b8154815290600101906020018083116107e557829003601f168201915b5050505050905090565b6000600654905090565b60018054610823906116f9565b80601f016020809104026020016040519081016040528092919081815260200182805461084f906116f9565b801561089c5780601f106108715761010080835404028352916020019161089c565b820191906000526020600020905b81548152906001019060200180831161087f57829003601f168201915b505050505081565b600a60009054906101000a900460ff166108f3576040517f08c379a00000000000000000000000000000000000000000000000000000000081526004016108ea9061185b565b60405180910390fd5b600073ffffffffffffffffffffffffffffffffffffffff1660088360405161091b9190611766565b908152602001604051809103902060009054906101000a900473ffffffffffffffffffffffffffffffffffffffff1673ffffffffffffffffffffffffffffffffffffffff16036109a0576040517f08c379a0000000000000000000000000000000000000000000000000000000008152600401610997906118c7565b60405180910390fd5b600073ffffffffffffffffffffffffffffffffffffffff163373ffffffffffffffffffffffffffffffffffffffff1603610a0f576040517f08c379a0000000000000000000000000000000000000000000000000000000008152600401610a0690611933565b60405180910390fd5b600882604051610a1f9190611766565b908152602001604051809103902060009054906101000a900473ffffffffffffffffffffffffffffffffffffffff1673ffffffffffffffffffffffffffffffffffffffff163373ffffffffffffffffffffffffffffffffffffffff1603610abb576040517f08c379a0000000000000000000000000000000000000000000000000000000008152600401610ab29061199f565b60405180910390fd5b600960003373ffffffffffffffffffffffffffffffffffffffff1673ffffffffffffffffffffffffffffffffffffffff16815260200190815260200160002082604051610b089190611766565b908152602001604051809103902060009054906101000a900460ff1615610b64576040517f08c379a0000000000000000000000000000000000000000000000000000000008152600401610b5b90611a0b565b60405180910390fd5b6002811115610ba8576040517f08c379a0000000000000000000000000000000000000000000000000000000008152600401610b9f90611a9d565b60405180910390fd5b610bf0600883604051610bbb9190611766565b908152602001604051809103902060009054906101000a900473ffffffffffffffffffffffffffffffffffffffff1682611161565b610c02336702c68af0bb140000611161565b60065460076000600885604051610c199190611766565b908152602001604051809103902060009054906101000a900473ffffffffffffffffffffffffffffffffffffffff1673ffffffffffffffffffffffffffffffffffffffff1673ffffffffffffffffffffffffffffffffffffffff168152602001908152602001600020541115610d1e578160059081610c989190611c69565b5060076000600884604051610cad9190611766565b908152602001604051809103902060009054906101000a900473ffffffffffffffffffffffffffffffffffffffff1673ffffffffffffffffffffffffffffffffffffffff1673ffffffffffffffffffffffffffffffffffffffff168152602001908152602001600020546006819055505b6001600960003373ffffffffffffffffffffffffffffffffffffffff1673ffffffffffffffffffffffffffffffffffffffff16815260200190815260200160002083604051610d6d9190611766565b908152602001604051809103902060006101000a81548160ff02191690831515021790555081604051610da09190611766565b60405180910390203373ffffffffffffffffffffffffffffffffffffffff167f35b4034b2bbe10bb07b21969c986794a6276a531bb155886a9f883bb5c9dc8e883604051610dee9190611590565b60405180910390a35050565b80600760003373ffffffffffffffffffffffffffffffffffffffff1673ffffffffffffffffffffffffffffffffffffffff168152602001908152602001600020541015610e7c576040517f08c379a0000000000000000000000000000000000000000000000000000000008152600401610e7390611d87565b60405180910390fd5b80600760003373ffffffffffffffffffffffffffffffffffffffff1673ffffffffffffffffffffffffffffffffffffffff1681526020019081526020016000206000828254610ecb9190611dd6565b9250508190555080600760008473ffffffffffffffffffffffffffffffffffffffff1673ffffffffffffffffffffffffffffffffffffffff1681526020019081526020016000206000828254610f219190611e0a565b925050819055508173ffffffffffffffffffffffffffffffffffffffff163373ffffffffffffffffffffffffffffffffffffffff167fddf252ad1be2c89b69c2b068fc378daa952ba7f163c4a11628f55a4df523b3ef83604051610f859190611590565b60405180910390a35050565b60065481565b600360009054906101000a900473ffffffffffffffffffffffffffffffffffffffff1673ffffffffffffffffffffffffffffffffffffffff163373ffffffffffffffffffffffffffffffffffffffff1614806110405750600460009054906101000a900473ffffffffffffffffffffffffffffffffffffffff1673ffffffffffffffffffffffffffffffffffffffff163373ffffffffffffffffffffffffffffffffffffffff16145b61107f576040517f08c379a0000000000000000000000000000000000000000000000000000000008152600401611076906117ef565b60405180910390fd5b6110c76008836040516110929190611766565b908152602001604051809103902060009054906101000a900473ffffffffffffffffffffffffffffffffffffffff1682611161565b5050565b600033905090565b600580546110e0906116f9565b80601f016020809104026020016040519081016040528092919081815260200182805461110c906116f9565b80156111595780601f1061112e57610100808354040283529160200191611159565b820191906000526020600020905b81548152906001019060200180831161113c57829003601f168201915b505050505081565b600073ffffffffffffffffffffffffffffffffffffffff168273ffffffffffffffffffffffffffffffffffffffff16036111d0576040517f08c379a00000000000000000000000000000000000000000000000000000000081526004016111c790611e8a565b60405180910390fd5b80600760008473ffffffffffffffffffffffffffffffffffffffff1673ffffffffffffffffffffffffffffffffffffffff168152602001908152602001600020600082825461121f9190611e0a565b9250508190555080600260008282546112389190611e0a565b925050819055505050565b600081519050919050565b600082825260208201905092915050565b60005b8381101561127d578082015181840152602081019050611262565b60008484015250505050565b6000601f19601f8301169050919050565b60006112a582611243565b6112af818561124e565b93506112bf81856020860161125f565b6112c881611289565b840191505092915050565b600060208201905081810360008301526112ed818461129a565b905092915050565b6000604051905090565b600080fd5b600080fd5b600073ffffffffffffffffffffffffffffffffffffffff82169050919050565b600061133482611309565b9050919050565b61134481611329565b811461134f57600080fd5b50565b6000813590506113618161133b565b92915050565b600080fd5b600080fd5b7f4e487b7100000000000000000000000000000000000000000000000000000000600052604160045260246000fd5b6113a982611289565b810181811067ffffffffffffffff821117156113c8576113c7611371565b5b80604052505050565b60006113db6112f5565b90506113e782826113a0565b919050565b600067ffffffffffffffff82111561140757611406611371565b5b61141082611289565b9050602081019050919050565b82818337600083830152505050565b600061143f61143a846113ec565b6113d1565b90508281526020810184848401111561145b5761145a61136c565b5b61146684828561141d565b509392505050565b600082601f83011261148357611482611367565b5b813561149384826020860161142c565b91505092915050565b600080604083850312156114b3576114b26112ff565b5b60006114c185828601611352565b925050602083013567ffffffffffffffff8111156114e2576114e1611304565b5b6114ee8582860161146e565b9150509250929050565b60008115159050919050565b61150d816114f8565b82525050565b60006020820190506115286000830184611504565b92915050565b600060208284031215611544576115436112ff565b5b600082013567ffffffffffffffff81111561156257611561611304565b5b61156e8482850161146e565b91505092915050565b6000819050919050565b61158a81611577565b82525050565b60006020820190506115a56000830184611581565b92915050565b6115b481611329565b82525050565b60006020820190506115cf60008301846115ab565b92915050565b6000602082840312156115eb576115ea6112ff565b5b60006115f984828501611352565b91505092915050565b61160b81611577565b811461161657600080fd5b50565b60008135905061162881611602565b92915050565b60008060408385031215611645576116446112ff565b5b600083013567ffffffffffffffff81111561166357611662611304565b5b61166f8582860161146e565b925050602061168085828601611619565b9150509250929050565b600080604083850312156116a1576116a06112ff565b5b60006116af85828601611352565b92505060206116c085828601611619565b9150509250929050565b7f4e487b7100000000000000000000000000000000000000000000000000000000600052602260045260246000fd5b6000600282049050600182168061171157607f821691505b602082108103611724576117236116ca565b5b50919050565b600081905092915050565b600061174082611243565b61174a818561172a565b935061175a81856020860161125f565b80840191505092915050565b60006117728284611735565b915081905092915050565b7f5065726d697373616f206e65676164612c206170656e6173206f776e6572206f60008201527f7520612070726f666573736f7261210000000000000000000000000000000000602082015250565b60006117d9602f8361124e565b91506117e48261177d565b604082019050919050565b60006020820190508181036000830152611808816117cc565b9050919050565b7f566f74696e67206973206e6f7420616374697665000000000000000000000000600082015250565b600061184560148361124e565b91506118508261180f565b602082019050919050565b6000602082019050818103600083015261187481611838565b9050919050565b7f5573756172696f206e616f206578697374650000000000000000000000000000600082015250565b60006118b160128361124e565b91506118bc8261187b565b602082019050919050565b600060208201905081810360008301526118e0816118a4565b9050919050565b7f5573756172696f206e616f206175746f72697a61646f00000000000000000000600082015250565b600061191d60168361124e565b9150611928826118e7565b602082019050919050565b6000602082019050818103600083015261194c81611910565b9050919050565b7f4e616f20706f646520766f74617220656d207369206d65736d6f000000000000600082015250565b6000611989601a8361124e565b915061199482611953565b602082019050919050565b600060208201905081810360008301526119b88161197c565b9050919050565b7f566f6365206a6120766f746f75206e65737365207573756172696f0000000000600082015250565b60006119f5601b8361124e565b9150611a00826119bf565b602082019050919050565b60006020820190508181036000830152611a24816119e8565b9050919050565b7f5175616e74696461646520646520746f6b656e7320646520766f746f206d756960008201527f746f20616c746100000000000000000000000000000000000000000000000000602082015250565b6000611a8760278361124e565b9150611a9282611a2b565b604082019050919050565b60006020820190508181036000830152611ab681611a7a565b9050919050565b60008190508160005260206000209050919050565b60006020601f8301049050919050565b600082821b905092915050565b600060088302611b1f7fffffffffffffffffffffffffffffffffffffffffffffffffffffffffffffffff82611ae2565b611b298683611ae2565b95508019841693508086168417925050509392505050565b6000819050919050565b6000611b66611b61611b5c84611577565b611b41565b611577565b9050919050565b6000819050919050565b611b8083611b4b565b611b94611b8c82611b6d565b848454611aef565b825550505050565b600090565b611ba9611b9c565b611bb4818484611b77565b505050565b5b81811015611bd857611bcd600082611ba1565b600181019050611bba565b5050565b601f821115611c1d57611bee81611abd565b611bf784611ad2565b81016020851015611c06578190505b611c1a611c1285611ad2565b830182611bb9565b50505b505050565b600082821c905092915050565b6000611c4060001984600802611c22565b1980831691505092915050565b6000611c598383611c2f565b9150826002028217905092915050565b611c7282611243565b67ffffffffffffffff811115611c8b57611c8a611371565b5b611c9582546116f9565b611ca0828285611bdc565b600060209050601f831160018114611cd35760008415611cc1578287015190505b611ccb8582611c4d565b865550611d33565b601f198416611ce186611abd565b60005b82811015611d0957848901518255600182019150602085019450602081019050611ce4565b86831015611d265784890151611d22601f891682611c2f565b8355505b6001600288020188555050505b505050505050565b7f4e6f7420656e6f75676820746f6b656e73000000000000000000000000000000600082015250565b6000611d7160118361124e565b9150611d7c82611d3b565b602082019050919050565b60006020820190508181036000830152611da081611d64565b9050919050565b7f4e487b7100000000000000000000000000000000000000000000000000000000600052601160045260246000fd5b6000611de182611577565b9150611dec83611577565b9250828203905081811115611e0457611e03611da7565b5b92915050565b6000611e1582611577565b9150611e2083611577565b9250828201905080821115611e3857611e37611da7565b5b92915050565b7f4d696e7420746f20746865207a65726f20616464726573730000000000000000600082015250565b6000611e7460188361124e565b9150611e7f82611e3e565b602082019050919050565b60006020820190508181036000830152611ea381611e67565b905091905056fea26469706673582212202fc8700a94d71a9c030be58f3df35d7aff2ad20cc892d3c6580ab8183ddc00ba64736f6c634300081c0033",
  "linkReferences": {},
  "deployedLinkReferences": {}
}