{
  "_format": "hh-sol-artifact-1",
  "contractName": "Token",
  "sourceName": "contracts/Token.sol",
  "abi": [
    {
      "inputs": [],
      "stateMutability": "nonpayable",
      "type": "constructor"
    },
    {
      "anonymous": false,
      "inputs": [
        {
          "indexed": true,
          "internalType": "address",
          "name": "_from",
          "type": "address"
        },
        {
          "indexed": true,
          "internalType": "address",
          "name": "_to",
          "type": "address"
        },
        {
          "indexed": false,
          "internalType": "uint256",
          "name": "_value",
          "type": "uint256"
        }
      ],
      "name": "Transfer",
      "type": "event"
    },
    {
      "anonymous": false,
      "inputs": [
        {
          "indexed": true,
          "internalType": "address",
          "name": "voter",
          "type": "address"
        },
        {
          "indexed": false,
          "internalType": "string",
          "name": "codinome",
          "type": "string"
        },
        {
          "indexed": false,
          "internalType": "uint256",
          "name": "amount",
          "type": "uint256"
        }
      ],
      "name": "Voted",
      "type": "event"
    },
    {
      "inputs": [
        {
          "internalType": "string",
          "name": "codinome",
          "type": "string"
        }
      ],
      "name": "balanceByCodiname",
      "outputs": [
        {
          "internalType": "uint256",
          "name": "",
          "type": "uint256"
        }
      ],
      "stateMutability": "view",
      "type": "function"
    },
    {
      "inputs": [
        {
          "internalType": "address",
          "name": "userAddress",
          "type": "address"
        }
      ],
      "name": "balanceOf",
      "outputs": [
        {
          "internalType": "uint256",
          "name": "",
          "type": "uint256"
        }
      ],
      "stateMutability": "view",
      "type": "function"
    },
    {
      "inputs": [
        {
          "internalType": "string",
          "name": "codinome",
          "type": "string"
        },
        {
          "internalType": "uint256",
          "name": "sats",
          "type": "uint256"
        }
      ],
      "name": "issueToken",
      "outputs": [],
      "stateMutability": "nonpayable",
      "type": "function"
    },
    {
      "inputs": [],
      "name": "msgSender",
      "outputs": [
        {
          "internalType": "address",
          "name": "",
          "type": "address"
        }
      ],
      "stateMutability": "view",
      "type": "function"
    },
    {
      "inputs": [],
      "name": "name",
      "outputs": [
        {
          "internalType": "string",
          "name": "",
          "type": "string"
        }
      ],
      "stateMutability": "view",
      "type": "function"
    },
    {
      "inputs": [],
      "name": "owner",
      "outputs": [
        {
          "internalType": "address",
          "name": "",
          "type": "address"
        }
      ],
      "stateMutability": "view",
      "type": "function"
    },
    {
      "inputs": [],
      "name": "professora",
      "outputs": [
        {
          "internalType": "address",
          "name": "",
          "type": "address"
        }
      ],
      "stateMutability": "view",
      "type": "function"
    },
    {
      "inputs": [],
      "name": "symbol",
      "outputs": [
        {
          "internalType": "string",
          "name": "",
          "type": "string"
        }
      ],
      "stateMutability": "view",
      "type": "function"
    },
    {
      "inputs": [],
      "name": "totalSupply",
      "outputs": [
        {
          "internalType": "uint256",
          "name": "",
          "type": "uint256"
        }
      ],
      "stateMutability": "view",
      "type": "function"
    },
    {
      "inputs": [
        {
          "internalType": "address",
          "name": "userAddress",
          "type": "address"
        },
        {
          "internalType": "uint256",
          "name": "amount",
          "type": "uint256"
        }
      ],
      "name": "transfer",
      "outputs": [],
      "stateMutability": "nonpayable",
      "type": "function"
    },
    {
      "inputs": [
        {
          "internalType": "string",
          "name": "codinome",
          "type": "string"
        },
        {
          "internalType": "uint256",
          "name": "sats",
          "type": "uint256"
        }
      ],
      "name": "vote",
      "outputs": [],
      "stateMutability": "nonpayable",
      "type": "function"
    },
    {
      "inputs": [
        {
          "internalType": "address",
          "name": "",
          "type": "address"
        },
        {
          "internalType": "string",
          "name": "",
          "type": "string"
        }
      ],
      "name": "voted",
      "outputs": [
        {
          "internalType": "bool",
          "name": "",
          "type": "bool"
        }
      ],
      "stateMutability": "view",
      "type": "function"
    },
    {
      "inputs": [],
      "name": "votingActive",
      "outputs": [
        {
          "internalType": "bool",
          "name": "",
          "type": "bool"
        }
      ],
      "stateMutability": "view",
      "type": "function"
    },
    {
      "inputs": [],
      "name": "votingOff",
      "outputs": [],
      "stateMutability": "nonpayable",
      "type": "function"
    },
    {
      "inputs": [],
      "name": "votingOn",
      "outputs": [],
      "stateMutability": "nonpayable",
      "type": "function"
    }
  ],
  "bytecode": "0x60806040526040518060400160405280600681526020017f547572696e67000000000000000000000000000000000000000000000000000081525060009081610048919061086b565b506040518060400160405280600381526020017f54555200000000000000000000000000000000000000000000000000000000008152506001908161008d919061086b565b50600060025573502542668af09fa7aea52174b9965a7799343df7600460006101000a81548173ffffffffffffffffffffffffffffffffffffffff021916908373ffffffffffffffffffffffffffffffffffffffff1602179055506001600860006101000a81548160ff02191690831515021790555034801561010f57600080fd5b5033600360006101000a81548173ffffffffffffffffffffffffffffffffffffffff021916908373ffffffffffffffffffffffffffffffffffffffff16021790555073f39fd6e51aad88f6f4ce6ab8827279cfffb92266600660405161017490610994565b908152602001604051809103902060006101000a81548173ffffffffffffffffffffffffffffffffffffffff021916908373ffffffffffffffffffffffffffffffffffffffff1602179055507370997970c51812dc3a010c7d01b50e0d17dc79c860066040516101e3906109f5565b908152602001604051809103902060006101000a81548173ffffffffffffffffffffffffffffffffffffffff021916908373ffffffffffffffffffffffffffffffffffffffff160217905550733c44cdddb6a900fa2b585dd299e03d12fa4293bc600660405161025290610a56565b908152602001604051809103902060006101000a81548173ffffffffffffffffffffffffffffffffffffffff021916908373ffffffffffffffffffffffffffffffffffffffff1602179055507390f79bf6eb2c4f870365e785982e1f101e93b90660066040516102c190610ab7565b908152602001604051809103902060006101000a81548173ffffffffffffffffffffffffffffffffffffffff021916908373ffffffffffffffffffffffffffffffffffffffff1602179055507315d34aaf54267db7d7c367839aaf71a00a2c6a65600660405161033090610b18565b908152602001604051809103902060006101000a81548173ffffffffffffffffffffffffffffffffffffffff021916908373ffffffffffffffffffffffffffffffffffffffff160217905550739965507d1a55bcc2695c58ba16fb37d819b0a4dc600660405161039f90610b79565b908152602001604051809103902060006101000a81548173ffffffffffffffffffffffffffffffffffffffff021916908373ffffffffffffffffffffffffffffffffffffffff16021790555073976ea74026e726554db657fa54763abd0c3a0aa9600660405161040e90610bda565b908152602001604051809103902060006101000a81548173ffffffffffffffffffffffffffffffffffffffff021916908373ffffffffffffffffffffffffffffffffffffffff1602179055507314dc79964da2c08b23698b3d3cc7ca32193d9955600660405161047d90610c3b565b908152602001604051809103902060006101000a81548173ffffffffffffffffffffffffffffffffffffffff021916908373ffffffffffffffffffffffffffffffffffffffff1602179055507323618e81e3f5cdf7f54c3d65f7fbc0abf5b21e8f60066040516104ec90610c9c565b908152602001604051809103902060006101000a81548173ffffffffffffffffffffffffffffffffffffffff021916908373ffffffffffffffffffffffffffffffffffffffff16021790555073a0ee7a142d267c1f36714e4a8f75612f20a79720600660405161055b90610cfd565b908152602001604051809103902060006101000a81548173ffffffffffffffffffffffffffffffffffffffff021916908373ffffffffffffffffffffffffffffffffffffffff16021790555073bcd4042de499d14e55001ccbb24a551f3b95409660066040516105ca90610d5e565b908152602001604051809103902060006101000a81548173ffffffffffffffffffffffffffffffffffffffff021916908373ffffffffffffffffffffffffffffffffffffffff160217905550610d73565b600081519050919050565b7f4e487b7100000000000000000000000000000000000000000000000000000000600052604160045260246000fd5b7f4e487b7100000000000000000000000000000000000000000000000000000000600052602260045260246000fd5b6000600282049050600182168061069c57607f821691505b6020821081036106af576106ae610655565b5b50919050565b60008190508160005260206000209050919050565b60006020601f8301049050919050565b600082821b905092915050565b6000600883026107177fffffffffffffffffffffffffffffffffffffffffffffffffffffffffffffffff826106da565b61072186836106da565b95508019841693508086168417925050509392505050565b6000819050919050565b6000819050919050565b600061076861076361075e84610739565b610743565b610739565b9050919050565b6000819050919050565b6107828361074d565b61079661078e8261076f565b8484546106e7565b825550505050565b600090565b6107ab61079e565b6107b6818484610779565b505050565b5b818110156107da576107cf6000826107a3565b6001810190506107bc565b5050565b601f82111561081f576107f0816106b5565b6107f9846106ca565b81016020851015610808578190505b61081c610814856106ca565b8301826107bb565b50505b505050565b600082821c905092915050565b600061084260001984600802610824565b1980831691505092915050565b600061085b8383610831565b9150826002028217905092915050565b6108748261061b565b67ffffffffffffffff81111561088d5761088c610626565b5b6108978254610684565b6108a28282856107de565b600060209050601f8311600181146108d557600084156108c3578287015190505b6108cd858261084f565b865550610935565b601f1984166108e3866106b5565b60005b8281101561090b578489015182556001820191506020850194506020810190506108e6565b868310156109285784890151610924601f891682610831565b8355505b6001600288020188555050505b505050505050565b600081905092915050565b7f6e6f6d6530000000000000000000000000000000000000000000000000000000600082015250565b600061097e60058361093d565b915061098982610948565b600582019050919050565b600061099f82610971565b9150819050919050565b7f6e6f6d6531000000000000000000000000000000000000000000000000000000600082015250565b60006109df60058361093d565b91506109ea826109a9565b600582019050919050565b6000610a00826109d2565b9150819050919050565b7f6e6f6d6532000000000000000000000000000000000000000000000000000000600082015250565b6000610a4060058361093d565b9150610a4b82610a0a565b600582019050919050565b6000610a6182610a33565b9150819050919050565b7f6e6f6d6533000000000000000000000000000000000000000000000000000000600082015250565b6000610aa160058361093d565b9150610aac82610a6b565b600582019050919050565b6000610ac282610a94565b9150819050919050565b7f6e6f6d6534000000000000000000000000000000000000000000000000000000600082015250565b6000610b0260058361093d565b9150610b0d82610acc565b600582019050919050565b6000610b2382610af5565b9150819050919050565b7f6e6f6d6535000000000000000000000000000000000000000000000000000000600082015250565b6000610b6360058361093d565b9150610b6e82610b2d565b600582019050919050565b6000610b8482610b56565b9150819050919050565b7f6e6f6d6536000000000000000000000000000000000000000000000000000000600082015250565b6000610bc460058361093d565b9150610bcf82610b8e565b600582019050919050565b6000610be582610bb7565b9150819050919050565b7f6e6f6d6537000000000000000000000000000000000000000000000000000000600082015250565b6000610c2560058361093d565b9150610c3082610bef565b600582019050919050565b6000610c4682610c18565b9150819050919050565b7f6e6f6d6538000000000000000000000000000000000000000000000000000000600082015250565b6000610c8660058361093d565b9150610c9182610c50565b600582019050919050565b6000610ca782610c79565b9150819050919050565b7f6e6f6d6539000000000000000000000000000000000000000000000000000000600082015250565b6000610ce760058361093d565b9150610cf282610cb1565b600582019050919050565b6000610d0882610cda565b9150819050919050565b7f6e6f6d6531300000000000000000000000000000000000000000000000000000600082015250565b6000610d4860068361093d565b9150610d5382610d12565b600682019050919050565b6000610d6982610d3b565b9150819050919050565b611b5480610d826000396000f3fe608060405234801561001057600080fd5b50600436106100f55760003560e01c80636c66247a11610097578063a638580311610066578063a638580314610252578063a9059cbb1461026e578063c683e0f41461028a578063d737d0c7146102a6576100f5565b80636c66247a146101c857806370a08231146101e65780638da5cb5b1461021657806395d89b4114610234576100f5565b806318160ddd116100d357806318160ddd1461017857806320949bb414610196578063408e2727146101a057806360a3ae06146101be576100f5565b806306fdde03146100fa5780630a7e945614610118578063104956ba14610148575b600080fd5b6101026102c4565b60405161010f91906111bf565b60405180910390f35b610132600480360381019061012d9190611388565b610352565b60405161013f91906113ff565b60405180910390f35b610162600480360381019061015d919061141a565b610397565b60405161016f919061147c565b60405180910390f35b6101806104cd565b60405161018d919061147c565b60405180910390f35b61019e6104d3565b005b6101a86105d8565b6040516101b591906113ff565b60405180910390f35b6101c66105eb565b005b6101d06106f0565b6040516101dd91906114a6565b60405180910390f35b61020060048036038101906101fb91906114c1565b610716565b60405161020d919061147c565b60405180910390f35b61021e6107d0565b60405161022b91906114a6565b60405180910390f35b61023c6107f6565b60405161024991906111bf565b60405180910390f35b61026c6004803603810190610267919061151a565b610884565b005b61028860048036038101906102839190611576565b610cc5565b005b6102a4600480360381019061029f919061151a565b610e60565b005b6102ae611043565b6040516102bb91906114a6565b60405180910390f35b600080546102d1906115e5565b80601f01602080910402602001604051908101604052809291908181526020018280546102fd906115e5565b801561034a5780601f1061031f5761010080835404028352916020019161034a565b820191906000526020600020905b81548152906001019060200180831161032d57829003601f168201915b505050505081565b6007602052816000526040600020818051602081018201805184825260208301602085012081835280955050505050506000915091509054906101000a900460ff1681565b60006006826040516103a99190611652565b908152602001604051809103902060009054906101000a900473ffffffffffffffffffffffffffffffffffffffff16600073ffffffffffffffffffffffffffffffffffffffff168173ffffffffffffffffffffffffffffffffffffffff1603610447576040517f08c379a000000000000000000000000000000000000000000000000000000000815260040161043e906116b5565b60405180910390fd5b6005600060068560405161045b9190611652565b908152602001604051809103902060009054906101000a900473ffffffffffffffffffffffffffffffffffffffff1673ffffffffffffffffffffffffffffffffffffffff1673ffffffffffffffffffffffffffffffffffffffff16815260200190815260200160002054915050919050565b60025481565b600360009054906101000a900473ffffffffffffffffffffffffffffffffffffffff1673ffffffffffffffffffffffffffffffffffffffff163373ffffffffffffffffffffffffffffffffffffffff16148061057c5750600460009054906101000a900473ffffffffffffffffffffffffffffffffffffffff1673ffffffffffffffffffffffffffffffffffffffff163373ffffffffffffffffffffffffffffffffffffffff16145b6105bb576040517f08c379a00000000000000000000000000000000000000000000000000000000081526004016105b290611747565b60405180910390fd5b6001600860006101000a81548160ff021916908315150217905550565b600860009054906101000a900460ff1681565b600360009054906101000a900473ffffffffffffffffffffffffffffffffffffffff1673ffffffffffffffffffffffffffffffffffffffff163373ffffffffffffffffffffffffffffffffffffffff1614806106945750600460009054906101000a900473ffffffffffffffffffffffffffffffffffffffff1673ffffffffffffffffffffffffffffffffffffffff163373ffffffffffffffffffffffffffffffffffffffff16145b6106d3576040517f08c379a00000000000000000000000000000000000000000000000000000000081526004016106ca90611747565b60405180910390fd5b6000600860006101000a81548160ff021916908315150217905550565b600460009054906101000a900473ffffffffffffffffffffffffffffffffffffffff1681565b600081600073ffffffffffffffffffffffffffffffffffffffff168173ffffffffffffffffffffffffffffffffffffffff1603610788576040517f08c379a000000000000000000000000000000000000000000000000000000000815260040161077f906116b5565b60405180910390fd5b600560008473ffffffffffffffffffffffffffffffffffffffff1673ffffffffffffffffffffffffffffffffffffffff16815260200190815260200160002054915050919050565b600360009054906101000a900473ffffffffffffffffffffffffffffffffffffffff1681565b60018054610803906115e5565b80601f016020809104026020016040519081016040528092919081815260200182805461082f906115e5565b801561087c5780601f106108515761010080835404028352916020019161087c565b820191906000526020600020905b81548152906001019060200180831161085f57829003601f168201915b505050505081565b600073ffffffffffffffffffffffffffffffffffffffff163373ffffffffffffffffffffffffffffffffffffffff16036108f3576040517f08c379a00000000000000000000000000000000000000000000000000000000081526004016108ea906117b3565b60405180910390fd5b6006826040516109039190611652565b908152602001604051809103902060009054906101000a900473ffffffffffffffffffffffffffffffffffffffff16600073ffffffffffffffffffffffffffffffffffffffff168173ffffffffffffffffffffffffffffffffffffffff16036109a1576040517f08c379a0000000000000000000000000000000000000000000000000000000008152600401610998906116b5565b60405180910390fd5b826006816040516109b29190611652565b908152602001604051809103902060009054906101000a900473ffffffffffffffffffffffffffffffffffffffff1673ffffffffffffffffffffffffffffffffffffffff163373ffffffffffffffffffffffffffffffffffffffff1603610a4e576040517f08c379a0000000000000000000000000000000000000000000000000000000008152600401610a459061181f565b60405180910390fd5b600860009054906101000a900460ff16610a9d576040517f08c379a0000000000000000000000000000000000000000000000000000000008152600401610a949061188b565b60405180910390fd5b83600760003373ffffffffffffffffffffffffffffffffffffffff1673ffffffffffffffffffffffffffffffffffffffff16815260200190815260200160002081604051610aeb9190611652565b908152602001604051809103902060009054906101000a900460ff1615610b47576040517f08c379a0000000000000000000000000000000000000000000000000000000008152600401610b3e906118f7565b60405180910390fd5b836002811115610b8c576040517f08c379a0000000000000000000000000000000000000000000000000000000008152600401610b8390611989565b60405180910390fd5b610be7600687604051610b9f9190611652565b908152602001604051809103902060009054906101000a900473ffffffffffffffffffffffffffffffffffffffff16670de0b6b3a764000087610be291906119d8565b61104b565b610bf9336702c68af0bb14000061104b565b6001600760003373ffffffffffffffffffffffffffffffffffffffff1673ffffffffffffffffffffffffffffffffffffffff16815260200190815260200160002087604051610c489190611652565b908152602001604051809103902060006101000a81548160ff0219169083151502179055503373ffffffffffffffffffffffffffffffffffffffff167f35b4034b2bbe10bb07b21969c986794a6276a531bb155886a9f883bb5c9dc8e88787604051610cb5929190611a1a565b60405180910390a2505050505050565b818180600560008473ffffffffffffffffffffffffffffffffffffffff1673ffffffffffffffffffffffffffffffffffffffff168152602001908152602001600020541015610d49576040517f08c379a0000000000000000000000000000000000000000000000000000000008152600401610d4090611a96565b60405180910390fd5b82600560003373ffffffffffffffffffffffffffffffffffffffff1673ffffffffffffffffffffffffffffffffffffffff1681526020019081526020016000206000828254610d989190611ab6565b9250508190555082600560008673ffffffffffffffffffffffffffffffffffffffff1673ffffffffffffffffffffffffffffffffffffffff1681526020019081526020016000206000828254610dee9190611aea565b925050819055508373ffffffffffffffffffffffffffffffffffffffff163373ffffffffffffffffffffffffffffffffffffffff167fddf252ad1be2c89b69c2b068fc378daa952ba7f163c4a11628f55a4df523b3ef85604051610e52919061147c565b60405180910390a350505050565b600360009054906101000a900473ffffffffffffffffffffffffffffffffffffffff1673ffffffffffffffffffffffffffffffffffffffff163373ffffffffffffffffffffffffffffffffffffffff161480610f095750600460009054906101000a900473ffffffffffffffffffffffffffffffffffffffff1673ffffffffffffffffffffffffffffffffffffffff163373ffffffffffffffffffffffffffffffffffffffff16145b610f48576040517f08c379a0000000000000000000000000000000000000000000000000000000008152600401610f3f90611747565b60405180910390fd5b600682604051610f589190611652565b908152602001604051809103902060009054906101000a900473ffffffffffffffffffffffffffffffffffffffff16600073ffffffffffffffffffffffffffffffffffffffff168173ffffffffffffffffffffffffffffffffffffffff1603610ff6576040517f08c379a0000000000000000000000000000000000000000000000000000000008152600401610fed906116b5565b60405180910390fd5b61103e6006846040516110099190611652565b908152602001604051809103902060009054906101000a900473ffffffffffffffffffffffffffffffffffffffff168361104b565b505050565b600033905090565b81600073ffffffffffffffffffffffffffffffffffffffff168173ffffffffffffffffffffffffffffffffffffffff16036110bb576040517f08c379a00000000000000000000000000000000000000000000000000000000081526004016110b2906116b5565b60405180910390fd5b81600560008573ffffffffffffffffffffffffffffffffffffffff1673ffffffffffffffffffffffffffffffffffffffff168152602001908152602001600020600082825461110a9190611aea565b9250508190555081600260008282546111239190611aea565b92505081905550505050565b600081519050919050565b600082825260208201905092915050565b60005b8381101561116957808201518184015260208101905061114e565b60008484015250505050565b6000601f19601f8301169050919050565b60006111918261112f565b61119b818561113a565b93506111ab81856020860161114b565b6111b481611175565b840191505092915050565b600060208201905081810360008301526111d98184611186565b905092915050565b6000604051905090565b600080fd5b600080fd5b600073ffffffffffffffffffffffffffffffffffffffff82169050919050565b6000611220826111f5565b9050919050565b61123081611215565b811461123b57600080fd5b50565b60008135905061124d81611227565b92915050565b600080fd5b600080fd5b7f4e487b7100000000000000000000000000000000000000000000000000000000600052604160045260246000fd5b61129582611175565b810181811067ffffffffffffffff821117156112b4576112b361125d565b5b80604052505050565b60006112c76111e1565b90506112d3828261128c565b919050565b600067ffffffffffffffff8211156112f3576112f261125d565b5b6112fc82611175565b9050602081019050919050565b82818337600083830152505050565b600061132b611326846112d8565b6112bd565b90508281526020810184848401111561134757611346611258565b5b611352848285611309565b509392505050565b600082601f83011261136f5761136e611253565b5b813561137f848260208601611318565b91505092915050565b6000806040838503121561139f5761139e6111eb565b5b60006113ad8582860161123e565b925050602083013567ffffffffffffffff8111156113ce576113cd6111f0565b5b6113da8582860161135a565b9150509250929050565b60008115159050919050565b6113f9816113e4565b82525050565b600060208201905061141460008301846113f0565b92915050565b6000602082840312156114305761142f6111eb565b5b600082013567ffffffffffffffff81111561144e5761144d6111f0565b5b61145a8482850161135a565b91505092915050565b6000819050919050565b61147681611463565b82525050565b6000602082019050611491600083018461146d565b92915050565b6114a081611215565b82525050565b60006020820190506114bb6000830184611497565b92915050565b6000602082840312156114d7576114d66111eb565b5b60006114e58482850161123e565b91505092915050565b6114f781611463565b811461150257600080fd5b50565b600081359050611514816114ee565b92915050565b60008060408385031215611531576115306111eb565b5b600083013567ffffffffffffffff81111561154f5761154e6111f0565b5b61155b8582860161135a565b925050602061156c85828601611505565b9150509250929050565b6000806040838503121561158d5761158c6111eb565b5b600061159b8582860161123e565b92505060206115ac85828601611505565b9150509250929050565b7f4e487b7100000000000000000000000000000000000000000000000000000000600052602260045260246000fd5b600060028204905060018216806115fd57607f821691505b6020821081036116105761160f6115b6565b5b50919050565b600081905092915050565b600061162c8261112f565b6116368185611616565b935061164681856020860161114b565b80840191505092915050565b600061165e8284611621565b915081905092915050565b7f44657374696e61746172696f206e616f206175746f72697a61646f0000000000600082015250565b600061169f601b8361113a565b91506116aa82611669565b602082019050919050565b600060208201905081810360008301526116ce81611692565b9050919050565b7f5065726d697373616f206e65676164612c206170656e6173206f776e6572206f60008201527f7520612070726f666573736f7261210000000000000000000000000000000000602082015250565b6000611731602f8361113a565b915061173c826116d5565b604082019050919050565b6000602082019050818103600083015261176081611724565b9050919050565b7f52656d6574656e7465206e616f206175746f72697a61646f0000000000000000600082015250565b600061179d60188361113a565b91506117a882611767565b602082019050919050565b600060208201905081810360008301526117cc81611790565b9050919050565b7f4e616f20706f646520766f74617220656d207369206d65736d6f000000000000600082015250565b6000611809601a8361113a565b9150611814826117d3565b602082019050919050565b60006020820190508181036000830152611838816117fc565b9050919050565b7f566f74696e67206973206e6f7420616374697665000000000000000000000000600082015250565b600061187560148361113a565b91506118808261183f565b602082019050919050565b600060208201905081810360008301526118a481611868565b9050919050565b7f566f6365206a6120766f746f75206e65737365207573756172696f0000000000600082015250565b60006118e1601b8361113a565b91506118ec826118ab565b602082019050919050565b60006020820190508181036000830152611910816118d4565b9050919050565b7f5175616e74696461646520646520746f6b656e7320646520766f746f206d756960008201527f746f20616c746100000000000000000000000000000000000000000000000000602082015250565b600061197360278361113a565b915061197e82611917565b604082019050919050565b600060208201905081810360008301526119a281611966565b9050919050565b7f4e487b7100000000000000000000000000000000000000000000000000000000600052601160045260246000fd5b60006119e382611463565b91506119ee83611463565b92508282026119fc81611463565b91508282048414831517611a1357611a126119a9565b5b5092915050565b60006040820190508181036000830152611a348185611186565b9050611a43602083018461146d565b9392505050565b7f4e6f7420656e6f75676820746f6b656e73000000000000000000000000000000600082015250565b6000611a8060118361113a565b9150611a8b82611a4a565b602082019050919050565b60006020820190508181036000830152611aaf81611a73565b9050919050565b6000611ac182611463565b9150611acc83611463565b9250828203905081811115611ae457611ae36119a9565b5b92915050565b6000611af582611463565b9150611b0083611463565b9250828201905080821115611b1857611b176119a9565b5b9291505056fea26469706673582212201197326731a151e05d15158de9fa2ebd5d9de3245fa410791662ed82e2ad0d1c64736f6c634300081c0033",
  "linkReferences": {},
  "deployedLinkReferences": {}
}