{
  "_format": "hh-sol-artifact-1",
  "contractName": "Token",
  "sourceName": "contracts/Token.sol",
  "abi": [
    {
      "inputs": [],
      "stateMutability": "nonpayable",
      "type": "constructor"
    },
    {
      "anonymous": false,
      "inputs": [
        {
          "indexed": true,
          "internalType": "address",
          "name": "_from",
          "type": "address"
        },
        {
          "indexed": true,
          "internalType": "address",
          "name": "_to",
          "type": "address"
        },
        {
          "indexed": false,
          "internalType": "uint256",
          "name": "_value",
          "type": "uint256"
        }
      ],
      "name": "Transfer",
      "type": "event"
    },
    {
      "anonymous": false,
      "inputs": [
        {
          "indexed": true,
          "internalType": "address",
          "name": "voter",
          "type": "address"
        },
        {
          "indexed": false,
          "internalType": "string",
          "name": "codinome",
          "type": "string"
        },
        {
          "indexed": false,
          "internalType": "uint256",
          "name": "amount",
          "type": "uint256"
        }
      ],
      "name": "Voted",
      "type": "event"
    },
    {
      "inputs": [
        {
          "internalType": "string",
          "name": "codinome",
          "type": "string"
        }
      ],
      "name": "balanceByCodiname",
      "outputs": [
        {
          "internalType": "uint256",
          "name": "",
          "type": "uint256"
        }
      ],
      "stateMutability": "view",
      "type": "function"
    },
    {
      "inputs": [
        {
          "internalType": "address",
          "name": "userAddress",
          "type": "address"
        }
      ],
      "name": "balanceOf",
      "outputs": [
        {
          "internalType": "uint256",
          "name": "",
          "type": "uint256"
        }
      ],
      "stateMutability": "view",
      "type": "function"
    },
    {
      "inputs": [],
      "name": "getAllBalances",
      "outputs": [
        {
          "internalType": "string[]",
          "name": "",
          "type": "string[]"
        },
        {
          "internalType": "uint256[]",
          "name": "",
          "type": "uint256[]"
        }
      ],
      "stateMutability": "view",
      "type": "function"
    },
    {
      "inputs": [
        {
          "internalType": "string",
          "name": "codinome",
          "type": "string"
        },
        {
          "internalType": "uint256",
          "name": "sats",
          "type": "uint256"
        }
      ],
      "name": "issueToken",
      "outputs": [],
      "stateMutability": "nonpayable",
      "type": "function"
    },
    {
      "inputs": [],
      "name": "msgSender",
      "outputs": [
        {
          "internalType": "address",
          "name": "",
          "type": "address"
        }
      ],
      "stateMutability": "view",
      "type": "function"
    },
    {
      "inputs": [],
      "name": "name",
      "outputs": [
        {
          "internalType": "string",
          "name": "",
          "type": "string"
        }
      ],
      "stateMutability": "view",
      "type": "function"
    },
    {
      "inputs": [],
      "name": "owner",
      "outputs": [
        {
          "internalType": "address",
          "name": "",
          "type": "address"
        }
      ],
      "stateMutability": "view",
      "type": "function"
    },
    {
      "inputs": [],
      "name": "professora",
      "outputs": [
        {
          "internalType": "address",
          "name": "",
          "type": "address"
        }
      ],
      "stateMutability": "view",
      "type": "function"
    },
    {
      "inputs": [],
      "name": "symbol",
      "outputs": [
        {
          "internalType": "string",
          "name": "",
          "type": "string"
        }
      ],
      "stateMutability": "view",
      "type": "function"
    },
    {
      "inputs": [],
      "name": "totalSupply",
      "outputs": [
        {
          "internalType": "uint256",
          "name": "",
          "type": "uint256"
        }
      ],
      "stateMutability": "view",
      "type": "function"
    },
    {
      "inputs": [
        {
          "internalType": "address",
          "name": "userAddress",
          "type": "address"
        },
        {
          "internalType": "uint256",
          "name": "amount",
          "type": "uint256"
        }
      ],
      "name": "transfer",
      "outputs": [],
      "stateMutability": "nonpayable",
      "type": "function"
    },
    {
      "inputs": [
        {
          "internalType": "string",
          "name": "codinome",
          "type": "string"
        },
        {
          "internalType": "uint256",
          "name": "sats",
          "type": "uint256"
        }
      ],
      "name": "vote",
      "outputs": [],
      "stateMutability": "nonpayable",
      "type": "function"
    },
    {
      "inputs": [
        {
          "internalType": "address",
          "name": "",
          "type": "address"
        },
        {
          "internalType": "string",
          "name": "",
          "type": "string"
        }
      ],
      "name": "voted",
      "outputs": [
        {
          "internalType": "bool",
          "name": "",
          "type": "bool"
        }
      ],
      "stateMutability": "view",
      "type": "function"
    },
    {
      "inputs": [],
      "name": "votingActive",
      "outputs": [
        {
          "internalType": "bool",
          "name": "",
          "type": "bool"
        }
      ],
      "stateMutability": "view",
      "type": "function"
    },
    {
      "inputs": [],
      "name": "votingOff",
      "outputs": [],
      "stateMutability": "nonpayable",
      "type": "function"
    },
    {
      "inputs": [],
      "name": "votingOn",
      "outputs": [],
      "stateMutability": "nonpayable",
      "type": "function"
    }
  ],
  "bytecode": "0x60806040526040518060400160405280600681526020017f547572696e670000000000000000000000000000000000000000000000000000815250600090816100489190610de5565b506040518060400160405280600381526020017f54555200000000000000000000000000000000000000000000000000000000008152506001908161008d9190610de5565b50600060025573502542668af09fa7aea52174b9965a7799343df7600460006101000a81548173ffffffffffffffffffffffffffffffffffffffff021916908373ffffffffffffffffffffffffffffffffffffffff1602179055506001600860006101000a81548160ff021916908315150217905550600b60095560095467ffffffffffffffff81111561012457610123610ba0565b5b60405190808252806020026020018201604052801561015757816020015b60608152602001906001900390816101425790505b50600a908051906020019061016d929190610abb565b5034801561017a57600080fd5b5033600360006101000a81548173ffffffffffffffffffffffffffffffffffffffff021916908373ffffffffffffffffffffffffffffffffffffffff16021790555073f39fd6e51aad88f6f4ce6ab8827279cfffb9226660066040516101df90610f0e565b908152602001604051809103902060006101000a81548173ffffffffffffffffffffffffffffffffffffffff021916908373ffffffffffffffffffffffffffffffffffffffff1602179055507370997970c51812dc3a010c7d01b50e0d17dc79c8600660405161024e90610f6f565b908152602001604051809103902060006101000a81548173ffffffffffffffffffffffffffffffffffffffff021916908373ffffffffffffffffffffffffffffffffffffffff160217905550733c44cdddb6a900fa2b585dd299e03d12fa4293bc60066040516102bd90610fd0565b908152602001604051809103902060006101000a81548173ffffffffffffffffffffffffffffffffffffffff021916908373ffffffffffffffffffffffffffffffffffffffff1602179055507390f79bf6eb2c4f870365e785982e1f101e93b906600660405161032c90611031565b908152602001604051809103902060006101000a81548173ffffffffffffffffffffffffffffffffffffffff021916908373ffffffffffffffffffffffffffffffffffffffff1602179055507315d34aaf54267db7d7c367839aaf71a00a2c6a65600660405161039b90611092565b908152602001604051809103902060006101000a81548173ffffffffffffffffffffffffffffffffffffffff021916908373ffffffffffffffffffffffffffffffffffffffff160217905550739965507d1a55bcc2695c58ba16fb37d819b0a4dc600660405161040a906110f3565b908152602001604051809103902060006101000a81548173ffffffffffffffffffffffffffffffffffffffff021916908373ffffffffffffffffffffffffffffffffffffffff16021790555073976ea74026e726554db657fa54763abd0c3a0aa9600660405161047990611154565b908152602001604051809103902060006101000a81548173ffffffffffffffffffffffffffffffffffffffff021916908373ffffffffffffffffffffffffffffffffffffffff1602179055507314dc79964da2c08b23698b3d3cc7ca32193d995560066040516104e8906111b5565b908152602001604051809103902060006101000a81548173ffffffffffffffffffffffffffffffffffffffff021916908373ffffffffffffffffffffffffffffffffffffffff1602179055507323618e81e3f5cdf7f54c3d65f7fbc0abf5b21e8f600660405161055790611216565b908152602001604051809103902060006101000a81548173ffffffffffffffffffffffffffffffffffffffff021916908373ffffffffffffffffffffffffffffffffffffffff16021790555073a0ee7a142d267c1f36714e4a8f75612f20a7972060066040516105c690611277565b908152602001604051809103902060006101000a81548173ffffffffffffffffffffffffffffffffffffffff021916908373ffffffffffffffffffffffffffffffffffffffff16021790555073bcd4042de499d14e55001ccbb24a551f3b9540966006604051610635906112d8565b908152602001604051809103902060006101000a81548173ffffffffffffffffffffffffffffffffffffffff021916908373ffffffffffffffffffffffffffffffffffffffff1602179055506040518060400160405280600581526020017f6e6f6d6530000000000000000000000000000000000000000000000000000000815250600a6000815481106106cc576106cb6112ed565b5b9060005260206000200190816106e29190610de5565b506040518060400160405280600581526020017f6e6f6d6531000000000000000000000000000000000000000000000000000000815250600a60018154811061072e5761072d6112ed565b5b9060005260206000200190816107449190610de5565b506040518060400160405280600581526020017f6e6f6d6532000000000000000000000000000000000000000000000000000000815250600a6002815481106107905761078f6112ed565b5b9060005260206000200190816107a69190610de5565b506040518060400160405280600581526020017f6e6f6d6533000000000000000000000000000000000000000000000000000000815250600a6003815481106107f2576107f16112ed565b5b9060005260206000200190816108089190610de5565b506040518060400160405280600581526020017f6e6f6d6534000000000000000000000000000000000000000000000000000000815250600a600481548110610854576108536112ed565b5b90600052602060002001908161086a9190610de5565b506040518060400160405280600581526020017f6e6f6d6535000000000000000000000000000000000000000000000000000000815250600a6005815481106108b6576108b56112ed565b5b9060005260206000200190816108cc9190610de5565b506040518060400160405280600581526020017f6e6f6d6536000000000000000000000000000000000000000000000000000000815250600a600681548110610918576109176112ed565b5b90600052602060002001908161092e9190610de5565b506040518060400160405280600581526020017f6e6f6d6537000000000000000000000000000000000000000000000000000000815250600a60078154811061097a576109796112ed565b5b9060005260206000200190816109909190610de5565b506040518060400160405280600581526020017f6e6f6d6538000000000000000000000000000000000000000000000000000000815250600a6008815481106109dc576109db6112ed565b5b9060005260206000200190816109f29190610de5565b506040518060400160405280600581526020017f6e6f6d6539000000000000000000000000000000000000000000000000000000815250600a600981548110610a3e57610a3d6112ed565b5b906000526020600020019081610a549190610de5565b506040518060400160405280600681526020017f6e6f6d6531300000000000000000000000000000000000000000000000000000815250600a8081548110610a9f57610a9e6112ed565b5b906000526020600020019081610ab59190610de5565b5061131c565b828054828255906000526020600020908101928215610b03579160200282015b82811115610b02578251829081610af29190610de5565b5091602001919060010190610adb565b5b509050610b109190610b14565b5090565b5b80821115610b345760008181610b2b9190610b38565b50600101610b15565b5090565b508054610b4490610bfe565b6000825580601f10610b565750610b75565b601f016020900490600052602060002090810190610b749190610b78565b5b50565b5b80821115610b91576000816000905550600101610b79565b5090565b600081519050919050565b7f4e487b7100000000000000000000000000000000000000000000000000000000600052604160045260246000fd5b7f4e487b7100000000000000000000000000000000000000000000000000000000600052602260045260246000fd5b60006002820490506001821680610c1657607f821691505b602082108103610c2957610c28610bcf565b5b50919050565b60008190508160005260206000209050919050565b60006020601f8301049050919050565b600082821b905092915050565b600060088302610c917fffffffffffffffffffffffffffffffffffffffffffffffffffffffffffffffff82610c54565b610c9b8683610c54565b95508019841693508086168417925050509392505050565b6000819050919050565b6000819050919050565b6000610ce2610cdd610cd884610cb3565b610cbd565b610cb3565b9050919050565b6000819050919050565b610cfc83610cc7565b610d10610d0882610ce9565b848454610c61565b825550505050565b600090565b610d25610d18565b610d30818484610cf3565b505050565b5b81811015610d5457610d49600082610d1d565b600181019050610d36565b5050565b601f821115610d9957610d6a81610c2f565b610d7384610c44565b81016020851015610d82578190505b610d96610d8e85610c44565b830182610d35565b50505b505050565b600082821c905092915050565b6000610dbc60001984600802610d9e565b1980831691505092915050565b6000610dd58383610dab565b9150826002028217905092915050565b610dee82610b95565b67ffffffffffffffff811115610e0757610e06610ba0565b5b610e118254610bfe565b610e1c828285610d58565b600060209050601f831160018114610e4f5760008415610e3d578287015190505b610e478582610dc9565b865550610eaf565b601f198416610e5d86610c2f565b60005b82811015610e8557848901518255600182019150602085019450602081019050610e60565b86831015610ea25784890151610e9e601f891682610dab565b8355505b6001600288020188555050505b505050505050565b600081905092915050565b7f6e6f6d6530000000000000000000000000000000000000000000000000000000600082015250565b6000610ef8600583610eb7565b9150610f0382610ec2565b600582019050919050565b6000610f1982610eeb565b9150819050919050565b7f6e6f6d6531000000000000000000000000000000000000000000000000000000600082015250565b6000610f59600583610eb7565b9150610f6482610f23565b600582019050919050565b6000610f7a82610f4c565b9150819050919050565b7f6e6f6d6532000000000000000000000000000000000000000000000000000000600082015250565b6000610fba600583610eb7565b9150610fc582610f84565b600582019050919050565b6000610fdb82610fad565b9150819050919050565b7f6e6f6d6533000000000000000000000000000000000000000000000000000000600082015250565b600061101b600583610eb7565b915061102682610fe5565b600582019050919050565b600061103c8261100e565b9150819050919050565b7f6e6f6d6534000000000000000000000000000000000000000000000000000000600082015250565b600061107c600583610eb7565b915061108782611046565b600582019050919050565b600061109d8261106f565b9150819050919050565b7f6e6f6d6535000000000000000000000000000000000000000000000000000000600082015250565b60006110dd600583610eb7565b91506110e8826110a7565b600582019050919050565b60006110fe826110d0565b9150819050919050565b7f6e6f6d6536000000000000000000000000000000000000000000000000000000600082015250565b600061113e600583610eb7565b915061114982611108565b600582019050919050565b600061115f82611131565b9150819050919050565b7f6e6f6d6537000000000000000000000000000000000000000000000000000000600082015250565b600061119f600583610eb7565b91506111aa82611169565b600582019050919050565b60006111c082611192565b9150819050919050565b7f6e6f6d6538000000000000000000000000000000000000000000000000000000600082015250565b6000611200600583610eb7565b915061120b826111ca565b600582019050919050565b6000611221826111f3565b9150819050919050565b7f6e6f6d6539000000000000000000000000000000000000000000000000000000600082015250565b6000611261600583610eb7565b915061126c8261122b565b600582019050919050565b600061128282611254565b9150819050919050565b7f6e6f6d6531300000000000000000000000000000000000000000000000000000600082015250565b60006112c2600683610eb7565b91506112cd8261128c565b600682019050919050565b60006112e3826112b5565b9150819050919050565b7f4e487b7100000000000000000000000000000000000000000000000000000000600052603260045260246000fd5b6120b88061132b6000396000f3fe608060405234801561001057600080fd5b50600436106101005760003560e01c806370a0823111610097578063a638580311610066578063a63858031461027c578063a9059cbb14610298578063c683e0f4146102b4578063d737d0c7146102d057610100565b806370a08231146101f1578063867e7c27146102215780638da5cb5b1461024057806395d89b411461025e57610100565b806320949bb4116100d357806320949bb4146101a1578063408e2727146101ab57806360a3ae06146101c95780636c66247a146101d357610100565b806306fdde03146101055780630a7e945614610123578063104956ba1461015357806318160ddd14610183575b600080fd5b61010d6102ee565b60405161011a9190611486565b60405180910390f35b61013d6004803603810190610138919061164f565b61037c565b60405161014a91906116c6565b60405180910390f35b61016d600480360381019061016891906116e1565b6103c1565b60405161017a9190611743565b60405180910390f35b61018b6104f7565b6040516101989190611743565b60405180910390f35b6101a96104fd565b005b6101b3610602565b6040516101c091906116c6565b60405180910390f35b6101d1610615565b005b6101db61071a565b6040516101e8919061176d565b60405180910390f35b61020b60048036038101906102069190611788565b610740565b6040516102189190611743565b60405180910390f35b6102296107fa565b60405161023792919061197f565b60405180910390f35b610248610aa3565b604051610255919061176d565b60405180910390f35b610266610ac9565b6040516102739190611486565b60405180910390f35b610296600480360381019061029191906119e2565b610b57565b005b6102b260048036038101906102ad9190611a3e565b610f8c565b005b6102ce60048036038101906102c991906119e2565b611127565b005b6102d861130a565b6040516102e5919061176d565b60405180910390f35b600080546102fb90611aad565b80601f016020809104026020016040519081016040528092919081815260200182805461032790611aad565b80156103745780601f1061034957610100808354040283529160200191610374565b820191906000526020600020905b81548152906001019060200180831161035757829003601f168201915b505050505081565b6007602052816000526040600020818051602081018201805184825260208301602085012081835280955050505050506000915091509054906101000a900460ff1681565b60006006826040516103d39190611b1a565b908152602001604051809103902060009054906101000a900473ffffffffffffffffffffffffffffffffffffffff16600073ffffffffffffffffffffffffffffffffffffffff168173ffffffffffffffffffffffffffffffffffffffff1603610471576040517f08c379a000000000000000000000000000000000000000000000000000000000815260040161046890611b7d565b60405180910390fd5b600560006006856040516104859190611b1a565b908152602001604051809103902060009054906101000a900473ffffffffffffffffffffffffffffffffffffffff1673ffffffffffffffffffffffffffffffffffffffff1673ffffffffffffffffffffffffffffffffffffffff16815260200190815260200160002054915050919050565b60025481565b600360009054906101000a900473ffffffffffffffffffffffffffffffffffffffff1673ffffffffffffffffffffffffffffffffffffffff163373ffffffffffffffffffffffffffffffffffffffff1614806105a65750600460009054906101000a900473ffffffffffffffffffffffffffffffffffffffff1673ffffffffffffffffffffffffffffffffffffffff163373ffffffffffffffffffffffffffffffffffffffff16145b6105e5576040517f08c379a00000000000000000000000000000000000000000000000000000000081526004016105dc90611c0f565b60405180910390fd5b6001600860006101000a81548160ff021916908315150217905550565b600860009054906101000a900460ff1681565b600360009054906101000a900473ffffffffffffffffffffffffffffffffffffffff1673ffffffffffffffffffffffffffffffffffffffff163373ffffffffffffffffffffffffffffffffffffffff1614806106be5750600460009054906101000a900473ffffffffffffffffffffffffffffffffffffffff1673ffffffffffffffffffffffffffffffffffffffff163373ffffffffffffffffffffffffffffffffffffffff16145b6106fd576040517f08c379a00000000000000000000000000000000000000000000000000000000081526004016106f490611c0f565b60405180910390fd5b6000600860006101000a81548160ff021916908315150217905550565b600460009054906101000a900473ffffffffffffffffffffffffffffffffffffffff1681565b600081600073ffffffffffffffffffffffffffffffffffffffff168173ffffffffffffffffffffffffffffffffffffffff16036107b2576040517f08c379a00000000000000000000000000000000000000000000000000000000081526004016107a990611b7d565b60405180910390fd5b600560008473ffffffffffffffffffffffffffffffffffffffff1673ffffffffffffffffffffffffffffffffffffffff16815260200190815260200160002054915050919050565b606080600060095467ffffffffffffffff81111561081b5761081a611524565b5b6040519080825280602002602001820160405280156108495781602001602082028036833780820191505090505b509050600560006006600a60008154811061086757610866611c2f565b5b9060005260206000200160405161087e9190611cf6565b908152602001604051809103902060009054906101000a900473ffffffffffffffffffffffffffffffffffffffff1673ffffffffffffffffffffffffffffffffffffffff1673ffffffffffffffffffffffffffffffffffffffff16815260200190815260200160002054816000815181106108fc576108fb611c2f565b5b602002602001018181525050600560006006600a60018154811061092357610922611c2f565b5b9060005260206000200160405161093a9190611cf6565b908152602001604051809103902060009054906101000a900473ffffffffffffffffffffffffffffffffffffffff1673ffffffffffffffffffffffffffffffffffffffff1673ffffffffffffffffffffffffffffffffffffffff16815260200190815260200160002054816001815181106109b8576109b7611c2f565b5b602002602001018181525050600a8181805480602002602001604051908101604052809291908181526020016000905b82821015610a94578382906000526020600020018054610a0790611aad565b80601f0160208091040260200160405190810160405280929190818152602001828054610a3390611aad565b8015610a805780601f10610a5557610100808354040283529160200191610a80565b820191906000526020600020905b815481529060010190602001808311610a6357829003601f168201915b5050505050815260200190600101906109e8565b50505050915092509250509091565b600360009054906101000a900473ffffffffffffffffffffffffffffffffffffffff1681565b60018054610ad690611aad565b80601f0160208091040260200160405190810160405280929190818152602001828054610b0290611aad565b8015610b4f5780601f10610b2457610100808354040283529160200191610b4f565b820191906000526020600020905b815481529060010190602001808311610b3257829003601f168201915b505050505081565b600073ffffffffffffffffffffffffffffffffffffffff163373ffffffffffffffffffffffffffffffffffffffff1603610bc6576040517f08c379a0000000000000000000000000000000000000000000000000000000008152600401610bbd90611d59565b60405180910390fd5b600682604051610bd69190611b1a565b908152602001604051809103902060009054906101000a900473ffffffffffffffffffffffffffffffffffffffff16600073ffffffffffffffffffffffffffffffffffffffff168173ffffffffffffffffffffffffffffffffffffffff1603610c74576040517f08c379a0000000000000000000000000000000000000000000000000000000008152600401610c6b90611b7d565b60405180910390fd5b82600681604051610c859190611b1a565b908152602001604051809103902060009054906101000a900473ffffffffffffffffffffffffffffffffffffffff1673ffffffffffffffffffffffffffffffffffffffff163373ffffffffffffffffffffffffffffffffffffffff1603610d21576040517f08c379a0000000000000000000000000000000000000000000000000000000008152600401610d1890611dc5565b60405180910390fd5b600860009054906101000a900460ff16610d70576040517f08c379a0000000000000000000000000000000000000000000000000000000008152600401610d6790611e31565b60405180910390fd5b83600760003373ffffffffffffffffffffffffffffffffffffffff1673ffffffffffffffffffffffffffffffffffffffff16815260200190815260200160002081604051610dbe9190611b1a565b908152602001604051809103902060009054906101000a900460ff1615610e1a576040517f08c379a0000000000000000000000000000000000000000000000000000000008152600401610e1190611e9d565b60405180910390fd5b83671bc16d674ec80000811115610e66576040517f08c379a0000000000000000000000000000000000000000000000000000000008152600401610e5d90611f2f565b60405180910390fd5b610eae600687604051610e799190611b1a565b908152602001604051809103902060009054906101000a900473ffffffffffffffffffffffffffffffffffffffff1686611312565b610ec0336702c68af0bb140000611312565b6001600760003373ffffffffffffffffffffffffffffffffffffffff1673ffffffffffffffffffffffffffffffffffffffff16815260200190815260200160002087604051610f0f9190611b1a565b908152602001604051809103902060006101000a81548160ff0219169083151502179055503373ffffffffffffffffffffffffffffffffffffffff167f35b4034b2bbe10bb07b21969c986794a6276a531bb155886a9f883bb5c9dc8e88787604051610f7c929190611f4f565b60405180910390a2505050505050565b818180600560008473ffffffffffffffffffffffffffffffffffffffff1673ffffffffffffffffffffffffffffffffffffffff168152602001908152602001600020541015611010576040517f08c379a000000000000000000000000000000000000000000000000000000000815260040161100790611fcb565b60405180910390fd5b82600560003373ffffffffffffffffffffffffffffffffffffffff1673ffffffffffffffffffffffffffffffffffffffff168152602001908152602001600020600082825461105f919061201a565b9250508190555082600560008673ffffffffffffffffffffffffffffffffffffffff1673ffffffffffffffffffffffffffffffffffffffff16815260200190815260200160002060008282546110b5919061204e565b925050819055508373ffffffffffffffffffffffffffffffffffffffff163373ffffffffffffffffffffffffffffffffffffffff167fddf252ad1be2c89b69c2b068fc378daa952ba7f163c4a11628f55a4df523b3ef856040516111199190611743565b60405180910390a350505050565b600360009054906101000a900473ffffffffffffffffffffffffffffffffffffffff1673ffffffffffffffffffffffffffffffffffffffff163373ffffffffffffffffffffffffffffffffffffffff1614806111d05750600460009054906101000a900473ffffffffffffffffffffffffffffffffffffffff1673ffffffffffffffffffffffffffffffffffffffff163373ffffffffffffffffffffffffffffffffffffffff16145b61120f576040517f08c379a000000000000000000000000000000000000000000000000000000000815260040161120690611c0f565b60405180910390fd5b60068260405161121f9190611b1a565b908152602001604051809103902060009054906101000a900473ffffffffffffffffffffffffffffffffffffffff16600073ffffffffffffffffffffffffffffffffffffffff168173ffffffffffffffffffffffffffffffffffffffff16036112bd576040517f08c379a00000000000000000000000000000000000000000000000000000000081526004016112b490611b7d565b60405180910390fd5b6113056006846040516112d09190611b1a565b908152602001604051809103902060009054906101000a900473ffffffffffffffffffffffffffffffffffffffff1683611312565b505050565b600033905090565b81600073ffffffffffffffffffffffffffffffffffffffff168173ffffffffffffffffffffffffffffffffffffffff1603611382576040517f08c379a000000000000000000000000000000000000000000000000000000000815260040161137990611b7d565b60405180910390fd5b81600560008573ffffffffffffffffffffffffffffffffffffffff1673ffffffffffffffffffffffffffffffffffffffff16815260200190815260200160002060008282546113d1919061204e565b9250508190555081600260008282546113ea919061204e565b92505081905550505050565b600081519050919050565b600082825260208201905092915050565b60005b83811015611430578082015181840152602081019050611415565b60008484015250505050565b6000601f19601f8301169050919050565b6000611458826113f6565b6114628185611401565b9350611472818560208601611412565b61147b8161143c565b840191505092915050565b600060208201905081810360008301526114a0818461144d565b905092915050565b6000604051905090565b600080fd5b600080fd5b600073ffffffffffffffffffffffffffffffffffffffff82169050919050565b60006114e7826114bc565b9050919050565b6114f7816114dc565b811461150257600080fd5b50565b600081359050611514816114ee565b92915050565b600080fd5b600080fd5b7f4e487b7100000000000000000000000000000000000000000000000000000000600052604160045260246000fd5b61155c8261143c565b810181811067ffffffffffffffff8211171561157b5761157a611524565b5b80604052505050565b600061158e6114a8565b905061159a8282611553565b919050565b600067ffffffffffffffff8211156115ba576115b9611524565b5b6115c38261143c565b9050602081019050919050565b82818337600083830152505050565b60006115f26115ed8461159f565b611584565b90508281526020810184848401111561160e5761160d61151f565b5b6116198482856115d0565b509392505050565b600082601f8301126116365761163561151a565b5b81356116468482602086016115df565b91505092915050565b60008060408385031215611666576116656114b2565b5b600061167485828601611505565b925050602083013567ffffffffffffffff811115611695576116946114b7565b5b6116a185828601611621565b9150509250929050565b60008115159050919050565b6116c0816116ab565b82525050565b60006020820190506116db60008301846116b7565b92915050565b6000602082840312156116f7576116f66114b2565b5b600082013567ffffffffffffffff811115611715576117146114b7565b5b61172184828501611621565b91505092915050565b6000819050919050565b61173d8161172a565b82525050565b60006020820190506117586000830184611734565b92915050565b611767816114dc565b82525050565b6000602082019050611782600083018461175e565b92915050565b60006020828403121561179e5761179d6114b2565b5b60006117ac84828501611505565b91505092915050565b600081519050919050565b600082825260208201905092915050565b6000819050602082019050919050565b600082825260208201905092915050565b60006117fd826113f6565b61180781856117e1565b9350611817818560208601611412565b6118208161143c565b840191505092915050565b600061183783836117f2565b905092915050565b6000602082019050919050565b6000611857826117b5565b61186181856117c0565b935083602082028501611873856117d1565b8060005b858110156118af5784840389528151611890858261182b565b945061189b8361183f565b925060208a01995050600181019050611877565b50829750879550505050505092915050565b600081519050919050565b600082825260208201905092915050565b6000819050602082019050919050565b6118f68161172a565b82525050565b600061190883836118ed565b60208301905092915050565b6000602082019050919050565b600061192c826118c1565b61193681856118cc565b9350611941836118dd565b8060005b8381101561197257815161195988826118fc565b975061196483611914565b925050600181019050611945565b5085935050505092915050565b60006040820190508181036000830152611999818561184c565b905081810360208301526119ad8184611921565b90509392505050565b6119bf8161172a565b81146119ca57600080fd5b50565b6000813590506119dc816119b6565b92915050565b600080604083850312156119f9576119f86114b2565b5b600083013567ffffffffffffffff811115611a1757611a166114b7565b5b611a2385828601611621565b9250506020611a34858286016119cd565b9150509250929050565b60008060408385031215611a5557611a546114b2565b5b6000611a6385828601611505565b9250506020611a74858286016119cd565b9150509250929050565b7f4e487b7100000000000000000000000000000000000000000000000000000000600052602260045260246000fd5b60006002820490506001821680611ac557607f821691505b602082108103611ad857611ad7611a7e565b5b50919050565b600081905092915050565b6000611af4826113f6565b611afe8185611ade565b9350611b0e818560208601611412565b80840191505092915050565b6000611b268284611ae9565b915081905092915050565b7f44657374696e61746172696f206e616f206175746f72697a61646f0000000000600082015250565b6000611b67601b83611401565b9150611b7282611b31565b602082019050919050565b60006020820190508181036000830152611b9681611b5a565b9050919050565b7f5065726d697373616f206e65676164612c206170656e6173206f776e6572206f60008201527f7520612070726f666573736f7261210000000000000000000000000000000000602082015250565b6000611bf9602f83611401565b9150611c0482611b9d565b604082019050919050565b60006020820190508181036000830152611c2881611bec565b9050919050565b7f4e487b7100000000000000000000000000000000000000000000000000000000600052603260045260246000fd5b60008190508160005260206000209050919050565b60008154611c8081611aad565b611c8a8186611ade565b94506001821660008114611ca55760018114611cba57611ced565b60ff1983168652811515820286019350611ced565b611cc385611c5e565b60005b83811015611ce557815481890152600182019150602081019050611cc6565b838801955050505b50505092915050565b6000611d028284611c73565b915081905092915050565b7f52656d6574656e7465206e616f206175746f72697a61646f0000000000000000600082015250565b6000611d43601883611401565b9150611d4e82611d0d565b602082019050919050565b60006020820190508181036000830152611d7281611d36565b9050919050565b7f4e616f20706f646520766f74617220656d207369206d65736d6f000000000000600082015250565b6000611daf601a83611401565b9150611dba82611d79565b602082019050919050565b60006020820190508181036000830152611dde81611da2565b9050919050565b7f566f74696e67206973206e6f7420616374697665000000000000000000000000600082015250565b6000611e1b601483611401565b9150611e2682611de5565b602082019050919050565b60006020820190508181036000830152611e4a81611e0e565b9050919050565b7f566f6365206a6120766f746f75206e65737365207573756172696f0000000000600082015250565b6000611e87601b83611401565b9150611e9282611e51565b602082019050919050565b60006020820190508181036000830152611eb681611e7a565b9050919050565b7f5175616e74696461646520646520746f6b656e7320646520766f746f206d756960008201527f746f20616c746100000000000000000000000000000000000000000000000000602082015250565b6000611f19602783611401565b9150611f2482611ebd565b604082019050919050565b60006020820190508181036000830152611f4881611f0c565b9050919050565b60006040820190508181036000830152611f69818561144d565b9050611f786020830184611734565b9392505050565b7f4e6f7420656e6f75676820746f6b656e73000000000000000000000000000000600082015250565b6000611fb5601183611401565b9150611fc082611f7f565b602082019050919050565b60006020820190508181036000830152611fe481611fa8565b9050919050565b7f4e487b7100000000000000000000000000000000000000000000000000000000600052601160045260246000fd5b60006120258261172a565b91506120308361172a565b925082820390508181111561204857612047611feb565b5b92915050565b60006120598261172a565b91506120648361172a565b925082820190508082111561207c5761207b611feb565b5b9291505056fea2646970667358221220b93b0d1331d27974c0361a9fe49f7649012e516087f5a16ce78da65b6fd0443a64736f6c634300081c0033",
  "linkReferences": {},
  "deployedLinkReferences": {}
}