{
  "_format": "hh-sol-artifact-1",
  "contractName": "Token",
  "sourceName": "contracts/Token.sol",
  "abi": [
    {
      "inputs": [],
      "stateMutability": "nonpayable",
      "type": "constructor"
    },
    {
      "inputs": [
        {
          "internalType": "address",
          "name": "spender",
          "type": "address"
        },
        {
          "internalType": "uint256",
          "name": "allowance",
          "type": "uint256"
        },
        {
          "internalType": "uint256",
          "name": "needed",
          "type": "uint256"
        }
      ],
      "name": "ERC20InsufficientAllowance",
      "type": "error"
    },
    {
      "inputs": [
        {
          "internalType": "address",
          "name": "sender",
          "type": "address"
        },
        {
          "internalType": "uint256",
          "name": "balance",
          "type": "uint256"
        },
        {
          "internalType": "uint256",
          "name": "needed",
          "type": "uint256"
        }
      ],
      "name": "ERC20InsufficientBalance",
      "type": "error"
    },
    {
      "inputs": [
        {
          "internalType": "address",
          "name": "approver",
          "type": "address"
        }
      ],
      "name": "ERC20InvalidApprover",
      "type": "error"
    },
    {
      "inputs": [
        {
          "internalType": "address",
          "name": "receiver",
          "type": "address"
        }
      ],
      "name": "ERC20InvalidReceiver",
      "type": "error"
    },
    {
      "inputs": [
        {
          "internalType": "address",
          "name": "sender",
          "type": "address"
        }
      ],
      "name": "ERC20InvalidSender",
      "type": "error"
    },
    {
      "inputs": [
        {
          "internalType": "address",
          "name": "spender",
          "type": "address"
        }
      ],
      "name": "ERC20InvalidSpender",
      "type": "error"
    },
    {
      "anonymous": false,
      "inputs": [
        {
          "indexed": true,
          "internalType": "address",
          "name": "owner",
          "type": "address"
        },
        {
          "indexed": true,
          "internalType": "address",
          "name": "spender",
          "type": "address"
        },
        {
          "indexed": false,
          "internalType": "uint256",
          "name": "value",
          "type": "uint256"
        }
      ],
      "name": "Approval",
      "type": "event"
    },
    {
      "anonymous": false,
      "inputs": [
        {
          "indexed": true,
          "internalType": "address",
          "name": "from",
          "type": "address"
        },
        {
          "indexed": true,
          "internalType": "address",
          "name": "to",
          "type": "address"
        },
        {
          "indexed": false,
          "internalType": "uint256",
          "name": "value",
          "type": "uint256"
        }
      ],
      "name": "Transfer",
      "type": "event"
    },
    {
      "anonymous": false,
      "inputs": [
        {
          "indexed": false,
          "internalType": "string",
          "name": "sender",
          "type": "string"
        },
        {
          "indexed": false,
          "internalType": "string",
          "name": "recipient",
          "type": "string"
        },
        {
          "indexed": false,
          "internalType": "uint256",
          "name": "amount",
          "type": "uint256"
        }
      ],
      "name": "Voted",
      "type": "event"
    },
    {
      "inputs": [
        {
          "internalType": "address",
          "name": "owner",
          "type": "address"
        },
        {
          "internalType": "address",
          "name": "spender",
          "type": "address"
        }
      ],
      "name": "allowance",
      "outputs": [
        {
          "internalType": "uint256",
          "name": "",
          "type": "uint256"
        }
      ],
      "stateMutability": "view",
      "type": "function"
    },
    {
      "inputs": [
        {
          "internalType": "address",
          "name": "spender",
          "type": "address"
        },
        {
          "internalType": "uint256",
          "name": "value",
          "type": "uint256"
        }
      ],
      "name": "approve",
      "outputs": [
        {
          "internalType": "bool",
          "name": "",
          "type": "bool"
        }
      ],
      "stateMutability": "nonpayable",
      "type": "function"
    },
    {
      "inputs": [
        {
          "internalType": "string",
          "name": "codinome",
          "type": "string"
        }
      ],
      "name": "balanceByCodiname",
      "outputs": [
        {
          "internalType": "uint256",
          "name": "",
          "type": "uint256"
        }
      ],
      "stateMutability": "view",
      "type": "function"
    },
    {
      "inputs": [
        {
          "internalType": "address",
          "name": "account",
          "type": "address"
        }
      ],
      "name": "balanceOf",
      "outputs": [
        {
          "internalType": "uint256",
          "name": "",
          "type": "uint256"
        }
      ],
      "stateMutability": "view",
      "type": "function"
    },
    {
      "inputs": [],
      "name": "decimals",
      "outputs": [
        {
          "internalType": "uint8",
          "name": "",
          "type": "uint8"
        }
      ],
      "stateMutability": "view",
      "type": "function"
    },
    {
      "inputs": [],
      "name": "getAllBalances",
      "outputs": [
        {
          "internalType": "string[]",
          "name": "",
          "type": "string[]"
        },
        {
          "internalType": "uint256[]",
          "name": "",
          "type": "uint256[]"
        }
      ],
      "stateMutability": "view",
      "type": "function"
    },
    {
      "inputs": [],
      "name": "getSenderCodinome",
      "outputs": [
        {
          "internalType": "string",
          "name": "",
          "type": "string"
        }
      ],
      "stateMutability": "view",
      "type": "function"
    },
    {
      "inputs": [
        {
          "internalType": "string",
          "name": "codinome",
          "type": "string"
        },
        {
          "internalType": "uint256",
          "name": "sats",
          "type": "uint256"
        }
      ],
      "name": "issueToken",
      "outputs": [],
      "stateMutability": "nonpayable",
      "type": "function"
    },
    {
      "inputs": [],
      "name": "name",
      "outputs": [
        {
          "internalType": "string",
          "name": "",
          "type": "string"
        }
      ],
      "stateMutability": "view",
      "type": "function"
    },
    {
      "inputs": [],
      "name": "owner",
      "outputs": [
        {
          "internalType": "address",
          "name": "",
          "type": "address"
        }
      ],
      "stateMutability": "view",
      "type": "function"
    },
    {
      "inputs": [],
      "name": "professora",
      "outputs": [
        {
          "internalType": "address",
          "name": "",
          "type": "address"
        }
      ],
      "stateMutability": "view",
      "type": "function"
    },
    {
      "inputs": [],
      "name": "symbol",
      "outputs": [
        {
          "internalType": "string",
          "name": "",
          "type": "string"
        }
      ],
      "stateMutability": "view",
      "type": "function"
    },
    {
      "inputs": [],
      "name": "totalSupply",
      "outputs": [
        {
          "internalType": "uint256",
          "name": "",
          "type": "uint256"
        }
      ],
      "stateMutability": "view",
      "type": "function"
    },
    {
      "inputs": [
        {
          "internalType": "address",
          "name": "to",
          "type": "address"
        },
        {
          "internalType": "uint256",
          "name": "value",
          "type": "uint256"
        }
      ],
      "name": "transfer",
      "outputs": [
        {
          "internalType": "bool",
          "name": "",
          "type": "bool"
        }
      ],
      "stateMutability": "nonpayable",
      "type": "function"
    },
    {
      "inputs": [
        {
          "internalType": "address",
          "name": "from",
          "type": "address"
        },
        {
          "internalType": "address",
          "name": "to",
          "type": "address"
        },
        {
          "internalType": "uint256",
          "name": "value",
          "type": "uint256"
        }
      ],
      "name": "transferFrom",
      "outputs": [
        {
          "internalType": "bool",
          "name": "",
          "type": "bool"
        }
      ],
      "stateMutability": "nonpayable",
      "type": "function"
    },
    {
      "inputs": [
        {
          "internalType": "string",
          "name": "codinome",
          "type": "string"
        },
        {
          "internalType": "uint256",
          "name": "sats",
          "type": "uint256"
        }
      ],
      "name": "vote",
      "outputs": [],
      "stateMutability": "nonpayable",
      "type": "function"
    },
    {
      "inputs": [
        {
          "internalType": "address",
          "name": "",
          "type": "address"
        },
        {
          "internalType": "string",
          "name": "",
          "type": "string"
        }
      ],
      "name": "voted",
      "outputs": [
        {
          "internalType": "bool",
          "name": "",
          "type": "bool"
        }
      ],
      "stateMutability": "view",
      "type": "function"
    },
    {
      "inputs": [],
      "name": "votingActive",
      "outputs": [
        {
          "internalType": "bool",
          "name": "",
          "type": "bool"
        }
      ],
      "stateMutability": "view",
      "type": "function"
    },
    {
      "inputs": [],
      "name": "votingOff",
      "outputs": [],
      "stateMutability": "nonpayable",
      "type": "function"
    },
    {
      "inputs": [],
      "name": "votingOn",
      "outputs": [],
      "stateMutability": "nonpayable",
      "type": "function"
    }
  ],
  "bytecode": "0x608060405273502542668af09fa7aea52174b9965a7799343df7600660006101000a81548173ffffffffffffffffffffffffffffffffffffffff021916908373ffffffffffffffffffffffffffffffffffffffff1602179055506001600660146101000a81548160ff021916908315150217905550601367ffffffffffffffff81111561008f5761008e610b59565b5b6040519080825280602002602001820160405280156100c257816020015b60608152602001906001900390816100ad5790505b50600790805190602001906100d8929190610a7f565b503480156100e557600080fd5b506040518060400160405280600681526020017f547572696e6700000000000000000000000000000000000000000000000000008152506040518060400160405280600381526020017f545552000000000000000000000000000000000000000000000000000000000081525081600390816101619190610da9565b5080600490816101719190610da9565b50505033600560006101000a81548173ffffffffffffffffffffffffffffffffffffffff021916908373ffffffffffffffffffffffffffffffffffffffff16021790555060006040518061026001604052807370997970c51812dc3a010c7d01b50e0d17dc79c873ffffffffffffffffffffffffffffffffffffffff1673ffffffffffffffffffffffffffffffffffffffff168152602001733c44cdddb6a900fa2b585dd299e03d12fa4293bc73ffffffffffffffffffffffffffffffffffffffff1673ffffffffffffffffffffffffffffffffffffffff1681526020017390f79bf6eb2c4f870365e785982e1f101e93b90673ffffffffffffffffffffffffffffffffffffffff1673ffffffffffffffffffffffffffffffffffffffff1681526020017315d34aaf54267db7d7c367839aaf71a00a2c6a6573ffffffffffffffffffffffffffffffffffffffff1673ffffffffffffffffffffffffffffffffffffffff168152602001739965507d1a55bcc2695c58ba16fb37d819b0a4dc73ffffffffffffffffffffffffffffffffffffffff1673ffffffffffffffffffffffffffffffffffffffff16815260200173976ea74026e726554db657fa54763abd0c3a0aa973ffffffffffffffffffffffffffffffffffffffff1673ffffffffffffffffffffffffffffffffffffffff1681526020017314dc79964da2c08b23698b3d3cc7ca32193d995573ffffffffffffffffffffffffffffffffffffffff1673ffffffffffffffffffffffffffffffffffffffff1681526020017323618e81e3f5cdf7f54c3d65f7fbc0abf5b21e8f73ffffffffffffffffffffffffffffffffffffffff1673ffffffffffffffffffffffffffffffffffffffff16815260200173a0ee7a142d267c1f36714e4a8f75612f20a7972073ffffffffffffffffffffffffffffffffffffffff1673ffffffffffffffffffffffffffffffffffffffff16815260200173bcd4042de499d14e55001ccbb24a551f3b95409673ffffffffffffffffffffffffffffffffffffffff1673ffffffffffffffffffffffffffffffffffffffff1681526020017371be63f3384f5fb98995898a86b02fb2426c578873ffffffffffffffffffffffffffffffffffffffff1673ffffffffffffffffffffffffffffffffffffffff16815260200173fabb0ac9d68b0b445fb7357272ff202c5651694a73ffffffffffffffffffffffffffffffffffffffff1673ffffffffffffffffffffffffffffffffffffffff168152602001731cbd3b2770909d4e10f157cabc84c7264073c9ec73ffffffffffffffffffffffffffffffffffffffff1673ffffffffffffffffffffffffffffffffffffffff16815260200173df3e18d64bc6a983f673ab319ccae4f1a57c709773ffffffffffffffffffffffffffffffffffffffff1673ffffffffffffffffffffffffffffffffffffffff16815260200173cd3b766ccdd6ae721141f452c550ca635964ce7173ffffffffffffffffffffffffffffffffffffffff1673ffffffffffffffffffffffffffffffffffffffff168152602001732546bcd3c84621e976d8185a91a922ae77ecec3073ffffffffffffffffffffffffffffffffffffffff1673ffffffffffffffffffffffffffffffffffffffff16815260200173bda5747bfd65f08deb54cb465eb87d40e51b197e73ffffffffffffffffffffffffffffffffffffffff1673ffffffffffffffffffffffffffffffffffffffff16815260200173dd2fd4581271e230360230f9337d5c0430bf44c073ffffffffffffffffffffffffffffffffffffffff1673ffffffffffffffffffffffffffffffffffffffff168152602001738626f6940e2eb28930efb4cef49b2d1f2c9c119973ffffffffffffffffffffffffffffffffffffffff1673ffffffffffffffffffffffffffffffffffffffff168152509050606060005b60138110156108505761071e6001826107139190610eaa565b61085860201b60201c565b60405160200161072e9190610f6a565b6040516020818303038152906040529150816007828154811061075457610753610f90565b5b90600052602060002001908161076a9190610da9565b5082816013811061077e5761077d610f90565b5b60200201516009836040516107939190610fbf565b908152602001604051809103902060006101000a81548173ffffffffffffffffffffffffffffffffffffffff021916908373ffffffffffffffffffffffffffffffffffffffff16021790555081600860008584601381106107f7576107f6610f90565b5b602002015173ffffffffffffffffffffffffffffffffffffffff1673ffffffffffffffffffffffffffffffffffffffff16815260200190815260200160002090816108429190610da9565b5080806001019150506106fa565b505050611005565b60606000600161086d8461092c60201b60201c565b01905060008167ffffffffffffffff81111561088c5761088b610b59565b5b6040519080825280601f01601f1916602001820160405280156108be5781602001600182028036833780820191505090505b509050600082602001820190505b600115610921578080600190039150507f3031323334353637383961626364656600000000000000000000000000000000600a86061a8153600a858161091557610914610fd6565b5b049450600085036108cc575b819350505050919050565b600080600090507a184f03e93ff9f4daa797ed6e38ed64bf6a1f010000000000000000831061098a577a184f03e93ff9f4daa797ed6e38ed64bf6a1f01000000000000000083816109805761097f610fd6565b5b0492506040810190505b6d04ee2d6d415b85acef810000000083106109c7576d04ee2d6d415b85acef810000000083816109bd576109bc610fd6565b5b0492506020810190505b662386f26fc1000083106109f657662386f26fc1000083816109ec576109eb610fd6565b5b0492506010810190505b6305f5e1008310610a1f576305f5e1008381610a1557610a14610fd6565b5b0492506008810190505b6127108310610a44576127108381610a3a57610a39610fd6565b5b0492506004810190505b60648310610a675760648381610a5d57610a5c610fd6565b5b0492506002810190505b600a8310610a76576001810190505b80915050919050565b828054828255906000526020600020908101928215610ac7579160200282015b82811115610ac6578251829081610ab69190610da9565b5091602001919060010190610a9f565b5b509050610ad49190610ad8565b5090565b5b80821115610af85760008181610aef9190610afc565b50600101610ad9565b5090565b508054610b0890610bc2565b6000825580601f10610b1a5750610b39565b601f016020900490600052602060002090810190610b389190610b3c565b5b50565b5b80821115610b55576000816000905550600101610b3d565b5090565b7f4e487b7100000000000000000000000000000000000000000000000000000000600052604160045260246000fd5b600081519050919050565b7f4e487b7100000000000000000000000000000000000000000000000000000000600052602260045260246000fd5b60006002820490506001821680610bda57607f821691505b602082108103610bed57610bec610b93565b5b50919050565b60008190508160005260206000209050919050565b60006020601f8301049050919050565b600082821b905092915050565b600060088302610c557fffffffffffffffffffffffffffffffffffffffffffffffffffffffffffffffff82610c18565b610c5f8683610c18565b95508019841693508086168417925050509392505050565b6000819050919050565b6000819050919050565b6000610ca6610ca1610c9c84610c77565b610c81565b610c77565b9050919050565b6000819050919050565b610cc083610c8b565b610cd4610ccc82610cad565b848454610c25565b825550505050565b600090565b610ce9610cdc565b610cf4818484610cb7565b505050565b5b81811015610d1857610d0d600082610ce1565b600181019050610cfa565b5050565b601f821115610d5d57610d2e81610bf3565b610d3784610c08565b81016020851015610d46578190505b610d5a610d5285610c08565b830182610cf9565b50505b505050565b600082821c905092915050565b6000610d8060001984600802610d62565b1980831691505092915050565b6000610d998383610d6f565b9150826002028217905092915050565b610db282610b88565b67ffffffffffffffff811115610dcb57610dca610b59565b5b610dd58254610bc2565b610de0828285610d1c565b600060209050601f831160018114610e135760008415610e01578287015190505b610e0b8582610d8d565b865550610e73565b601f198416610e2186610bf3565b60005b82811015610e4957848901518255600182019150602085019450602081019050610e24565b86831015610e665784890151610e62601f891682610d6f565b8355505b6001600288020188555050505b505050505050565b7f4e487b7100000000000000000000000000000000000000000000000000000000600052601160045260246000fd5b6000610eb582610c77565b9150610ec083610c77565b9250828201905080821115610ed857610ed7610e7b565b5b92915050565b7f6e6f6d6500000000000000000000000000000000000000000000000000000000815250565b600081905092915050565b60005b83811015610f2d578082015181840152602081019050610f12565b60008484015250505050565b6000610f4482610b88565b610f4e8185610f04565b9350610f5e818560208601610f0f565b80840191505092915050565b6000610f7582610ede565b600482019150610f858284610f39565b915081905092915050565b7f4e487b7100000000000000000000000000000000000000000000000000000000600052603260045260246000fd5b6000610fcb8284610f39565b915081905092915050565b7f4e487b7100000000000000000000000000000000000000000000000000000000600052601260045260246000fd5b612888806110146000396000f3fe608060405234801561001057600080fd5b506004361061012c5760003560e01c80636c66247a116100ad57806395d89b411161007157806395d89b4114610326578063a638580314610344578063a9059cbb14610360578063c683e0f414610390578063dd62ed3e146103ac5761012c565b80636c66247a1461027d57806370a082311461029b5780638236f9d1146102cb578063867e7c27146102e95780638da5cb5b146103085761012c565b806320949bb4116100f457806320949bb4146101fd57806323b872dd14610207578063313ce56714610237578063408e27271461025557806360a3ae06146102735761012c565b806306fdde0314610131578063095ea7b31461014f5780630a7e94561461017f578063104956ba146101af57806318160ddd146101df575b600080fd5b6101396103dc565b6040516101469190611af0565b60405180910390f35b61016960048036038101906101649190611bba565b61046e565b6040516101769190611c15565b60405180910390f35b61019960048036038101906101949190611d65565b610491565b6040516101a69190611c15565b60405180910390f35b6101c960048036038101906101c49190611dc1565b6104d6565b6040516101d69190611e19565b60405180910390f35b6101e76105d5565b6040516101f49190611e19565b60405180910390f35b6102056105df565b005b610221600480360381019061021c9190611e34565b6106e4565b60405161022e9190611c15565b60405180910390f35b61023f610713565b60405161024c9190611ea3565b60405180910390f35b61025d61071c565b60405161026a9190611c15565b60405180910390f35b61027b61072f565b005b610285610834565b6040516102929190611ecd565b60405180910390f35b6102b560048036038101906102b09190611ee8565b61085a565b6040516102c29190611e19565b60405180910390f35b6102d36108a2565b6040516102e09190611af0565b60405180910390f35b6102f1610ab0565b6040516102ff9291906120df565b60405180910390f35b610310610c7d565b60405161031d9190611ecd565b60405180910390f35b61032e610ca3565b60405161033b9190611af0565b60405180910390f35b61035e60048036038101906103599190612116565b610d35565b005b61037a60048036038101906103759190611bba565b6111b2565b6040516103879190611c15565b60405180910390f35b6103aa60048036038101906103a59190612116565b6111d5565b005b6103c660048036038101906103c19190612172565b6113b8565b6040516103d39190611e19565b60405180910390f35b6060600380546103eb906121e1565b80601f0160208091040260200160405190810160405280929190818152602001828054610417906121e1565b80156104645780601f1061043957610100808354040283529160200191610464565b820191906000526020600020905b81548152906001019060200180831161044757829003601f168201915b5050505050905090565b60008061047961143f565b9050610486818585611447565b600191505092915050565b600a602052816000526040600020818051602081018201805184825260208301602085012081835280955050505050506000915091509054906101000a900460ff1681565b60006009826040516104e8919061224e565b908152602001604051809103902060009054906101000a900473ffffffffffffffffffffffffffffffffffffffff16600073ffffffffffffffffffffffffffffffffffffffff168173ffffffffffffffffffffffffffffffffffffffff1603610586576040517f08c379a000000000000000000000000000000000000000000000000000000000815260040161057d906122b1565b60405180910390fd5b6105cd600984604051610599919061224e565b908152602001604051809103902060009054906101000a900473ffffffffffffffffffffffffffffffffffffffff1661085a565b915050919050565b6000600254905090565b600560009054906101000a900473ffffffffffffffffffffffffffffffffffffffff1673ffffffffffffffffffffffffffffffffffffffff163373ffffffffffffffffffffffffffffffffffffffff1614806106885750600660009054906101000a900473ffffffffffffffffffffffffffffffffffffffff1673ffffffffffffffffffffffffffffffffffffffff163373ffffffffffffffffffffffffffffffffffffffff16145b6106c7576040517f08c379a00000000000000000000000000000000000000000000000000000000081526004016106be90612343565b60405180910390fd5b6001600660146101000a81548160ff021916908315150217905550565b6000806106ef61143f565b90506106fc858285611459565b6107078585856114ee565b60019150509392505050565b60006012905090565b600660149054906101000a900460ff1681565b600560009054906101000a900473ffffffffffffffffffffffffffffffffffffffff1673ffffffffffffffffffffffffffffffffffffffff163373ffffffffffffffffffffffffffffffffffffffff1614806107d85750600660009054906101000a900473ffffffffffffffffffffffffffffffffffffffff1673ffffffffffffffffffffffffffffffffffffffff163373ffffffffffffffffffffffffffffffffffffffff16145b610817576040517f08c379a000000000000000000000000000000000000000000000000000000000815260040161080e90612343565b60405180910390fd5b6000600660146101000a81548160ff021916908315150217905550565b600660009054906101000a900473ffffffffffffffffffffffffffffffffffffffff1681565b60008060008373ffffffffffffffffffffffffffffffffffffffff1673ffffffffffffffffffffffffffffffffffffffff168152602001908152602001600020549050919050565b6060600560009054906101000a900473ffffffffffffffffffffffffffffffffffffffff1673ffffffffffffffffffffffffffffffffffffffff163373ffffffffffffffffffffffffffffffffffffffff16148061094d5750600660009054906101000a900473ffffffffffffffffffffffffffffffffffffffff1673ffffffffffffffffffffffffffffffffffffffff163373ffffffffffffffffffffffffffffffffffffffff16145b806109a457506000600860003373ffffffffffffffffffffffffffffffffffffffff1673ffffffffffffffffffffffffffffffffffffffff168152602001908152602001600020805461099f906121e1565b905014155b6109e3576040517f08c379a00000000000000000000000000000000000000000000000000000000081526004016109da906123af565b60405180910390fd5b600860003373ffffffffffffffffffffffffffffffffffffffff1673ffffffffffffffffffffffffffffffffffffffff1681526020019081526020016000208054610a2d906121e1565b80601f0160208091040260200160405190810160405280929190818152602001828054610a59906121e1565b8015610aa65780601f10610a7b57610100808354040283529160200191610aa6565b820191906000526020600020905b815481529060010190602001808311610a8957829003601f168201915b5050505050905090565b6060806000601367ffffffffffffffff811115610ad057610acf611c3a565b5b604051908082528060200260200182016040528015610afe5781602001602082028036833780820191505090505b50905060005b6013811015610b9d57610b71600960078381548110610b2657610b256123cf565b5b90600052602060002001604051610b3d9190612496565b908152602001604051809103902060009054906101000a900473ffffffffffffffffffffffffffffffffffffffff1661085a565b828281518110610b8457610b836123cf565b5b6020026020010181815250508080600101915050610b04565b5060078181805480602002602001604051908101604052809291908181526020016000905b82821015610c6e578382906000526020600020018054610be1906121e1565b80601f0160208091040260200160405190810160405280929190818152602001828054610c0d906121e1565b8015610c5a5780601f10610c2f57610100808354040283529160200191610c5a565b820191906000526020600020905b815481529060010190602001808311610c3d57829003601f168201915b505050505081526020019060010190610bc2565b50505050915092509250509091565b600560009054906101000a900473ffffffffffffffffffffffffffffffffffffffff1681565b606060048054610cb2906121e1565b80601f0160208091040260200160405190810160405280929190818152602001828054610cde906121e1565b8015610d2b5780601f10610d0057610100808354040283529160200191610d2b565b820191906000526020600020905b815481529060010190602001808311610d0e57829003601f168201915b5050505050905090565b600660149054906101000a900460ff16610d84576040517f08c379a0000000000000000000000000000000000000000000000000000000008152600401610d7b906124f9565b60405180910390fd5b6000600860003373ffffffffffffffffffffffffffffffffffffffff1673ffffffffffffffffffffffffffffffffffffffff1681526020019081526020016000208054610dd0906121e1565b905003610e12576040517f08c379a0000000000000000000000000000000000000000000000000000000008152600401610e0990612565565b60405180910390fd5b600982604051610e22919061224e565b908152602001604051809103902060009054906101000a900473ffffffffffffffffffffffffffffffffffffffff16600073ffffffffffffffffffffffffffffffffffffffff168173ffffffffffffffffffffffffffffffffffffffff1603610ec0576040517f08c379a0000000000000000000000000000000000000000000000000000000008152600401610eb7906122b1565b60405180910390fd5b82600981604051610ed1919061224e565b908152602001604051809103902060009054906101000a900473ffffffffffffffffffffffffffffffffffffffff1673ffffffffffffffffffffffffffffffffffffffff163373ffffffffffffffffffffffffffffffffffffffff1603610f6d576040517f08c379a0000000000000000000000000000000000000000000000000000000008152600401610f64906125d1565b60405180910390fd5b83600a60003373ffffffffffffffffffffffffffffffffffffffff1673ffffffffffffffffffffffffffffffffffffffff16815260200190815260200160002081604051610fbb919061224e565b908152602001604051809103902060009054906101000a900460ff1615611017576040517f08c379a000000000000000000000000000000000000000000000000000000000815260040161100e9061263d565b60405180910390fd5b83671bc16d674ec80000811115611063576040517f08c379a000000000000000000000000000000000000000000000000000000000815260040161105a906126cf565b60405180910390fd5b6110ab600987604051611076919061224e565b908152602001604051809103902060009054906101000a900473ffffffffffffffffffffffffffffffffffffffff16866115e2565b6110bd336702c68af0bb1400006115e2565b6001600a60003373ffffffffffffffffffffffffffffffffffffffff1673ffffffffffffffffffffffffffffffffffffffff1681526020019081526020016000208760405161110c919061224e565b908152602001604051809103902060006101000a81548160ff0219169083151502179055507f2610aa2b32505d0b372e2695cef7ff28b0127250b30a4dbbb05a86d2fb1e524e600860003373ffffffffffffffffffffffffffffffffffffffff1673ffffffffffffffffffffffffffffffffffffffff16815260200190815260200160002087876040516111a293929190612773565b60405180910390a1505050505050565b6000806111bd61143f565b90506111ca8185856114ee565b600191505092915050565b600560009054906101000a900473ffffffffffffffffffffffffffffffffffffffff1673ffffffffffffffffffffffffffffffffffffffff163373ffffffffffffffffffffffffffffffffffffffff16148061127e5750600660009054906101000a900473ffffffffffffffffffffffffffffffffffffffff1673ffffffffffffffffffffffffffffffffffffffff163373ffffffffffffffffffffffffffffffffffffffff16145b6112bd576040517f08c379a00000000000000000000000000000000000000000000000000000000081526004016112b490612343565b60405180910390fd5b6009826040516112cd919061224e565b908152602001604051809103902060009054906101000a900473ffffffffffffffffffffffffffffffffffffffff16600073ffffffffffffffffffffffffffffffffffffffff168173ffffffffffffffffffffffffffffffffffffffff160361136b576040517f08c379a0000000000000000000000000000000000000000000000000000000008152600401611362906122b1565b60405180910390fd5b6113b360098460405161137e919061224e565b908152602001604051809103902060009054906101000a900473ffffffffffffffffffffffffffffffffffffffff16836115e2565b505050565b6000600160008473ffffffffffffffffffffffffffffffffffffffff1673ffffffffffffffffffffffffffffffffffffffff16815260200190815260200160002060008373ffffffffffffffffffffffffffffffffffffffff1673ffffffffffffffffffffffffffffffffffffffff16815260200190815260200160002054905092915050565b600033905090565b6114548383836001611664565b505050565b600061146584846113b8565b90507fffffffffffffffffffffffffffffffffffffffffffffffffffffffffffffffff8110156114e857818110156114d8578281836040517ffb8f41b20000000000000000000000000000000000000000000000000000000081526004016114cf939291906127b8565b60405180910390fd5b6114e784848484036000611664565b5b50505050565b600073ffffffffffffffffffffffffffffffffffffffff168373ffffffffffffffffffffffffffffffffffffffff16036115605760006040517f96c6fd1e0000000000000000000000000000000000000000000000000000000081526004016115579190611ecd565b60405180910390fd5b600073ffffffffffffffffffffffffffffffffffffffff168273ffffffffffffffffffffffffffffffffffffffff16036115d25760006040517fec442f050000000000000000000000000000000000000000000000000000000081526004016115c99190611ecd565b60405180910390fd5b6115dd83838361183b565b505050565b600073ffffffffffffffffffffffffffffffffffffffff168273ffffffffffffffffffffffffffffffffffffffff16036116545760006040517fec442f0500000000000000000000000000000000000000000000000000000000815260040161164b9190611ecd565b60405180910390fd5b6116606000838361183b565b5050565b600073ffffffffffffffffffffffffffffffffffffffff168473ffffffffffffffffffffffffffffffffffffffff16036116d65760006040517fe602df050000000000000000000000000000000000000000000000000000000081526004016116cd9190611ecd565b60405180910390fd5b600073ffffffffffffffffffffffffffffffffffffffff168373ffffffffffffffffffffffffffffffffffffffff16036117485760006040517f94280d6200000000000000000000000000000000000000000000000000000000815260040161173f9190611ecd565b60405180910390fd5b81600160008673ffffffffffffffffffffffffffffffffffffffff1673ffffffffffffffffffffffffffffffffffffffff16815260200190815260200160002060008573ffffffffffffffffffffffffffffffffffffffff1673ffffffffffffffffffffffffffffffffffffffff168152602001908152602001600020819055508015611835578273ffffffffffffffffffffffffffffffffffffffff168473ffffffffffffffffffffffffffffffffffffffff167f8c5be1e5ebec7d5bd14f71427d1e84f3dd0314c0f7b2291e5b200ac8c7c3b9258460405161182c9190611e19565b60405180910390a35b50505050565b600073ffffffffffffffffffffffffffffffffffffffff168373ffffffffffffffffffffffffffffffffffffffff160361188d578060026000828254611881919061281e565b92505081905550611960565b60008060008573ffffffffffffffffffffffffffffffffffffffff1673ffffffffffffffffffffffffffffffffffffffff16815260200190815260200160002054905081811015611919578381836040517fe450d38c000000000000000000000000000000000000000000000000000000008152600401611910939291906127b8565b60405180910390fd5b8181036000808673ffffffffffffffffffffffffffffffffffffffff1673ffffffffffffffffffffffffffffffffffffffff16815260200190815260200160002081905550505b600073ffffffffffffffffffffffffffffffffffffffff168273ffffffffffffffffffffffffffffffffffffffff16036119a957806002600082825403925050819055506119f6565b806000808473ffffffffffffffffffffffffffffffffffffffff1673ffffffffffffffffffffffffffffffffffffffff168152602001908152602001600020600082825401925050819055505b8173ffffffffffffffffffffffffffffffffffffffff168373ffffffffffffffffffffffffffffffffffffffff167fddf252ad1be2c89b69c2b068fc378daa952ba7f163c4a11628f55a4df523b3ef83604051611a539190611e19565b60405180910390a3505050565b600081519050919050565b600082825260208201905092915050565b60005b83811015611a9a578082015181840152602081019050611a7f565b60008484015250505050565b6000601f19601f8301169050919050565b6000611ac282611a60565b611acc8185611a6b565b9350611adc818560208601611a7c565b611ae581611aa6565b840191505092915050565b60006020820190508181036000830152611b0a8184611ab7565b905092915050565b6000604051905090565b600080fd5b600080fd5b600073ffffffffffffffffffffffffffffffffffffffff82169050919050565b6000611b5182611b26565b9050919050565b611b6181611b46565b8114611b6c57600080fd5b50565b600081359050611b7e81611b58565b92915050565b6000819050919050565b611b9781611b84565b8114611ba257600080fd5b50565b600081359050611bb481611b8e565b92915050565b60008060408385031215611bd157611bd0611b1c565b5b6000611bdf85828601611b6f565b9250506020611bf085828601611ba5565b9150509250929050565b60008115159050919050565b611c0f81611bfa565b82525050565b6000602082019050611c2a6000830184611c06565b92915050565b600080fd5b600080fd5b7f4e487b7100000000000000000000000000000000000000000000000000000000600052604160045260246000fd5b611c7282611aa6565b810181811067ffffffffffffffff82111715611c9157611c90611c3a565b5b80604052505050565b6000611ca4611b12565b9050611cb08282611c69565b919050565b600067ffffffffffffffff821115611cd057611ccf611c3a565b5b611cd982611aa6565b9050602081019050919050565b82818337600083830152505050565b6000611d08611d0384611cb5565b611c9a565b905082815260208101848484011115611d2457611d23611c35565b5b611d2f848285611ce6565b509392505050565b600082601f830112611d4c57611d4b611c30565b5b8135611d5c848260208601611cf5565b91505092915050565b60008060408385031215611d7c57611d7b611b1c565b5b6000611d8a85828601611b6f565b925050602083013567ffffffffffffffff811115611dab57611daa611b21565b5b611db785828601611d37565b9150509250929050565b600060208284031215611dd757611dd6611b1c565b5b600082013567ffffffffffffffff811115611df557611df4611b21565b5b611e0184828501611d37565b91505092915050565b611e1381611b84565b82525050565b6000602082019050611e2e6000830184611e0a565b92915050565b600080600060608486031215611e4d57611e4c611b1c565b5b6000611e5b86828701611b6f565b9350506020611e6c86828701611b6f565b9250506040611e7d86828701611ba5565b9150509250925092565b600060ff82169050919050565b611e9d81611e87565b82525050565b6000602082019050611eb86000830184611e94565b92915050565b611ec781611b46565b82525050565b6000602082019050611ee26000830184611ebe565b92915050565b600060208284031215611efe57611efd611b1c565b5b6000611f0c84828501611b6f565b91505092915050565b600081519050919050565b600082825260208201905092915050565b6000819050602082019050919050565b600082825260208201905092915050565b6000611f5d82611a60565b611f678185611f41565b9350611f77818560208601611a7c565b611f8081611aa6565b840191505092915050565b6000611f978383611f52565b905092915050565b6000602082019050919050565b6000611fb782611f15565b611fc18185611f20565b935083602082028501611fd385611f31565b8060005b8581101561200f5784840389528151611ff08582611f8b565b9450611ffb83611f9f565b925060208a01995050600181019050611fd7565b50829750879550505050505092915050565b600081519050919050565b600082825260208201905092915050565b6000819050602082019050919050565b61205681611b84565b82525050565b6000612068838361204d565b60208301905092915050565b6000602082019050919050565b600061208c82612021565b612096818561202c565b93506120a18361203d565b8060005b838110156120d25781516120b9888261205c565b97506120c483612074565b9250506001810190506120a5565b5085935050505092915050565b600060408201905081810360008301526120f98185611fac565b9050818103602083015261210d8184612081565b90509392505050565b6000806040838503121561212d5761212c611b1c565b5b600083013567ffffffffffffffff81111561214b5761214a611b21565b5b61215785828601611d37565b925050602061216885828601611ba5565b9150509250929050565b6000806040838503121561218957612188611b1c565b5b600061219785828601611b6f565b92505060206121a885828601611b6f565b9150509250929050565b7f4e487b7100000000000000000000000000000000000000000000000000000000600052602260045260246000fd5b600060028204905060018216806121f957607f821691505b60208210810361220c5761220b6121b2565b5b50919050565b600081905092915050565b600061222882611a60565b6122328185612212565b9350612242818560208601611a7c565b80840191505092915050565b600061225a828461221d565b915081905092915050565b7f44657374696e61746172696f206e616f206175746f72697a61646f2100000000600082015250565b600061229b601c83611a6b565b91506122a682612265565b602082019050919050565b600060208201905081810360008301526122ca8161228e565b9050919050565b7f5065726d697373616f206e65676164612c206170656e6173206f776e6572206f60008201527f7520612070726f666573736f7261210000000000000000000000000000000000602082015250565b600061232d602f83611a6b565b9150612338826122d1565b604082019050919050565b6000602082019050818103600083015261235c81612320565b9050919050565b7f5573756172696f206e616f206175746f72697a61646f21000000000000000000600082015250565b6000612399601783611a6b565b91506123a482612363565b602082019050919050565b600060208201905081810360008301526123c88161238c565b9050919050565b7f4e487b7100000000000000000000000000000000000000000000000000000000600052603260045260246000fd5b60008190508160005260206000209050919050565b60008154612420816121e1565b61242a8186612212565b94506001821660008114612445576001811461245a5761248d565b60ff198316865281151582028601935061248d565b612463856123fe565b60005b8381101561248557815481890152600182019150602081019050612466565b838801955050505b50505092915050565b60006124a28284612413565b915081905092915050565b7f566f746163616f20657374612064657361746976616461210000000000000000600082015250565b60006124e3601883611a6b565b91506124ee826124ad565b602082019050919050565b60006020820190508181036000830152612512816124d6565b9050919050565b7f52656d6574656e7465206e616f206175746f72697a61646f2100000000000000600082015250565b600061254f601983611a6b565b915061255a82612519565b602082019050919050565b6000602082019050818103600083015261257e81612542565b9050919050565b7f4e616f20706f646520766f74617220656d207369206d65736d6f210000000000600082015250565b60006125bb601b83611a6b565b91506125c682612585565b602082019050919050565b600060208201905081810360008301526125ea816125ae565b9050919050565b7f566f6365206a6120766f746f75206e65737365207573756172696f2100000000600082015250565b6000612627601c83611a6b565b9150612632826125f1565b602082019050919050565b600060208201905081810360008301526126568161261a565b9050919050565b7f5175616e74696461646520646520746f6b656e7320646520766f746f206d756960008201527f746f20616c746121000000000000000000000000000000000000000000000000602082015250565b60006126b9602883611a6b565b91506126c48261265d565b604082019050919050565b600060208201905081810360008301526126e8816126ac565b9050919050565b600081546126fc816121e1565b6127068186611a6b565b9450600182166000811461272157600181146127375761276a565b60ff19831686528115156020028601935061276a565b612740856123fe565b60005b8381101561276257815481890152600182019150602081019050612743565b808801955050505b50505092915050565b6000606082019050818103600083015261278d81866126ef565b905081810360208301526127a18185611ab7565b90506127b06040830184611e0a565b949350505050565b60006060820190506127cd6000830186611ebe565b6127da6020830185611e0a565b6127e76040830184611e0a565b949350505050565b7f4e487b7100000000000000000000000000000000000000000000000000000000600052601160045260246000fd5b600061282982611b84565b915061283483611b84565b925082820190508082111561284c5761284b6127ef565b5b9291505056fea26469706673582212204d73a4d11330aa6a2f176a420a6ac2125f6876d7f65e189c9ff323c3d57b497264736f6c634300081c0033",
  "linkReferences": {},
  "deployedLinkReferences": {}
}