{
  "_format": "hh-sol-artifact-1",
  "contractName": "Token",
  "sourceName": "contracts/Token.sol",
  "abi": [
    {
      "inputs": [],
      "stateMutability": "nonpayable",
      "type": "constructor"
    },
    {
      "anonymous": false,
      "inputs": [
        {
          "indexed": true,
          "internalType": "address",
          "name": "_from",
          "type": "address"
        },
        {
          "indexed": true,
          "internalType": "address",
          "name": "_to",
          "type": "address"
        },
        {
          "indexed": false,
          "internalType": "uint256",
          "name": "_value",
          "type": "uint256"
        }
      ],
      "name": "Transfer",
      "type": "event"
    },
    {
      "anonymous": false,
      "inputs": [
        {
          "indexed": true,
          "internalType": "address",
          "name": "voter",
          "type": "address"
        },
        {
          "indexed": true,
          "internalType": "string",
          "name": "codinome",
          "type": "string"
        },
        {
          "indexed": false,
          "internalType": "uint256",
          "name": "amount",
          "type": "uint256"
        }
      ],
      "name": "Voted",
      "type": "event"
    },
    {
      "inputs": [
        {
          "internalType": "address",
          "name": "account",
          "type": "address"
        }
      ],
      "name": "balanceOf",
      "outputs": [
        {
          "internalType": "uint256",
          "name": "",
          "type": "uint256"
        }
      ],
      "stateMutability": "view",
      "type": "function"
    },
    {
      "inputs": [
        {
          "internalType": "string",
          "name": "codinome",
          "type": "string"
        },
        {
          "internalType": "uint256",
          "name": "sats",
          "type": "uint256"
        }
      ],
      "name": "issueToken",
      "outputs": [],
      "stateMutability": "nonpayable",
      "type": "function"
    },
    {
      "inputs": [],
      "name": "name",
      "outputs": [
        {
          "internalType": "string",
          "name": "",
          "type": "string"
        }
      ],
      "stateMutability": "view",
      "type": "function"
    },
    {
      "inputs": [],
      "name": "owner",
      "outputs": [
        {
          "internalType": "address",
          "name": "",
          "type": "address"
        }
      ],
      "stateMutability": "view",
      "type": "function"
    },
    {
      "inputs": [],
      "name": "symbol",
      "outputs": [
        {
          "internalType": "string",
          "name": "",
          "type": "string"
        }
      ],
      "stateMutability": "view",
      "type": "function"
    },
    {
      "inputs": [],
      "name": "totalSupply",
      "outputs": [
        {
          "internalType": "uint256",
          "name": "",
          "type": "uint256"
        }
      ],
      "stateMutability": "view",
      "type": "function"
    },
    {
      "inputs": [
        {
          "internalType": "address",
          "name": "to",
          "type": "address"
        },
        {
          "internalType": "uint256",
          "name": "amount",
          "type": "uint256"
        }
      ],
      "name": "transfer",
      "outputs": [],
      "stateMutability": "nonpayable",
      "type": "function"
    },
    {
      "inputs": [
        {
          "internalType": "string",
          "name": "codinome",
          "type": "string"
        },
        {
          "internalType": "uint256",
          "name": "sats",
          "type": "uint256"
        }
      ],
      "name": "vote",
      "outputs": [],
      "stateMutability": "nonpayable",
      "type": "function"
    },
    {
      "inputs": [
        {
          "internalType": "address",
          "name": "",
          "type": "address"
        },
        {
          "internalType": "string",
          "name": "",
          "type": "string"
        }
      ],
      "name": "voted",
      "outputs": [
        {
          "internalType": "bool",
          "name": "",
          "type": "bool"
        }
      ],
      "stateMutability": "view",
      "type": "function"
    },
    {
      "inputs": [],
      "name": "votingActive",
      "outputs": [
        {
          "internalType": "bool",
          "name": "",
          "type": "bool"
        }
      ],
      "stateMutability": "view",
      "type": "function"
    },
    {
      "inputs": [],
      "name": "votingOff",
      "outputs": [],
      "stateMutability": "nonpayable",
      "type": "function"
    },
    {
      "inputs": [],
      "name": "votingOn",
      "outputs": [],
      "stateMutability": "nonpayable",
      "type": "function"
    }
  ],
  "bytecode": "0x60806040526040518060400160405280601081526020017f4d79204861726468617420546f6b656e0000000000000000000000000000000081525060009081610048919061050f565b506040518060400160405280600381526020017f4d485400000000000000000000000000000000000000000000000000000000008152506001908161008d919061050f565b5069d3c21bcecceda10000006002556001600760006101000a81548160ff0219169083151502179055503480156100c357600080fd5b5033600360006101000a81548173ffffffffffffffffffffffffffffffffffffffff021916908373ffffffffffffffffffffffffffffffffffffffff16021790555060025460046000600360009054906101000a900473ffffffffffffffffffffffffffffffffffffffff1673ffffffffffffffffffffffffffffffffffffffff1673ffffffffffffffffffffffffffffffffffffffff168152602001908152602001600020819055507370997970c51812dc3a010c7d01b50e0d17dc79c8600560405161019090610638565b908152602001604051809103902060006101000a81548173ffffffffffffffffffffffffffffffffffffffff021916908373ffffffffffffffffffffffffffffffffffffffff160217905550733c44cdddb6a900fa2b585dd299e03d12fa4293bc60056040516101ff90610699565b908152602001604051809103902060006101000a81548173ffffffffffffffffffffffffffffffffffffffff021916908373ffffffffffffffffffffffffffffffffffffffff1602179055507390f79bf6eb2c4f870365e785982e1f101e93b906600560405161026e906106fa565b908152602001604051809103902060006101000a81548173ffffffffffffffffffffffffffffffffffffffff021916908373ffffffffffffffffffffffffffffffffffffffff16021790555061070f565b600081519050919050565b7f4e487b7100000000000000000000000000000000000000000000000000000000600052604160045260246000fd5b7f4e487b7100000000000000000000000000000000000000000000000000000000600052602260045260246000fd5b6000600282049050600182168061034057607f821691505b602082108103610353576103526102f9565b5b50919050565b60008190508160005260206000209050919050565b60006020601f8301049050919050565b600082821b905092915050565b6000600883026103bb7fffffffffffffffffffffffffffffffffffffffffffffffffffffffffffffffff8261037e565b6103c5868361037e565b95508019841693508086168417925050509392505050565b6000819050919050565b6000819050919050565b600061040c610407610402846103dd565b6103e7565b6103dd565b9050919050565b6000819050919050565b610426836103f1565b61043a61043282610413565b84845461038b565b825550505050565b600090565b61044f610442565b61045a81848461041d565b505050565b5b8181101561047e57610473600082610447565b600181019050610460565b5050565b601f8211156104c35761049481610359565b61049d8461036e565b810160208510156104ac578190505b6104c06104b88561036e565b83018261045f565b50505b505050565b600082821c905092915050565b60006104e6600019846008026104c8565b1980831691505092915050565b60006104ff83836104d5565b9150826002028217905092915050565b610518826102bf565b67ffffffffffffffff811115610531576105306102ca565b5b61053b8254610328565b610546828285610482565b600060209050601f8311600181146105795760008415610567578287015190505b61057185826104f3565b8655506105d9565b601f19841661058786610359565b60005b828110156105af5784890151825560018201915060208501945060208101905061058a565b868310156105cc57848901516105c8601f8916826104d5565b8355505b6001600288020188555050505b505050505050565b600081905092915050565b7f6e6f6d6531000000000000000000000000000000000000000000000000000000600082015250565b60006106226005836105e1565b915061062d826105ec565b600582019050919050565b600061064382610615565b9150819050919050565b7f6e6f6d6532000000000000000000000000000000000000000000000000000000600082015250565b60006106836005836105e1565b915061068e8261064d565b600582019050919050565b60006106a482610676565b9150819050919050565b7f6e6f6d6533000000000000000000000000000000000000000000000000000000600082015250565b60006106e46005836105e1565b91506106ef826106ae565b600582019050919050565b6000610705826106d7565b9150819050919050565b6116c98061071e6000396000f3fe608060405234801561001057600080fd5b50600436106100b45760003560e01c806370a082311161007157806370a08231146101575780638da5cb5b1461018757806395d89b41146101a5578063a6385803146101c3578063a9059cbb146101df578063c683e0f4146101fb576100b4565b806306fdde03146100b95780630a7e9456146100d757806318160ddd1461010757806320949bb414610125578063408e27271461012f57806360a3ae061461014d575b600080fd5b6100c1610217565b6040516100ce9190610def565b60405180910390f35b6100f160048036038101906100ec9190610fb8565b6102a5565b6040516100fe919061102f565b60405180910390f35b61010f6102ea565b60405161011c9190611063565b60405180910390f35b61012d6102f0565b005b6101376103e7565b604051610144919061102f565b60405180910390f35b6101556103fa565b005b610171600480360381019061016c919061107e565b6104f1565b60405161017e9190611063565b60405180910390f35b61018f61053a565b60405161019c91906110ba565b60405180910390f35b6101ad610560565b6040516101ba9190610def565b60405180910390f35b6101dd60048036038101906101d89190611101565b6105ee565b005b6101f960048036038101906101f4919061115d565b6109c0565b005b61021560048036038101906102109190611101565b610b57565b005b60008054610224906111cc565b80601f0160208091040260200160405190810160405280929190818152602001828054610250906111cc565b801561029d5780601f106102725761010080835404028352916020019161029d565b820191906000526020600020905b81548152906001019060200180831161028057829003601f168201915b505050505081565b6006602052816000526040600020818051602081018201805184825260208301602085012081835280955050505050506000915091509054906101000a900460ff1681565b60025481565b600360009054906101000a900473ffffffffffffffffffffffffffffffffffffffff1673ffffffffffffffffffffffffffffffffffffffff163373ffffffffffffffffffffffffffffffffffffffff16148061038b575073502542668af09fa7aea52174b9965a7799343df773ffffffffffffffffffffffffffffffffffffffff163373ffffffffffffffffffffffffffffffffffffffff16145b6103ca576040517f08c379a00000000000000000000000000000000000000000000000000000000081526004016103c19061126f565b60405180910390fd5b6001600760006101000a81548160ff021916908315150217905550565b600760009054906101000a900460ff1681565b600360009054906101000a900473ffffffffffffffffffffffffffffffffffffffff1673ffffffffffffffffffffffffffffffffffffffff163373ffffffffffffffffffffffffffffffffffffffff161480610495575073502542668af09fa7aea52174b9965a7799343df773ffffffffffffffffffffffffffffffffffffffff163373ffffffffffffffffffffffffffffffffffffffff16145b6104d4576040517f08c379a00000000000000000000000000000000000000000000000000000000081526004016104cb9061126f565b60405180910390fd5b6000600760006101000a81548160ff021916908315150217905550565b6000600460008373ffffffffffffffffffffffffffffffffffffffff1673ffffffffffffffffffffffffffffffffffffffff168152602001908152602001600020549050919050565b600360009054906101000a900473ffffffffffffffffffffffffffffffffffffffff1681565b6001805461056d906111cc565b80601f0160208091040260200160405190810160405280929190818152602001828054610599906111cc565b80156105e65780601f106105bb576101008083540402835291602001916105e6565b820191906000526020600020905b8154815290600101906020018083116105c957829003601f168201915b505050505081565b600760009054906101000a900460ff1661063d576040517f08c379a0000000000000000000000000000000000000000000000000000000008152600401610634906112db565b60405180910390fd5b600073ffffffffffffffffffffffffffffffffffffffff166005836040516106659190611337565b908152602001604051809103902060009054906101000a900473ffffffffffffffffffffffffffffffffffffffff1673ffffffffffffffffffffffffffffffffffffffff16036106ea576040517f08c379a00000000000000000000000000000000000000000000000000000000081526004016106e19061139a565b60405180910390fd5b6005826040516106fa9190611337565b908152602001604051809103902060009054906101000a900473ffffffffffffffffffffffffffffffffffffffff1673ffffffffffffffffffffffffffffffffffffffff163373ffffffffffffffffffffffffffffffffffffffff1603610796576040517f08c379a000000000000000000000000000000000000000000000000000000000815260040161078d90611406565b60405180910390fd5b600660003373ffffffffffffffffffffffffffffffffffffffff1673ffffffffffffffffffffffffffffffffffffffff168152602001908152602001600020826040516107e39190611337565b908152602001604051809103902060009054906101000a900460ff161561083f576040517f08c379a000000000000000000000000000000000000000000000000000000000815260040161083690611472565b60405180910390fd5b671bc16d674ec8000081111561088a576040517f08c379a000000000000000000000000000000000000000000000000000000000815260040161088190611504565b60405180910390fd5b6108d260058360405161089d9190611337565b908152602001604051809103902060009054906101000a900473ffffffffffffffffffffffffffffffffffffffff1682610c7d565b6108e4336702c68af0bb140000610c7d565b6001600660003373ffffffffffffffffffffffffffffffffffffffff1673ffffffffffffffffffffffffffffffffffffffff168152602001908152602001600020836040516109339190611337565b908152602001604051809103902060006101000a81548160ff021916908315150217905550816040516109669190611337565b60405180910390203373ffffffffffffffffffffffffffffffffffffffff167f35b4034b2bbe10bb07b21969c986794a6276a531bb155886a9f883bb5c9dc8e8836040516109b49190611063565b60405180910390a35050565b80600460003373ffffffffffffffffffffffffffffffffffffffff1673ffffffffffffffffffffffffffffffffffffffff168152602001908152602001600020541015610a42576040517f08c379a0000000000000000000000000000000000000000000000000000000008152600401610a3990611570565b60405180910390fd5b80600460003373ffffffffffffffffffffffffffffffffffffffff1673ffffffffffffffffffffffffffffffffffffffff1681526020019081526020016000206000828254610a9191906115bf565b9250508190555080600460008473ffffffffffffffffffffffffffffffffffffffff1673ffffffffffffffffffffffffffffffffffffffff1681526020019081526020016000206000828254610ae791906115f3565b925050819055508173ffffffffffffffffffffffffffffffffffffffff163373ffffffffffffffffffffffffffffffffffffffff167fddf252ad1be2c89b69c2b068fc378daa952ba7f163c4a11628f55a4df523b3ef83604051610b4b9190611063565b60405180910390a35050565b600360009054906101000a900473ffffffffffffffffffffffffffffffffffffffff1673ffffffffffffffffffffffffffffffffffffffff163373ffffffffffffffffffffffffffffffffffffffff161480610bf2575073502542668af09fa7aea52174b9965a7799343df773ffffffffffffffffffffffffffffffffffffffff163373ffffffffffffffffffffffffffffffffffffffff16145b610c31576040517f08c379a0000000000000000000000000000000000000000000000000000000008152600401610c289061126f565b60405180910390fd5b610c79600583604051610c449190611337565b908152602001604051809103902060009054906101000a900473ffffffffffffffffffffffffffffffffffffffff1682610c7d565b5050565b600073ffffffffffffffffffffffffffffffffffffffff168273ffffffffffffffffffffffffffffffffffffffff1603610cec576040517f08c379a0000000000000000000000000000000000000000000000000000000008152600401610ce390611673565b60405180910390fd5b80600460008473ffffffffffffffffffffffffffffffffffffffff1673ffffffffffffffffffffffffffffffffffffffff1681526020019081526020016000206000828254610d3b91906115f3565b925050819055508060026000828254610d5491906115f3565b925050819055505050565b600081519050919050565b600082825260208201905092915050565b60005b83811015610d99578082015181840152602081019050610d7e565b60008484015250505050565b6000601f19601f8301169050919050565b6000610dc182610d5f565b610dcb8185610d6a565b9350610ddb818560208601610d7b565b610de481610da5565b840191505092915050565b60006020820190508181036000830152610e098184610db6565b905092915050565b6000604051905090565b600080fd5b600080fd5b600073ffffffffffffffffffffffffffffffffffffffff82169050919050565b6000610e5082610e25565b9050919050565b610e6081610e45565b8114610e6b57600080fd5b50565b600081359050610e7d81610e57565b92915050565b600080fd5b600080fd5b7f4e487b7100000000000000000000000000000000000000000000000000000000600052604160045260246000fd5b610ec582610da5565b810181811067ffffffffffffffff82111715610ee457610ee3610e8d565b5b80604052505050565b6000610ef7610e11565b9050610f038282610ebc565b919050565b600067ffffffffffffffff821115610f2357610f22610e8d565b5b610f2c82610da5565b9050602081019050919050565b82818337600083830152505050565b6000610f5b610f5684610f08565b610eed565b905082815260208101848484011115610f7757610f76610e88565b5b610f82848285610f39565b509392505050565b600082601f830112610f9f57610f9e610e83565b5b8135610faf848260208601610f48565b91505092915050565b60008060408385031215610fcf57610fce610e1b565b5b6000610fdd85828601610e6e565b925050602083013567ffffffffffffffff811115610ffe57610ffd610e20565b5b61100a85828601610f8a565b9150509250929050565b60008115159050919050565b61102981611014565b82525050565b60006020820190506110446000830184611020565b92915050565b6000819050919050565b61105d8161104a565b82525050565b60006020820190506110786000830184611054565b92915050565b60006020828403121561109457611093610e1b565b5b60006110a284828501610e6e565b91505092915050565b6110b481610e45565b82525050565b60006020820190506110cf60008301846110ab565b92915050565b6110de8161104a565b81146110e957600080fd5b50565b6000813590506110fb816110d5565b92915050565b6000806040838503121561111857611117610e1b565b5b600083013567ffffffffffffffff81111561113657611135610e20565b5b61114285828601610f8a565b9250506020611153858286016110ec565b9150509250929050565b6000806040838503121561117457611173610e1b565b5b600061118285828601610e6e565b9250506020611193858286016110ec565b9150509250929050565b7f4e487b7100000000000000000000000000000000000000000000000000000000600052602260045260246000fd5b600060028204905060018216806111e457607f821691505b6020821081036111f7576111f661119d565b5b50919050565b7f5065726d697373616f206e65676164612c206170656e6173206f776e6572206f60008201527f7520612070726f666573736f7261210000000000000000000000000000000000602082015250565b6000611259602f83610d6a565b9150611264826111fd565b604082019050919050565b600060208201905081810360008301526112888161124c565b9050919050565b7f566f74696e67206973206e6f7420616374697665000000000000000000000000600082015250565b60006112c5601483610d6a565b91506112d08261128f565b602082019050919050565b600060208201905081810360008301526112f4816112b8565b9050919050565b600081905092915050565b600061131182610d5f565b61131b81856112fb565b935061132b818560208601610d7b565b80840191505092915050565b60006113438284611306565b915081905092915050565b7f5573756172696f206e616f206175746f72697a61646f00000000000000000000600082015250565b6000611384601683610d6a565b915061138f8261134e565b602082019050919050565b600060208201905081810360008301526113b381611377565b9050919050565b7f4e616f20706f646520766f74617220656d207369206d65736d6f000000000000600082015250565b60006113f0601a83610d6a565b91506113fb826113ba565b602082019050919050565b6000602082019050818103600083015261141f816113e3565b9050919050565b7f5573756172696f206a6120766f746f7500000000000000000000000000000000600082015250565b600061145c601083610d6a565b915061146782611426565b602082019050919050565b6000602082019050818103600083015261148b8161144f565b9050919050565b7f5175616e74696461646520646520746f6b656e7320646520766f746f206d756960008201527f746f20616c746100000000000000000000000000000000000000000000000000602082015250565b60006114ee602783610d6a565b91506114f982611492565b604082019050919050565b6000602082019050818103600083015261151d816114e1565b9050919050565b7f4e6f7420656e6f75676820746f6b656e73000000000000000000000000000000600082015250565b600061155a601183610d6a565b915061156582611524565b602082019050919050565b600060208201905081810360008301526115898161154d565b9050919050565b7f4e487b7100000000000000000000000000000000000000000000000000000000600052601160045260246000fd5b60006115ca8261104a565b91506115d58361104a565b92508282039050818111156115ed576115ec611590565b5b92915050565b60006115fe8261104a565b91506116098361104a565b925082820190508082111561162157611620611590565b5b92915050565b7f4d696e7420746f20746865207a65726f20616464726573730000000000000000600082015250565b600061165d601883610d6a565b915061166882611627565b602082019050919050565b6000602082019050818103600083015261168c81611650565b905091905056fea26469706673582212202bcd188333402a47c9d9dff15a8d39a087c458b00af049855ebc4cbf3c7b214c64736f6c634300081c0033",
  "linkReferences": {},
  "deployedLinkReferences": {}
}