{
  "_format": "hh-sol-artifact-1",
  "contractName": "Token",
  "sourceName": "contracts/Token.sol",
  "abi": [
    {
      "inputs": [],
      "stateMutability": "nonpayable",
      "type": "constructor"
    },
    {
      "inputs": [
        {
          "internalType": "address",
          "name": "spender",
          "type": "address"
        },
        {
          "internalType": "uint256",
          "name": "allowance",
          "type": "uint256"
        },
        {
          "internalType": "uint256",
          "name": "needed",
          "type": "uint256"
        }
      ],
      "name": "ERC20InsufficientAllowance",
      "type": "error"
    },
    {
      "inputs": [
        {
          "internalType": "address",
          "name": "sender",
          "type": "address"
        },
        {
          "internalType": "uint256",
          "name": "balance",
          "type": "uint256"
        },
        {
          "internalType": "uint256",
          "name": "needed",
          "type": "uint256"
        }
      ],
      "name": "ERC20InsufficientBalance",
      "type": "error"
    },
    {
      "inputs": [
        {
          "internalType": "address",
          "name": "approver",
          "type": "address"
        }
      ],
      "name": "ERC20InvalidApprover",
      "type": "error"
    },
    {
      "inputs": [
        {
          "internalType": "address",
          "name": "receiver",
          "type": "address"
        }
      ],
      "name": "ERC20InvalidReceiver",
      "type": "error"
    },
    {
      "inputs": [
        {
          "internalType": "address",
          "name": "sender",
          "type": "address"
        }
      ],
      "name": "ERC20InvalidSender",
      "type": "error"
    },
    {
      "inputs": [
        {
          "internalType": "address",
          "name": "spender",
          "type": "address"
        }
      ],
      "name": "ERC20InvalidSpender",
      "type": "error"
    },
    {
      "anonymous": false,
      "inputs": [
        {
          "indexed": true,
          "internalType": "address",
          "name": "owner",
          "type": "address"
        },
        {
          "indexed": true,
          "internalType": "address",
          "name": "spender",
          "type": "address"
        },
        {
          "indexed": false,
          "internalType": "uint256",
          "name": "value",
          "type": "uint256"
        }
      ],
      "name": "Approval",
      "type": "event"
    },
    {
      "anonymous": false,
      "inputs": [
        {
          "indexed": true,
          "internalType": "address",
          "name": "from",
          "type": "address"
        },
        {
          "indexed": true,
          "internalType": "address",
          "name": "to",
          "type": "address"
        },
        {
          "indexed": false,
          "internalType": "uint256",
          "name": "value",
          "type": "uint256"
        }
      ],
      "name": "Transfer",
      "type": "event"
    },
    {
      "anonymous": false,
      "inputs": [
        {
          "indexed": false,
          "internalType": "string",
          "name": "sender",
          "type": "string"
        },
        {
          "indexed": false,
          "internalType": "string",
          "name": "recipient",
          "type": "string"
        },
        {
          "indexed": false,
          "internalType": "uint256",
          "name": "amount",
          "type": "uint256"
        }
      ],
      "name": "Voted",
      "type": "event"
    },
    {
      "inputs": [
        {
          "internalType": "address",
          "name": "owner",
          "type": "address"
        },
        {
          "internalType": "address",
          "name": "spender",
          "type": "address"
        }
      ],
      "name": "allowance",
      "outputs": [
        {
          "internalType": "uint256",
          "name": "",
          "type": "uint256"
        }
      ],
      "stateMutability": "view",
      "type": "function"
    },
    {
      "inputs": [
        {
          "internalType": "address",
          "name": "spender",
          "type": "address"
        },
        {
          "internalType": "uint256",
          "name": "value",
          "type": "uint256"
        }
      ],
      "name": "approve",
      "outputs": [
        {
          "internalType": "bool",
          "name": "",
          "type": "bool"
        }
      ],
      "stateMutability": "nonpayable",
      "type": "function"
    },
    {
      "inputs": [
        {
          "internalType": "string",
          "name": "codinome",
          "type": "string"
        }
      ],
      "name": "balanceByCodiname",
      "outputs": [
        {
          "internalType": "uint256",
          "name": "",
          "type": "uint256"
        }
      ],
      "stateMutability": "view",
      "type": "function"
    },
    {
      "inputs": [
        {
          "internalType": "address",
          "name": "account",
          "type": "address"
        }
      ],
      "name": "balanceOf",
      "outputs": [
        {
          "internalType": "uint256",
          "name": "",
          "type": "uint256"
        }
      ],
      "stateMutability": "view",
      "type": "function"
    },
    {
      "inputs": [],
      "name": "decimals",
      "outputs": [
        {
          "internalType": "uint8",
          "name": "",
          "type": "uint8"
        }
      ],
      "stateMutability": "view",
      "type": "function"
    },
    {
      "inputs": [],
      "name": "getAllBalances",
      "outputs": [
        {
          "internalType": "string[]",
          "name": "",
          "type": "string[]"
        },
        {
          "internalType": "uint256[]",
          "name": "",
          "type": "uint256[]"
        }
      ],
      "stateMutability": "view",
      "type": "function"
    },
    {
      "inputs": [
        {
          "internalType": "string",
          "name": "codinome",
          "type": "string"
        },
        {
          "internalType": "uint256",
          "name": "sats",
          "type": "uint256"
        }
      ],
      "name": "issueToken",
      "outputs": [],
      "stateMutability": "nonpayable",
      "type": "function"
    },
    {
      "inputs": [],
      "name": "name",
      "outputs": [
        {
          "internalType": "string",
          "name": "",
          "type": "string"
        }
      ],
      "stateMutability": "view",
      "type": "function"
    },
    {
      "inputs": [],
      "name": "owner",
      "outputs": [
        {
          "internalType": "address",
          "name": "",
          "type": "address"
        }
      ],
      "stateMutability": "view",
      "type": "function"
    },
    {
      "inputs": [],
      "name": "professora",
      "outputs": [
        {
          "internalType": "address",
          "name": "",
          "type": "address"
        }
      ],
      "stateMutability": "view",
      "type": "function"
    },
    {
      "inputs": [],
      "name": "symbol",
      "outputs": [
        {
          "internalType": "string",
          "name": "",
          "type": "string"
        }
      ],
      "stateMutability": "view",
      "type": "function"
    },
    {
      "inputs": [],
      "name": "totalSupply",
      "outputs": [
        {
          "internalType": "uint256",
          "name": "",
          "type": "uint256"
        }
      ],
      "stateMutability": "view",
      "type": "function"
    },
    {
      "inputs": [
        {
          "internalType": "address",
          "name": "to",
          "type": "address"
        },
        {
          "internalType": "uint256",
          "name": "value",
          "type": "uint256"
        }
      ],
      "name": "transfer",
      "outputs": [
        {
          "internalType": "bool",
          "name": "",
          "type": "bool"
        }
      ],
      "stateMutability": "nonpayable",
      "type": "function"
    },
    {
      "inputs": [
        {
          "internalType": "address",
          "name": "from",
          "type": "address"
        },
        {
          "internalType": "address",
          "name": "to",
          "type": "address"
        },
        {
          "internalType": "uint256",
          "name": "value",
          "type": "uint256"
        }
      ],
      "name": "transferFrom",
      "outputs": [
        {
          "internalType": "bool",
          "name": "",
          "type": "bool"
        }
      ],
      "stateMutability": "nonpayable",
      "type": "function"
    },
    {
      "inputs": [
        {
          "internalType": "string",
          "name": "codinome",
          "type": "string"
        },
        {
          "internalType": "uint256",
          "name": "sats",
          "type": "uint256"
        }
      ],
      "name": "vote",
      "outputs": [],
      "stateMutability": "nonpayable",
      "type": "function"
    },
    {
      "inputs": [
        {
          "internalType": "address",
          "name": "",
          "type": "address"
        },
        {
          "internalType": "string",
          "name": "",
          "type": "string"
        }
      ],
      "name": "voted",
      "outputs": [
        {
          "internalType": "bool",
          "name": "",
          "type": "bool"
        }
      ],
      "stateMutability": "view",
      "type": "function"
    },
    {
      "inputs": [],
      "name": "votingActive",
      "outputs": [
        {
          "internalType": "bool",
          "name": "",
          "type": "bool"
        }
      ],
      "stateMutability": "view",
      "type": "function"
    },
    {
      "inputs": [],
      "name": "votingOff",
      "outputs": [],
      "stateMutability": "nonpayable",
      "type": "function"
    },
    {
      "inputs": [],
      "name": "votingOn",
      "outputs": [],
      "stateMutability": "nonpayable",
      "type": "function"
    }
  ],
  "bytecode": "0x608060405273502542668af09fa7aea52174b9965a7799343df7600660006101000a81548173ffffffffffffffffffffffffffffffffffffffff021916908373ffffffffffffffffffffffffffffffffffffffff1602179055506001600660146101000a81548160ff021916908315150217905550601367ffffffffffffffff81111561008f5761008e610b4d565b5b6040519080825280602002602001820160405280156100c257816020015b60608152602001906001900390816100ad5790505b50600790805190602001906100d8929190610a73565b503480156100e557600080fd5b506040518060400160405280600681526020017f547572696e6700000000000000000000000000000000000000000000000000008152506040518060400160405280600381526020017f545552000000000000000000000000000000000000000000000000000000000081525081600390816101619190610d9d565b5080600490816101719190610d9d565b50505033600560006101000a81548173ffffffffffffffffffffffffffffffffffffffff021916908373ffffffffffffffffffffffffffffffffffffffff16021790555060006040518061026001604052807370997970c51812dc3a010c7d01b50e0d17dc79c873ffffffffffffffffffffffffffffffffffffffff1673ffffffffffffffffffffffffffffffffffffffff168152602001733c44cdddb6a900fa2b585dd299e03d12fa4293bc73ffffffffffffffffffffffffffffffffffffffff1673ffffffffffffffffffffffffffffffffffffffff1681526020017390f79bf6eb2c4f870365e785982e1f101e93b90673ffffffffffffffffffffffffffffffffffffffff1673ffffffffffffffffffffffffffffffffffffffff1681526020017315d34aaf54267db7d7c367839aaf71a00a2c6a6573ffffffffffffffffffffffffffffffffffffffff1673ffffffffffffffffffffffffffffffffffffffff168152602001739965507d1a55bcc2695c58ba16fb37d819b0a4dc73ffffffffffffffffffffffffffffffffffffffff1673ffffffffffffffffffffffffffffffffffffffff16815260200173976ea74026e726554db657fa54763abd0c3a0aa973ffffffffffffffffffffffffffffffffffffffff1673ffffffffffffffffffffffffffffffffffffffff1681526020017314dc79964da2c08b23698b3d3cc7ca32193d995573ffffffffffffffffffffffffffffffffffffffff1673ffffffffffffffffffffffffffffffffffffffff1681526020017323618e81e3f5cdf7f54c3d65f7fbc0abf5b21e8f73ffffffffffffffffffffffffffffffffffffffff1673ffffffffffffffffffffffffffffffffffffffff16815260200173a0ee7a142d267c1f36714e4a8f75612f20a7972073ffffffffffffffffffffffffffffffffffffffff1673ffffffffffffffffffffffffffffffffffffffff16815260200173bcd4042de499d14e55001ccbb24a551f3b95409673ffffffffffffffffffffffffffffffffffffffff1673ffffffffffffffffffffffffffffffffffffffff1681526020017371be63f3384f5fb98995898a86b02fb2426c578873ffffffffffffffffffffffffffffffffffffffff1673ffffffffffffffffffffffffffffffffffffffff16815260200173fabb0ac9d68b0b445fb7357272ff202c5651694a73ffffffffffffffffffffffffffffffffffffffff1673ffffffffffffffffffffffffffffffffffffffff168152602001731cbd3b2770909d4e10f157cabc84c7264073c9ec73ffffffffffffffffffffffffffffffffffffffff1673ffffffffffffffffffffffffffffffffffffffff16815260200173df3e18d64bc6a983f673ab319ccae4f1a57c709773ffffffffffffffffffffffffffffffffffffffff1673ffffffffffffffffffffffffffffffffffffffff16815260200173cd3b766ccdd6ae721141f452c550ca635964ce7173ffffffffffffffffffffffffffffffffffffffff1673ffffffffffffffffffffffffffffffffffffffff168152602001732546bcd3c84621e976d8185a91a922ae77ecec3073ffffffffffffffffffffffffffffffffffffffff1673ffffffffffffffffffffffffffffffffffffffff16815260200173bda5747bfd65f08deb54cb465eb87d40e51b197e73ffffffffffffffffffffffffffffffffffffffff1673ffffffffffffffffffffffffffffffffffffffff16815260200173dd2fd4581271e230360230f9337d5c0430bf44c073ffffffffffffffffffffffffffffffffffffffff1673ffffffffffffffffffffffffffffffffffffffff168152602001738626f6940e2eb28930efb4cef49b2d1f2c9c119973ffffffffffffffffffffffffffffffffffffffff1673ffffffffffffffffffffffffffffffffffffffff168152509050606060005b6013811015610844576107128161084c60201b60201c565b6040516020016107229190610efb565b6040516020818303038152906040529150816007828154811061074857610747610f21565b5b90600052602060002001908161075e9190610d9d565b5082816013811061077257610771610f21565b5b60200201516009836040516107879190610f50565b908152602001604051809103902060006101000a81548173ffffffffffffffffffffffffffffffffffffffff021916908373ffffffffffffffffffffffffffffffffffffffff16021790555081600860008584601381106107eb576107ea610f21565b5b602002015173ffffffffffffffffffffffffffffffffffffffff1673ffffffffffffffffffffffffffffffffffffffff16815260200190815260200160002090816108369190610d9d565b5080806001019150506106fa565b505050610f96565b6060600060016108618461092060201b60201c565b01905060008167ffffffffffffffff8111156108805761087f610b4d565b5b6040519080825280601f01601f1916602001820160405280156108b25781602001600182028036833780820191505090505b509050600082602001820190505b600115610915578080600190039150507f3031323334353637383961626364656600000000000000000000000000000000600a86061a8153600a858161090957610908610f67565b5b049450600085036108c0575b819350505050919050565b600080600090507a184f03e93ff9f4daa797ed6e38ed64bf6a1f010000000000000000831061097e577a184f03e93ff9f4daa797ed6e38ed64bf6a1f010000000000000000838161097457610973610f67565b5b0492506040810190505b6d04ee2d6d415b85acef810000000083106109bb576d04ee2d6d415b85acef810000000083816109b1576109b0610f67565b5b0492506020810190505b662386f26fc1000083106109ea57662386f26fc1000083816109e0576109df610f67565b5b0492506010810190505b6305f5e1008310610a13576305f5e1008381610a0957610a08610f67565b5b0492506008810190505b6127108310610a38576127108381610a2e57610a2d610f67565b5b0492506004810190505b60648310610a5b5760648381610a5157610a50610f67565b5b0492506002810190505b600a8310610a6a576001810190505b80915050919050565b828054828255906000526020600020908101928215610abb579160200282015b82811115610aba578251829081610aaa9190610d9d565b5091602001919060010190610a93565b5b509050610ac89190610acc565b5090565b5b80821115610aec5760008181610ae39190610af0565b50600101610acd565b5090565b508054610afc90610bb6565b6000825580601f10610b0e5750610b2d565b601f016020900490600052602060002090810190610b2c9190610b30565b5b50565b5b80821115610b49576000816000905550600101610b31565b5090565b7f4e487b7100000000000000000000000000000000000000000000000000000000600052604160045260246000fd5b600081519050919050565b7f4e487b7100000000000000000000000000000000000000000000000000000000600052602260045260246000fd5b60006002820490506001821680610bce57607f821691505b602082108103610be157610be0610b87565b5b50919050565b60008190508160005260206000209050919050565b60006020601f8301049050919050565b600082821b905092915050565b600060088302610c497fffffffffffffffffffffffffffffffffffffffffffffffffffffffffffffffff82610c0c565b610c538683610c0c565b95508019841693508086168417925050509392505050565b6000819050919050565b6000819050919050565b6000610c9a610c95610c9084610c6b565b610c75565b610c6b565b9050919050565b6000819050919050565b610cb483610c7f565b610cc8610cc082610ca1565b848454610c19565b825550505050565b600090565b610cdd610cd0565b610ce8818484610cab565b505050565b5b81811015610d0c57610d01600082610cd5565b600181019050610cee565b5050565b601f821115610d5157610d2281610be7565b610d2b84610bfc565b81016020851015610d3a578190505b610d4e610d4685610bfc565b830182610ced565b50505b505050565b600082821c905092915050565b6000610d7460001984600802610d56565b1980831691505092915050565b6000610d8d8383610d63565b9150826002028217905092915050565b610da682610b7c565b67ffffffffffffffff811115610dbf57610dbe610b4d565b5b610dc98254610bb6565b610dd4828285610d10565b600060209050601f831160018114610e075760008415610df5578287015190505b610dff8582610d81565b865550610e67565b601f198416610e1586610be7565b60005b82811015610e3d57848901518255600182019150602085019450602081019050610e18565b86831015610e5a5784890151610e56601f891682610d63565b8355505b6001600288020188555050505b505050505050565b7f6e6f6d6500000000000000000000000000000000000000000000000000000000815250565b600081905092915050565b60005b83811015610ebe578082015181840152602081019050610ea3565b60008484015250505050565b6000610ed582610b7c565b610edf8185610e95565b9350610eef818560208601610ea0565b80840191505092915050565b6000610f0682610e6f565b600482019150610f168284610eca565b915081905092915050565b7f4e487b7100000000000000000000000000000000000000000000000000000000600052603260045260246000fd5b6000610f5c8284610eca565b915081905092915050565b7f4e487b7100000000000000000000000000000000000000000000000000000000600052601260045260246000fd5b6125e580610fa56000396000f3fe608060405234801561001057600080fd5b50600436106101215760003560e01c806360a3ae06116100ad57806395d89b411161007157806395d89b41146102fd578063a63858031461031b578063a9059cbb14610337578063c683e0f414610367578063dd62ed3e1461038357610121565b806360a3ae06146102685780636c66247a1461027257806370a0823114610290578063867e7c27146102c05780638da5cb5b146102df57610121565b806318160ddd116100f457806318160ddd146101d457806320949bb4146101f257806323b872dd146101fc578063313ce5671461022c578063408e27271461024a57610121565b806306fdde0314610126578063095ea7b3146101445780630a7e945614610174578063104956ba146101a4575b600080fd5b61012e6103b3565b60405161013b91906118b9565b60405180910390f35b61015e60048036038101906101599190611983565b610445565b60405161016b91906119de565b60405180910390f35b61018e60048036038101906101899190611b2e565b610468565b60405161019b91906119de565b60405180910390f35b6101be60048036038101906101b99190611b8a565b6104ad565b6040516101cb9190611be2565b60405180910390f35b6101dc6105ac565b6040516101e99190611be2565b60405180910390f35b6101fa6105b6565b005b61021660048036038101906102119190611bfd565b6106bb565b60405161022391906119de565b60405180910390f35b6102346106ea565b6040516102419190611c6c565b60405180910390f35b6102526106f3565b60405161025f91906119de565b60405180910390f35b610270610706565b005b61027a61080b565b6040516102879190611c96565b60405180910390f35b6102aa60048036038101906102a59190611cb1565b610831565b6040516102b79190611be2565b60405180910390f35b6102c8610879565b6040516102d6929190611ea8565b60405180910390f35b6102e7610a46565b6040516102f49190611c96565b60405180910390f35b610305610a6c565b60405161031291906118b9565b60405180910390f35b61033560048036038101906103309190611edf565b610afe565b005b610351600480360381019061034c9190611983565b610f7b565b60405161035e91906119de565b60405180910390f35b610381600480360381019061037c9190611edf565b610f9e565b005b61039d60048036038101906103989190611f3b565b611181565b6040516103aa9190611be2565b60405180910390f35b6060600380546103c290611faa565b80601f01602080910402602001604051908101604052809291908181526020018280546103ee90611faa565b801561043b5780601f106104105761010080835404028352916020019161043b565b820191906000526020600020905b81548152906001019060200180831161041e57829003601f168201915b5050505050905090565b600080610450611208565b905061045d818585611210565b600191505092915050565b600a602052816000526040600020818051602081018201805184825260208301602085012081835280955050505050506000915091509054906101000a900460ff1681565b60006009826040516104bf9190612017565b908152602001604051809103902060009054906101000a900473ffffffffffffffffffffffffffffffffffffffff16600073ffffffffffffffffffffffffffffffffffffffff168173ffffffffffffffffffffffffffffffffffffffff160361055d576040517f08c379a00000000000000000000000000000000000000000000000000000000081526004016105549061207a565b60405180910390fd5b6105a46009846040516105709190612017565b908152602001604051809103902060009054906101000a900473ffffffffffffffffffffffffffffffffffffffff16610831565b915050919050565b6000600254905090565b600560009054906101000a900473ffffffffffffffffffffffffffffffffffffffff1673ffffffffffffffffffffffffffffffffffffffff163373ffffffffffffffffffffffffffffffffffffffff16148061065f5750600660009054906101000a900473ffffffffffffffffffffffffffffffffffffffff1673ffffffffffffffffffffffffffffffffffffffff163373ffffffffffffffffffffffffffffffffffffffff16145b61069e576040517f08c379a00000000000000000000000000000000000000000000000000000000081526004016106959061210c565b60405180910390fd5b6001600660146101000a81548160ff021916908315150217905550565b6000806106c6611208565b90506106d3858285611222565b6106de8585856112b7565b60019150509392505050565b60006012905090565b600660149054906101000a900460ff1681565b600560009054906101000a900473ffffffffffffffffffffffffffffffffffffffff1673ffffffffffffffffffffffffffffffffffffffff163373ffffffffffffffffffffffffffffffffffffffff1614806107af5750600660009054906101000a900473ffffffffffffffffffffffffffffffffffffffff1673ffffffffffffffffffffffffffffffffffffffff163373ffffffffffffffffffffffffffffffffffffffff16145b6107ee576040517f08c379a00000000000000000000000000000000000000000000000000000000081526004016107e59061210c565b60405180910390fd5b6000600660146101000a81548160ff021916908315150217905550565b600660009054906101000a900473ffffffffffffffffffffffffffffffffffffffff1681565b60008060008373ffffffffffffffffffffffffffffffffffffffff1673ffffffffffffffffffffffffffffffffffffffff168152602001908152602001600020549050919050565b6060806000601367ffffffffffffffff81111561089957610898611a03565b5b6040519080825280602002602001820160405280156108c75781602001602082028036833780820191505090505b50905060005b60138110156109665761093a6009600783815481106108ef576108ee61212c565b5b9060005260206000200160405161090691906121f3565b908152602001604051809103902060009054906101000a900473ffffffffffffffffffffffffffffffffffffffff16610831565b82828151811061094d5761094c61212c565b5b60200260200101818152505080806001019150506108cd565b5060078181805480602002602001604051908101604052809291908181526020016000905b82821015610a375783829060005260206000200180546109aa90611faa565b80601f01602080910402602001604051908101604052809291908181526020018280546109d690611faa565b8015610a235780601f106109f857610100808354040283529160200191610a23565b820191906000526020600020905b815481529060010190602001808311610a0657829003601f168201915b50505050508152602001906001019061098b565b50505050915092509250509091565b600560009054906101000a900473ffffffffffffffffffffffffffffffffffffffff1681565b606060048054610a7b90611faa565b80601f0160208091040260200160405190810160405280929190818152602001828054610aa790611faa565b8015610af45780601f10610ac957610100808354040283529160200191610af4565b820191906000526020600020905b815481529060010190602001808311610ad757829003601f168201915b5050505050905090565b600660149054906101000a900460ff16610b4d576040517f08c379a0000000000000000000000000000000000000000000000000000000008152600401610b4490612256565b60405180910390fd5b6000600860003373ffffffffffffffffffffffffffffffffffffffff1673ffffffffffffffffffffffffffffffffffffffff1681526020019081526020016000208054610b9990611faa565b905003610bdb576040517f08c379a0000000000000000000000000000000000000000000000000000000008152600401610bd2906122c2565b60405180910390fd5b600982604051610beb9190612017565b908152602001604051809103902060009054906101000a900473ffffffffffffffffffffffffffffffffffffffff16600073ffffffffffffffffffffffffffffffffffffffff168173ffffffffffffffffffffffffffffffffffffffff1603610c89576040517f08c379a0000000000000000000000000000000000000000000000000000000008152600401610c809061207a565b60405180910390fd5b82600981604051610c9a9190612017565b908152602001604051809103902060009054906101000a900473ffffffffffffffffffffffffffffffffffffffff1673ffffffffffffffffffffffffffffffffffffffff163373ffffffffffffffffffffffffffffffffffffffff1603610d36576040517f08c379a0000000000000000000000000000000000000000000000000000000008152600401610d2d9061232e565b60405180910390fd5b83600a60003373ffffffffffffffffffffffffffffffffffffffff1673ffffffffffffffffffffffffffffffffffffffff16815260200190815260200160002081604051610d849190612017565b908152602001604051809103902060009054906101000a900460ff1615610de0576040517f08c379a0000000000000000000000000000000000000000000000000000000008152600401610dd79061239a565b60405180910390fd5b83671bc16d674ec80000811115610e2c576040517f08c379a0000000000000000000000000000000000000000000000000000000008152600401610e239061242c565b60405180910390fd5b610e74600987604051610e3f9190612017565b908152602001604051809103902060009054906101000a900473ffffffffffffffffffffffffffffffffffffffff16866113ab565b610e86336702c68af0bb1400006113ab565b6001600a60003373ffffffffffffffffffffffffffffffffffffffff1673ffffffffffffffffffffffffffffffffffffffff16815260200190815260200160002087604051610ed59190612017565b908152602001604051809103902060006101000a81548160ff0219169083151502179055507f2610aa2b32505d0b372e2695cef7ff28b0127250b30a4dbbb05a86d2fb1e524e600860003373ffffffffffffffffffffffffffffffffffffffff1673ffffffffffffffffffffffffffffffffffffffff1681526020019081526020016000208787604051610f6b939291906124d0565b60405180910390a1505050505050565b600080610f86611208565b9050610f938185856112b7565b600191505092915050565b600560009054906101000a900473ffffffffffffffffffffffffffffffffffffffff1673ffffffffffffffffffffffffffffffffffffffff163373ffffffffffffffffffffffffffffffffffffffff1614806110475750600660009054906101000a900473ffffffffffffffffffffffffffffffffffffffff1673ffffffffffffffffffffffffffffffffffffffff163373ffffffffffffffffffffffffffffffffffffffff16145b611086576040517f08c379a000000000000000000000000000000000000000000000000000000000815260040161107d9061210c565b60405180910390fd5b6009826040516110969190612017565b908152602001604051809103902060009054906101000a900473ffffffffffffffffffffffffffffffffffffffff16600073ffffffffffffffffffffffffffffffffffffffff168173ffffffffffffffffffffffffffffffffffffffff1603611134576040517f08c379a000000000000000000000000000000000000000000000000000000000815260040161112b9061207a565b60405180910390fd5b61117c6009846040516111479190612017565b908152602001604051809103902060009054906101000a900473ffffffffffffffffffffffffffffffffffffffff16836113ab565b505050565b6000600160008473ffffffffffffffffffffffffffffffffffffffff1673ffffffffffffffffffffffffffffffffffffffff16815260200190815260200160002060008373ffffffffffffffffffffffffffffffffffffffff1673ffffffffffffffffffffffffffffffffffffffff16815260200190815260200160002054905092915050565b600033905090565b61121d838383600161142d565b505050565b600061122e8484611181565b90507fffffffffffffffffffffffffffffffffffffffffffffffffffffffffffffffff8110156112b157818110156112a1578281836040517ffb8f41b200000000000000000000000000000000000000000000000000000000815260040161129893929190612515565b60405180910390fd5b6112b08484848403600061142d565b5b50505050565b600073ffffffffffffffffffffffffffffffffffffffff168373ffffffffffffffffffffffffffffffffffffffff16036113295760006040517f96c6fd1e0000000000000000000000000000000000000000000000000000000081526004016113209190611c96565b60405180910390fd5b600073ffffffffffffffffffffffffffffffffffffffff168273ffffffffffffffffffffffffffffffffffffffff160361139b5760006040517fec442f050000000000000000000000000000000000000000000000000000000081526004016113929190611c96565b60405180910390fd5b6113a6838383611604565b505050565b600073ffffffffffffffffffffffffffffffffffffffff168273ffffffffffffffffffffffffffffffffffffffff160361141d5760006040517fec442f050000000000000000000000000000000000000000000000000000000081526004016114149190611c96565b60405180910390fd5b61142960008383611604565b5050565b600073ffffffffffffffffffffffffffffffffffffffff168473ffffffffffffffffffffffffffffffffffffffff160361149f5760006040517fe602df050000000000000000000000000000000000000000000000000000000081526004016114969190611c96565b60405180910390fd5b600073ffffffffffffffffffffffffffffffffffffffff168373ffffffffffffffffffffffffffffffffffffffff16036115115760006040517f94280d620000000000000000000000000000000000000000000000000000000081526004016115089190611c96565b60405180910390fd5b81600160008673ffffffffffffffffffffffffffffffffffffffff1673ffffffffffffffffffffffffffffffffffffffff16815260200190815260200160002060008573ffffffffffffffffffffffffffffffffffffffff1673ffffffffffffffffffffffffffffffffffffffff1681526020019081526020016000208190555080156115fe578273ffffffffffffffffffffffffffffffffffffffff168473ffffffffffffffffffffffffffffffffffffffff167f8c5be1e5ebec7d5bd14f71427d1e84f3dd0314c0f7b2291e5b200ac8c7c3b925846040516115f59190611be2565b60405180910390a35b50505050565b600073ffffffffffffffffffffffffffffffffffffffff168373ffffffffffffffffffffffffffffffffffffffff160361165657806002600082825461164a919061257b565b92505081905550611729565b60008060008573ffffffffffffffffffffffffffffffffffffffff1673ffffffffffffffffffffffffffffffffffffffff168152602001908152602001600020549050818110156116e2578381836040517fe450d38c0000000000000000000000000000000000000000000000000000000081526004016116d993929190612515565b60405180910390fd5b8181036000808673ffffffffffffffffffffffffffffffffffffffff1673ffffffffffffffffffffffffffffffffffffffff16815260200190815260200160002081905550505b600073ffffffffffffffffffffffffffffffffffffffff168273ffffffffffffffffffffffffffffffffffffffff160361177257806002600082825403925050819055506117bf565b806000808473ffffffffffffffffffffffffffffffffffffffff1673ffffffffffffffffffffffffffffffffffffffff168152602001908152602001600020600082825401925050819055505b8173ffffffffffffffffffffffffffffffffffffffff168373ffffffffffffffffffffffffffffffffffffffff167fddf252ad1be2c89b69c2b068fc378daa952ba7f163c4a11628f55a4df523b3ef8360405161181c9190611be2565b60405180910390a3505050565b600081519050919050565b600082825260208201905092915050565b60005b83811015611863578082015181840152602081019050611848565b60008484015250505050565b6000601f19601f8301169050919050565b600061188b82611829565b6118958185611834565b93506118a5818560208601611845565b6118ae8161186f565b840191505092915050565b600060208201905081810360008301526118d38184611880565b905092915050565b6000604051905090565b600080fd5b600080fd5b600073ffffffffffffffffffffffffffffffffffffffff82169050919050565b600061191a826118ef565b9050919050565b61192a8161190f565b811461193557600080fd5b50565b60008135905061194781611921565b92915050565b6000819050919050565b6119608161194d565b811461196b57600080fd5b50565b60008135905061197d81611957565b92915050565b6000806040838503121561199a576119996118e5565b5b60006119a885828601611938565b92505060206119b98582860161196e565b9150509250929050565b60008115159050919050565b6119d8816119c3565b82525050565b60006020820190506119f360008301846119cf565b92915050565b600080fd5b600080fd5b7f4e487b7100000000000000000000000000000000000000000000000000000000600052604160045260246000fd5b611a3b8261186f565b810181811067ffffffffffffffff82111715611a5a57611a59611a03565b5b80604052505050565b6000611a6d6118db565b9050611a798282611a32565b919050565b600067ffffffffffffffff821115611a9957611a98611a03565b5b611aa28261186f565b9050602081019050919050565b82818337600083830152505050565b6000611ad1611acc84611a7e565b611a63565b905082815260208101848484011115611aed57611aec6119fe565b5b611af8848285611aaf565b509392505050565b600082601f830112611b1557611b146119f9565b5b8135611b25848260208601611abe565b91505092915050565b60008060408385031215611b4557611b446118e5565b5b6000611b5385828601611938565b925050602083013567ffffffffffffffff811115611b7457611b736118ea565b5b611b8085828601611b00565b9150509250929050565b600060208284031215611ba057611b9f6118e5565b5b600082013567ffffffffffffffff811115611bbe57611bbd6118ea565b5b611bca84828501611b00565b91505092915050565b611bdc8161194d565b82525050565b6000602082019050611bf76000830184611bd3565b92915050565b600080600060608486031215611c1657611c156118e5565b5b6000611c2486828701611938565b9350506020611c3586828701611938565b9250506040611c468682870161196e565b9150509250925092565b600060ff82169050919050565b611c6681611c50565b82525050565b6000602082019050611c816000830184611c5d565b92915050565b611c908161190f565b82525050565b6000602082019050611cab6000830184611c87565b92915050565b600060208284031215611cc757611cc66118e5565b5b6000611cd584828501611938565b91505092915050565b600081519050919050565b600082825260208201905092915050565b6000819050602082019050919050565b600082825260208201905092915050565b6000611d2682611829565b611d308185611d0a565b9350611d40818560208601611845565b611d498161186f565b840191505092915050565b6000611d608383611d1b565b905092915050565b6000602082019050919050565b6000611d8082611cde565b611d8a8185611ce9565b935083602082028501611d9c85611cfa565b8060005b85811015611dd85784840389528151611db98582611d54565b9450611dc483611d68565b925060208a01995050600181019050611da0565b50829750879550505050505092915050565b600081519050919050565b600082825260208201905092915050565b6000819050602082019050919050565b611e1f8161194d565b82525050565b6000611e318383611e16565b60208301905092915050565b6000602082019050919050565b6000611e5582611dea565b611e5f8185611df5565b9350611e6a83611e06565b8060005b83811015611e9b578151611e828882611e25565b9750611e8d83611e3d565b925050600181019050611e6e565b5085935050505092915050565b60006040820190508181036000830152611ec28185611d75565b90508181036020830152611ed68184611e4a565b90509392505050565b60008060408385031215611ef657611ef56118e5565b5b600083013567ffffffffffffffff811115611f1457611f136118ea565b5b611f2085828601611b00565b9250506020611f318582860161196e565b9150509250929050565b60008060408385031215611f5257611f516118e5565b5b6000611f6085828601611938565b9250506020611f7185828601611938565b9150509250929050565b7f4e487b7100000000000000000000000000000000000000000000000000000000600052602260045260246000fd5b60006002820490506001821680611fc257607f821691505b602082108103611fd557611fd4611f7b565b5b50919050565b600081905092915050565b6000611ff182611829565b611ffb8185611fdb565b935061200b818560208601611845565b80840191505092915050565b60006120238284611fe6565b915081905092915050565b7f44657374696e61746172696f206e616f206175746f72697a61646f2100000000600082015250565b6000612064601c83611834565b915061206f8261202e565b602082019050919050565b6000602082019050818103600083015261209381612057565b9050919050565b7f5065726d697373616f206e65676164612c206170656e6173206f776e6572206f60008201527f7520612070726f666573736f7261210000000000000000000000000000000000602082015250565b60006120f6602f83611834565b91506121018261209a565b604082019050919050565b60006020820190508181036000830152612125816120e9565b9050919050565b7f4e487b7100000000000000000000000000000000000000000000000000000000600052603260045260246000fd5b60008190508160005260206000209050919050565b6000815461217d81611faa565b6121878186611fdb565b945060018216600081146121a257600181146121b7576121ea565b60ff19831686528115158202860193506121ea565b6121c08561215b565b60005b838110156121e2578154818901526001820191506020810190506121c3565b838801955050505b50505092915050565b60006121ff8284612170565b915081905092915050565b7f566f746163616f20657374612064657361746976616461210000000000000000600082015250565b6000612240601883611834565b915061224b8261220a565b602082019050919050565b6000602082019050818103600083015261226f81612233565b9050919050565b7f52656d6574656e7465206e616f206175746f72697a61646f2100000000000000600082015250565b60006122ac601983611834565b91506122b782612276565b602082019050919050565b600060208201905081810360008301526122db8161229f565b9050919050565b7f4e616f20706f646520766f74617220656d207369206d65736d6f210000000000600082015250565b6000612318601b83611834565b9150612323826122e2565b602082019050919050565b600060208201905081810360008301526123478161230b565b9050919050565b7f566f6365206a6120766f746f75206e65737365207573756172696f2100000000600082015250565b6000612384601c83611834565b915061238f8261234e565b602082019050919050565b600060208201905081810360008301526123b381612377565b9050919050565b7f5175616e74696461646520646520746f6b656e7320646520766f746f206d756960008201527f746f20616c746121000000000000000000000000000000000000000000000000602082015250565b6000612416602883611834565b9150612421826123ba565b604082019050919050565b6000602082019050818103600083015261244581612409565b9050919050565b6000815461245981611faa565b6124638186611834565b9450600182166000811461247e5760018114612494576124c7565b60ff1983168652811515602002860193506124c7565b61249d8561215b565b60005b838110156124bf578154818901526001820191506020810190506124a0565b808801955050505b50505092915050565b600060608201905081810360008301526124ea818661244c565b905081810360208301526124fe8185611880565b905061250d6040830184611bd3565b949350505050565b600060608201905061252a6000830186611c87565b6125376020830185611bd3565b6125446040830184611bd3565b949350505050565b7f4e487b7100000000000000000000000000000000000000000000000000000000600052601160045260246000fd5b60006125868261194d565b91506125918361194d565b92508282019050808211156125a9576125a861254c565b5b9291505056fea26469706673582212204876a34454d99665264c23b31cd2e99115d958dd3e95c9090436f8c4a6d09c1564736f6c634300081c0033",
  "linkReferences": {},
  "deployedLinkReferences": {}
}